:100000003A01406B3A01506B3A01706B3F01C26894
:10001000C36AC56A200EF66EC00ECD6E18EF00F0F2
:0A002000C0F9A4B0999282F880980C
:100030001F0E156E2A0E146EE86A25EC00F033ECE4
:1000400000F06DEC00F018EF00F0E86ACB80CAB069
:10005000010ECB90CB82CAB0020ECB92CB84CAB039
:10006000030ECB941200106E000E106239EF00F0F8
:100070001200020E10643FEF00F066EF00F0106017
:1000800055EF00F044EF00F0E86A6F00DBFFE8FF97
:10009000146451EF00F0E86A09006F00D7FFCDFF4C
:1000A0001200200EF66E4CEF00F0E86A6F00DBFFE6
:1000B000E8FF156062EF00F0E86A0A006F00D7FF02
:1000C000CDFF1200290EF66E5DEF00F0200EF66EE9
:1000D00008006F00D7FFCDFF1200E86AFF0E116E17
:1000E000126EFF0E136E0000114EFDD7FF0E116E43
:0E00F000122EF9D7FF0E126E132EF8D7120043
:020000040030CA
:0A000000F8FFFFFF9FFFFFFFFFFF67
:00000001FF
