:04000000FEEFFFF020
:1020000000842500000000CE2900B62900642900C4
:102010004428000000000000000000000000000054
:1020200000000000000000000000000000000000B0
:1020300000000000000000000000000000B22800C6
:102040009028006E280000000070726F6772616D4A
:102050006D656400436F7272656374210057726F1F
:0D2060006E6721002575202000434D000013
:10206E00BDEC14F0C2EC12F03D01DB8FDA89E4EC2A
:10207E0014F00BEC14F0000E0A6E490E0B6E0B50A2
:10208E00D8A4200E0C6E010ED1EC13F0030E026ECE
:10209E00E80E016E67EC13F0590E4D6EE0EC14F085
:1020AE00000E4E6E95EF10F00D0EF66E200EF76EC2
:1020BE00000EF86E02D871EF10F00500FA6E0900EE
:1020CE00F550FD6E0900F550FE6E0900F550FF6EDD
:1020DE00FA5012000009D8B477EF10F079EF10F033
:1020EE0095EF10F04E50400FD96EDA6A070EF66E6D
:1020FE00200EF76E000EF86E02D893EF10F005006A
:10210E00FA6E0900F550FD6E0900F550FE6E0900DD
:10211E00F550FF6EFA501200DF6E4E2A080E4E6416
:10212E009BEF10F09DEF10F05BEF10F0090E4E18C4
:10213E00D8A4A4EF10F0A6EF10F057EF10F0000E99
:10214E004F6E4F50400FD96EDA6A4D50DE18D8A43C
:10215E00B3EF10F0B5EF10F0FFEF10F04FC02AF014
:10216E00010E2A262A50400FD96EDA6A4D50DE181B
:10217E00D8A4C4EF10F0C6EF10F0FFEF10F04FC070
:10218E002AF0020E2A262A50400FD96EDA6ADF5044
:10219E004B6E4FC02AF0030E2A262A50400FD96EDE
:1021AE00DA6ADF504C6E4C502A6E4B50496E2AC084
:1021BE004AF02C0E196E640E1A6E49C01BF04AC0FE
:1021CE001CF0F1EC13F0000E0A6E2C0E0B6E0C6A66
:1021DE00020ED1EC13F0050E0A6E690E0B6E0B504B
:1021EE00D8A4200E0C6E020ED1EC13F057EF10F0A7
:1021FE004F2A050E4F6406EF11F008EF11F0A8EF0D
:10220E0010F057EF10F0FEEFFFF00C50D96EDA6AB7
:10221E006F007FFFF6FF200EF76E000EF86E0800BF
:10222E00F550250AD8A41EEF11F020EF11F0BBEFE8
:10223E0011F00C50D96EDA6ADF2A000E0001876F9A
:10224E00000E866F86C05EF0886989690C50D96E63
:10225E00DA6ADF50136E60004FF0F6FF200EF76E55
:10226E00000EF86E0800F550750AD8A441EF11F073
:10227E0043EF11F0B5EF11F00D50D96EDA6A020E80
:10228E00DF26DF5CD96EDA6A6F0078FF0FF06F0021
:10229E0078FF10F00C50D96EDA6A1328DF6EA6EFB5
:1022AE0011F0200E146E14061450600FD96EDA6AF7
:1022BE000FC001F010C002F0000E046E0A0E036E85
:1022CE0035EC13F00150300FDF6E0FC001F010C06F
:1022DE0002F0000E046E0A0E036E88EC12F001C0BE
:1022EE000FF002C010F00F501010D8B481EF11F0A3
:1022FE0083EF11F09BEF11F01450D8A489EF11F079
:10230E008BEF11F05AEF11F09BEF11F01450600F9C
:10231E00D96EDA6ADF500E6E0E50036E046A0BC071
:10232E0005F032EC12F0142A200E1418D8A4A2EFE5
:10233E0011F0A4EF11F08DEF11F0CFEF11F060005E
:10234E004FF0F6FF200EF76E000EF86E0800F550F7
:10235E00750AD8B458EF11F0B5EF11F00C50D96ED4
:10236E00DA6ADF2ACFEF11F00C50D96EDA6A6F00FD
:10237E007FFFF6FF200EF76E000EF86E0800F55088
:10238E00036E046A0BC005F032EC12F0B5EF11F0DB
:10239E001200000EBA6E000EBB6E000EBC6E000E6A
:1023AE00BD6E000EBE6EC268C368C468FD0EC56EFB
:1023BE00070EC66E3A01406950696069FC0E706F77
:1023CE00070E806F000E416F000E516F000E616F91
:1023DE00000E716F000E816F000E426F000E526F75
:1023EE00000E626F000E726F000E826F43695369AA
:1023FE0063697369070E836F44695469646974690C
:10240E000F0E846F000E5A6F000E5B6F000E6A6F18
:10241E00000E6B6F000E7A6F000E7B6F180EE86F5A
:10242E00160E196F000E456F000E466F000E476FA9
:10243E00000E556F000E566F000E576F000E656F33
:10244E00000E666F000E676F000E856F000E866FB2
:10245E00000E876F12000550D8B438EF12F03AEF25
:10246E0012F042EF12F00550D8A440EF12F042EFF6
:10247E0012F047EF12F0035079EC14F087EF12F0E0
:10248E000550D96EDA6A0A0ED926DE50DE10D8B49F
:10249E0053EF12F055EF12F06EEF12F00550D96EA9
:1024AE00DA6A0A0ED9260550E16EE26A030EE126BB
:1024BE00DE50E65CE650800A0A6EDE50800A0A584C
:1024CE00D8B06CEF12F06EEF12F087EF12F00550ED
:1024DE00D96EDA6A030ED926DF50066E0550D96E14
:1024EE00DA6ADF500624D96EDA6A60000FF0DFFF79
:1024FE000550D96EDA6A030ED926DE2A000EDD22C9
:10250E001200000E066E000E056E03500410D8B4B5
:10251E0093EF12F095EF12F0BDEF12F0010E076E71
:10252E009DEF12F0D89003360436072A04AEA2EFC0
:10253E0012F0A4EF12F099EF12F0D890053606368D
:10254E000350015C04500258D8A0B0EF12F0B2EF65
:10255E0012F0B7EF12F00350015E0450025A0580DC
:10256E00D89004320332072EA4EF12F005C001F00A
:10257E0006C002F01200000E3D01D06F000ED26FA9
:10258E00000ED46F000ED66F000ED86FB00EDA6F3D
:10259E00800EDB6F000EDC6F100EDD6F000EDE6F37
:1025AE002E0EDF6F000EE06F800EE16F000EE26FF9
:1025BE00000E016E000E026E000E036E59EC14F04A
:1025CE00000E016E000E026E000E036E48EC14F04B
:1025DE00000E016E000E026E000E036E37EC14F04C
:1025EE00000E5D6E000E5C6E120017EF13F06000B1
:1025FE0023F0F6FF600027F0F7FF000EF86E1F0EB7
:10260E00F76403D00800F55007D06F00DBFFE9FF39
:10261E006F00DFFFEAFFEF5088EC14F0084A092A3A
:10262E00600023F0F6FF600027F0F7FF000EF86E53
:10263E001F0EF76403D00800F55007D06F00DBFFC4
:10264E00E9FF6F00DFFFEAFFEF500009D8A432EF79
:10265E0013F034EF13F0FEEF12F0120003500410DB
:10266E00D8B43CEF13F03EEF13F062EF13F0010E0F
:10267E00056E46EF13F0D89003360436052A04AEE5
:10268E004BEF13F04DEF13F042EF13F00350015CDC
:10269E0004500258D8A056EF13F058EF13F05CEF29
:1026AE0013F00350015E0450025AD89004320332E4
:1026BE00052E4DEF13F001C001F002C002F0120022
:1026CE00000E046E000E036E80EF13F0000E066E09
:1026DE00000E056E054A062A065009E1A50E055C98
:1026EE00D8A07CEF13F07EEF13F071EF13F0034AD6
:1026FE00042A0150035C02500458D8A089EF13F04D
:10270E008BEF13F06DEF13F01200D29A3901A191F5
:10271E00D280000E016E000E026E000E036ED4EC1F
:10272E0014F03901A591D282000E016E000E026ED8
:10273E00000E036ECDEC14F03901A79BD284000E6F
:10274E00016E000E026E000E036EC6EC14F0120047
:10275E0016C018F0BBEF13F015C00BF0180E0C6E70
:10276E0017C00DF00CEC11F0600063F0F6FF200EB8
:10277E00F76E000EF86E0800F5500009D8A4CAEFE7
:10278E0013F0CCEF13F0B3EF13F0000E166E000E35
:10279E00156E12000D6E020E0D60D8EF13F0DAEF0B
:1027AE0013F0E3EF13F00A500F0B80090E6E0E506C
:1027BE0097EC14F0EAEF13F00A500F0BC0090E6EEF
:1027CE000E5097EC14F00BC008F00CC009F0FCECA6
:1027DE0012F012001B0E1D6E19C01EF0000E226E9E
:1027EE00000E216E000E296E000E286E1E0E156E46
:1027FE001AC016F01D0E176EAFEC13F019502124EF
:10280E00D96EDA6ADF6A1200000E026E0F0E016ECA
:10281E0067EC13F0000EC36E000EC26E010E97EC45
:10282E0014F0380E97EC14F00C0E97EC14F0060E14
:10283E0097EC14F01200000E016E3D01DFAB2AEF93
:10284E0014F02CEF14F035EF14F0DAAB31EF14F086
:10285E0033EF14F035EF14F0010E016E015012003B
:10286E00015002100310D8B43FEF14F041EF14F0F2
:10287E0047EF14F001C080F002C081F003C082F077
:10288E001200015002100310D8B450EF14F052EFA2
:10289E0014F058EF14F001C083F002C084F003C0AE
:1028AE0085F01200015002100310D8B461EF14F03D
:1028BE0063EF14F069EF14F001C050F002C051F054
:1028CE0003C052F0120000EE60F02A0EEE6AE80627
:1028DE00FDE100EE50F0100EEE6AE806FDE100019B
:1028EE0037EF10F0026E22EC14F00009D8B482EF2C
:1028FE0014F084EF14F07AEF14F00250DBEC14F0C5
:10290E001200076E60001FF0BBFFBA80BA82000093
:10291E00BA92000E026E010E016E67EC13F01200F9
:10292E00076E60001FF0BBFFBA90BA820000BA9229
:10293E00000E026E030E016E67EC13F01200600EB5
:10294E003901D96F000EDB6F000EDD6F030EDF6FE6
:10295E00000EDE6F12003D01DFA3B8EF14F0BBEFE7
:10296E0014F0010EBCEF14F0000E1200A6EC14F0E1
:10297E00D0EC11F0C2EC12F08CEC13F0120001C08E
:10298E0053F002C054F003C055F0120001C056F0CF
:10299E0002C057F003C058F0120001C059F002C037
:1029AE005AF003C05BF01200016E600007F0D2FD1A
:1029BE001200010E97EC14F012003D01DA8912009C
:0629CE003D01D051120092
:020000040001F9
:04FFFC006AEF14F0A4
:020000040030CA
:0A0000008FFFF7FF9FFFFFFFFFFFD8
:00000001FF
