:04000000FEEFFFF020
:10200000004E2A00000000B43000A0300034300040
:10201000882E00000000000000000000000000000A
:1020200000000000000000000000000000000000B0
:1020300000000000000000000000000000862F00EB
:10204000642F00422F00000000D82A00000000BAD0
:102050003000AA30004A3000B22E0000000000001C
:102060000000000000000000000000000000000070
:102070000000000000000000000000000000000060
:102080000000000000202F00FE2E00DC2E000000CB
:1020900000436F7272656374210057726F6E67211F
:1020A0000025752020200025750D0A006675636BDC
:1020B00000434D00256400000E50D96EDA6A6F00AF
:1020C0007FFFF6FF200EF76E000EF86E0800F55049
:1020D000250AD8A46EEF10F070EF10F0B9EF11F0F0
:1020E0000E50D96EDA6ADF2A000E00019C6F000ED6
:1020F0009B6F9BC057F09D699E690E50D96EDA6A3E
:10210000DF50126E60004BF0F6FF200EF76E000EEF
:10211000F86E0800F550640AD8B491EF10F093EF10
:1021200010F0A4EF10F060004BF0F6FF200EF76EF9
:10213000000EF86E0800F550690AD8A4A2EF10F05E
:10214000A4EF10F02EEF11F00F50D96EDA6A020EE4
:10215000DF26DF5CD96EDA6A6F0078FF13F06F005C
:1021600078FF14F00E50D96EDA6A1228DF6E200E56
:10217000176E14BEBEEF10F0C1EF10F0010EC2EFEB
:1021800010F0000E116E17061750600FD96EDA6A44
:1021900013C001F014C002F0000E046E0A0E036EAC
:1021A0002BEC14F001C007F002C008F013EC17F09C
:1021B0000750300FDF6E13C001F014C002F0000EA4
:1021C000046E0A0E036E69EC13F001C013F002C036
:1021D00014F013501410D8B4F0EF10F0F2EF10F028
:1021E000FAEF10F01750D8A4F8EF10F0FAEF10F053
:1021F000C3EF10F01750D8B400EF11F002EF11F058
:1022000023EF11F01150D8B408EF11F00AEF11F0DC
:1022100023EF11F017061750600FD96EDA6A2D0EF2
:10222000DF6E23EF11F01750600FD96EDA6ADF50BE
:10223000106E1050036E046A0CC005F00DC006F05D
:10224000CBEC13F0172A200E1718D8A42AEF11F0A0
:102250002CEF11F013EF11F0CFEF11F060004BF005
:10226000F6FF200EF76E000EF86E0800F550750AA6
:10227000D8A43DEF11F03FEF11F0B3EF11F00F5084
:10228000D96EDA6A020EDF26DF5CD96EDA6A6F0079
:1022900078FF13F06F0078FF14F00E50D96EDA6AF1
:1022A0001228DF6EA4EF11F0200E176E17061750DC
:1022B000600FD96EDA6A13C001F014C002F0000E8C
:1022C000046E0A0E036E1AEC16F00150300FDF6E2A
:1022D00013C001F014C002F0000E046E0A0E036E6B
:1022E000A7EC15F001C013F002C014F01350141045
:1022F000D8B47DEF11F07FEF11F099EF11F0175086
:10230000D8A485EF11F087EF11F056EF11F099EF97
:1023100011F01750600FD96EDA6ADF50106E10504E
:10232000036E046A0CC005F00DC006F0CBEC13F090
:10233000172A200E1718D8A4A0EF11F0A2EF11F061
:1023400089EF11F0CFEF11F060004BF0F6FF200E97
:10235000F76E000EF86E0800F550750AD8B454EF09
:1023600011F0B3EF11F00E50D96EDA6ADF2ACFEF19
:1023700011F00E50D96EDA6A6F007FFFF6FF200E63
:10238000F76E000EF86E0800F550036E046A0CC07C
:1023900005F00DC006F0CBEC13F0B3EF11F0120016
:1023A000590E526E000E4F6E000E516E000E506EA2
:1023B000000E4D6E000E536E18EF12F00D0EF66EFD
:1023C000200EF76E000EF86E02D8F4EF11F0050043
:1023D000FA6E0900F550FD6E0900F550FE6E090019
:1023E000F550FF6EFA5012000009D8B4FAEF11F060
:1023F000FCEF11F018EF12F05350440FD96EDA6A67
:10240000070EF66E200EF76E000EF86E02D816EF6D
:1024100012F00500FA6E0900F550FD6E0900F55046
:10242000FE6E0900F550FF6EFA501200DF6E532A5F
:10243000080E53641EEF12F020EF12F0DEEF11F0E1
:10244000000E546E5450440FD96EDA6A5250DE18A2
:10245000D8A42DEF12F02FEF12F081EF12F054C03C
:102460002EF0010E2E262E50440FD96EDA6A5250ED
:10247000DE18D8A43EEF12F040EF12F081EF12F018
:1024800054C02EF0020E2E262E50440FD96EDA6A5A
:10249000DF504E6E54C02EF0030E2E262E50440FE9
:1024A000D96EDA6ADF504F6E4F502E6E4E50506E1E
:1024B0002EC051F0300E1D6EA10E1E6E50C01FF0CA
:1024C00051C020F0F8EC16F0000E0A6E300E0B6EC4
:1024D0000C6A020ED8EC16F0050E0A6EB10E0B6EE9
:1024E0000B50D8A4200E0C6E020ED8EC16F0A70EDE
:1024F0001D6E50C01EF051C01FF001EC18F08AEFA5
:1025000012F0542A050E546488EF12F08AEF12F08C
:1025100022EF12F01200000ECE6EC668000E3A01D5
:10252000806F000EBE6E30EC18F06CEC15F03D01C3
:10253000DB8FDA89DA8B60EC18F02DEC17F0000EE7
:102540000A6EAC0E0B6E0B50D8A4200E0C6E010E52
:10255000D8EC16F0030E026EE80E016E4CEC16F08D
:10256000060E026E030E036E000E046E000E056E64
:10257000000E066E5A0E83EC14F0040E026E040E6A
:10258000036E000E046E5A0ED7EC14F0000E566E59
:10259000000E556ECE50D8B4D0EF12F0D2EF12F03C
:1025A000CAEF12F0B40E1D6E000E1F6E050E1E6EE9
:1025B00001EC18F00B0E026EB80E016E4CEC16F02A
:1025C000B40E1D6E55C01EF056C01FF001EC18F081
:1025D000040E026E040E036E000E046E5A0ED7EC4B
:1025E00014F0D0EC11F00F0E026EA00E016E4CEC48
:1025F00016F00F0E5526000E5622E0EF12F0FEEFF9
:10260000FFF0000EBA6E000EBB6E000EBC6E000E28
:10261000BD6E000EBE6EC268C368BF0EC46EFE0EF5
:10262000C56E070EC66E3A01406950693F0E606F75
:10263000FC0E706F070E806F000E416F000E516F21
:10264000000E616F000E716F000E816F000E426F01
:10265000000E526F000E626F000E726F000E826FDE
:102660004369536963697369070E836F44695469E9
:10267000646974690F0E846F000E5A6F000E5B6FF1
:10268000000E6A6F000E6B6F000E7A6F000E7B6F8C
:10269000190EE86F170EE56F160E186F130E166FF2
:1026A000000E456F000E466F000E476F000E556F0F
:1026B000000E566F000E576F000E656F000E666FAE
:1026C000000E676F000E856F000E866F000E876F1D
:1026D0001200000E066E04BE72EF13F070EF13F0DE
:1026E00078EF13F0036C041ED8B0042A010E066EB6
:1026F00002BE7FEF13F07DEF13F085EF13F0016C56
:10270000021ED8B0022A010E061A000E086E000E34
:10271000076E03500410D8B490EF13F092EF13F04B
:10272000BAEF13F0010E056E9AEF13F0D89003364E
:102730000436052A04AE9FEF13F0A1EF13F096EFD5
:1027400013F0D890073608360350015C0450025845
:10275000D8A0ADEF13F0AFEF13F0B4EF13F00350C8
:10276000015E0450025A0780D89004320332052ECD
:10277000A1EF13F00650D8B4C0EF13F0C2EF13F07E
:10278000C6EF13F0076C081ED8B0082A07C001F086
:1027900008C002F0120005500610D8B4D2EF13F0B2
:1027A000D4EF13F0DDEF13F005500610D8A4DBEFE3
:1027B00013F0DDEF13F0E2EF13F00350D4EC17F059
:1027C0002AEF14F020EE0AF00550D9260650DA223E
:1027D000DE50DE10D8B4EFEF13F0F1EF13F00CEF92
:1027E00014F020EE0AF00550D9260650DA2210EE39
:1027F00003F00550E1260650E222DE50E65CE6508A
:10280000800A0B6EDE50800A0B58D8B00AEF14F025
:102810000CEF14F02AEF14F020EE03F00550D92647
:102820000650DA22DF50076E600017F0D9FF600013
:102830001BF0DAFFDF500724D96EDA6A60000FF070
:10284000DFFF20EE03F00550D9260650DA22DE2AFB
:10285000000EDD221200000E066E02BE34EF14F0F0
:1028600032EF14F03AEF14F0016C021ED8B0022AD5
:10287000010E066E04BE41EF14F03FEF14F045EF79
:1028800014F0036C041ED8B0042A03500410D8B40A
:102890004CEF14F04EEF14F072EF14F0010E056ED1
:1028A00056EF14F0D89003360436052A04AE5BEFD9
:1028B00014F05DEF14F052EF14F00350015C04507B
:1028C0000258D8A066EF14F068EF14F06CEF14F023
:1028D0000350015E0450025AD89004320332052E90
:1028E0005DEF14F00650D8B478EF14F07AEF14F0DE
:1028F0007EEF14F0016C021ED8B0022A01C001F074
:1029000002C002F012000D6E000E0E6E0DC007F038
:1029100002C008F003C009F004C00AF005C00BF0C3
:1029200006C00CF0CEEF14F0100EF66E200EF76E0F
:10293000000EF86E02D8AAEF14F00500FA6E090036
:10294000F550FD6E0900F550FE6E0900F550FF6E62
:10295000FA5012000009D8B4B0EF14F0B2EF14F03E
:10296000CEEF14F00A0EF66E200EF76E000EF86E23
:1029700002D8CDEF14F00500FA6E0900F550FD6E97
:102980000900F550FE6E0900F550FF6EFA500E502A
:10299000070FD96EDA6ADF5012000E2A050E0E6498
:1029A000D4EF14F0D6EF14F094EF14F012000B6E85
:1029B000000E0C6E0BC005F002C006F003C007F05D
:1029C00004C008F01EEF15F0100EF66E200EF76E24
:1029D000000EF86E02D8FAEF14F00500FA6E090046
:1029E000F550FD6E0900F550FE6E0900F550FF6EC2
:1029F000FA5012000009D8B400EF15F002EF15F0FC
:102A00001EEF15F00A0EF66E200EF76E000EF86E31
:102A100002D81DEF15F00500FA6E0900F550FD6EA5
:102A20000900F550FE6E0900F550FF6EFA500C508B
:102A3000050FD96EDA6ADF5012000C2A030E0C64FF
:102A400024EF15F026EF15F0E4EF14F01200000E5D
:102A50003D01E86F000EE96F000EEA6F000EEB6FAC
:102A6000000EEC6F000EED6F000EEE6F000EEF6FBC
:102A7000000EF06F000EF16FB00EF26F800EF36F6C
:102A8000080EF46F190EF56F000EF66F2E0EF76F2D
:102A9000000EF86F800EF96F000EFA6F000E016ED7
:102AA000000E026E000E036EC3EC17F0000E016EF6
:102AB000000E026E000E036EB2EC17F0000E016EF7
:102AC000000E026E000E036EA1EC17F0000E000166
:102AD000A06F000E9F6F1200000E3D01D06F000E20
:102AE000D26F000ED46F000ED66F000ED86FB00EEE
:102AF000DA6F800EDB6F000EDC6F380EDD6F010EBB
:102B0000DE6F2E0EDF6F000EE06F800EE16F000EA5
:102B1000E26F000E016E000E026E000E036E90EC6E
:102B200017F0000E016E000E026E000E036E7FECB9
:102B300017F0000E016E000E026E000E036E6EECBA
:102B400017F0000E0001A26F000EA16F1200000E20
:102B5000066E000E056E03500410D8B4B2EF15F0E7
:102B6000B4EF15F0DCEF15F0010E076EBCEF15F0B9
:102B7000D89003360436072A04AEC1EF15F0C3EF30
:102B800015F0B8EF15F0D890053606360350015C05
:102B900004500258D8A0CFEF15F0D1EF15F0D6EFC2
:102BA00015F00350015E0450025A0580D89004329B
:102BB0000332072EC3EF15F005C001F006C002F086
:102BC0001200FCEF15F0600023F0F6FF600027F024
:102BD000F7FF000EF86E1F0EF76403D00800F550E3
:102BE00007D06F00DBFFE9FF6F00DFFFEAFFEF5068
:102BF000E3EC17F0084A092A600023F0F6FF6000B2
:102C000027F0F7FF000EF86E1F0EF76403D00800E0
:102C1000F55007D06F00DBFFE9FF6F00DFFFEAFF31
:102C2000EF500009D8A417EF16F019EF16F0E3EFF4
:102C300015F0120003500410D8B421EF16F023EF62
:102C400016F047EF16F0010E056E2BEF16F0D89038
:102C500003360436052A04AE30EF16F032EF16F0D4
:102C600027EF16F00350015C04500258D8A03BEF48
:102C700016F03DEF16F041EF16F00350015E0450E0
:102C8000025AD89004320332052E32EF16F001C0FA
:102C900001F002C002F01200000E046E000E036E7E
:102CA00065EF16F0000E066E000E056E054A062A48
:102CB000065009E1A50E055CD8A061EF16F063EFA0
:102CC00016F056EF16F0034A042A0150035C025036
:102CD0000458D8A06EEF16F070EF16F052EF16F011
:102CE00012001AC01CF07FEF16F018C00CF019C0CB
:102CF0000DF01C0E0E6E1BC00FF05CEC10F06000AF
:102D000073F0F6FF200EF76E000EF86E0800F55017
:102D10000009D8A48EEF16F090EF16F075EF16F0BC
:102D2000000E196E000E186E1200D29A3901A19190
:102D3000D280000E016E000E026E000E036E49EC92
:102D400018F03901A591D282000E016E000E026EBC
:102D5000000E036E42EC18F03901A79BD284000EDE
:102D6000016E000E026E000E036E3BEC18F01200B6
:102D7000C60EF66E300EF76E000EF86E09006F008C
:102D8000D4FF5CF009006F00D4FF5DF009006F0014
:102D9000D4FF5EF000EE60F0430EEE6AE806FDE15F
:102DA0005B6A5A6A596A586A576A00018BEF12F0D7
:102DB0000D6E020E0D60DFEF16F0E1EF16F0EAEF98
:102DC00016F00A500F0B80090E6E0E50F2EC17F041
:102DD000F1EF16F00A500F0BC0090E6E0E50F2EC18
:102DE00017F00BC008F00CC009F0E1EC15F0120070
:102DF0001F0E216E1DC022F0000E266E000E256EE5
:102E0000000E2D6E000E2C6E220E186E196A1EC05A
:102E10001AF0210E1B6E71EC16F01D502524D96E90
:102E2000DA6ADF6A120008BE18EF17F01AEF17F01F
:102E300020EF17F007C007F008C008F02CEF17F0DC
:102E400007C009F008C00AF0091E0A1E094A0A2A2A
:102E500009C007F00AC008F01200000E026E0F0E43
:102E6000016E4CEC16F0000EC36E000EC26E010E29
:102E7000F2EC17F0380EF2EC17F00C0EF2EC17F043
:102E8000060EF2EC17F01200000E016E3D01F7ABDA
:102E90004CEF17F04EEF17F057EF17F0F2AB53EF80
:102EA00017F055EF17F057EF17F0010E016E0150B4
:102EB0001200000E016E3D01DFAB61EF17F063EF12
:102EC00017F06CEF17F0DAAB68EF17F06AEF17F056
:102ED0006CEF17F0010E016E01501200015002104C
:102EE0000310D8B476EF17F078EF17F07EEF17F0F5
:102EF00001C089F002C08AF003C08BF012000150BB
:102F000002100310D8B487EF17F089EF17F08FEF96
:102F100017F001C08CF002C08DF003C08EF01200DB
:102F2000015002100310D8B498EF17F09AEF17F081
:102F3000A0EF17F001C08FF002C090F003C091F035
:102F40001200015002100310D8B4A9EF17F0ABEF34
:102F500017F0B1EF17F001C080F002C081F003C09C
:102F600082F01200015002100310D8B4BAEF17F02B
:102F7000BCEF17F0C2EF17F001C083F002C084F07D
:102F800003C085F01200015002100310D8B4CBEF3B
:102F900017F0CDEF17F0D3EF17F001C086F002C0A5
:102FA00087F003C088F01200026E59EC17F0000998
:102FB000D8B4DDEF17F0DFEF17F0D5EF17F00250C0
:102FC00055EC18F01200076E60001FF0BBFFBA80CE
:102FD000BA820000BA92000E026E010E016E4CEC35
:102FE00016F01200076E60001FF0BBFFBA90BA82A5
:102FF0000000BA92000E026E030E016E4CEC16F049
:1030000012001E0E206E000E186E000E196E1DC0EE
:103010001AF0200E1B6E71EC16F01200600E3901D2
:10302000D96F000EDB6F000EDD6F040EDF6F000E38
:10303000DE6F12003D01F7A320EF18F023EF18F028
:10304000010E24EF18F0000E12003D01DFA32BEF5C
:1030500018F02EEF18F0010E2FEF18F0000E1200EE
:103060000EEC18F001EC13F027EC15F06CEC15F0F9
:1030700095EC16F0120001C092F002C093F003C06C
:1030800094F0120001C095F002C096F003C097F0D2
:10309000120001C098F002C099F003C09AF012002B
:1030A000016E600007F0EAFD1200016E600007F09B
:1030B000D2FD12003D01E85112003D01D051120035
:0930C0003D01DA89120004035AF3
:020000040001F9
:04FFFC00B8EF16F054
:020000040030CA
:0A0000008FFFF7FF9FFFFFFFFFFFD8
:00000001FF
