:04000000FEEFFFF020
:10200000007E2A00000000EC3000D830006C300068
:10201000C02E0000000000000000000000000000D2
:1020200000000000000000000000000000000000B0
:1020300000000000000000000000000000BE2F00B3
:102040009C2F007A2F00000000082B00000000F2F7
:102050003000E23000823000EA2E00000000000074
:102060000000000000000000000000000000000070
:102070000000000000000000000000000000000060
:102080000000000000582F00362F00142F00000021
:1020900000436F7272656374210057726F6E67211F
:1020A0000025752020200025750D0A0025640A0DE5
:1020B000006675636B00434D00000E50D96EDA6AFE
:1020C0006F007FFFF6FF200EF76E000EF86E08001F
:1020D000F550250AD8A46FEF10F071EF10F0BAEFA9
:1020E00011F00E50D96EDA6ADF2A000E00019C6FE3
:1020F000000E9B6F9BC0A3F09D699E690E50D96E28
:10210000DA6ADF50126E60004BF0F6FF200EF76EB9
:10211000000EF86E0800F550640AD8B492EF10F083
:1021200094EF10F0A5EF10F060004BF0F6FF200EDA
:10213000F76E000EF86E0800F550690AD8A4A3EFF8
:1021400010F0A5EF10F02FEF11F00F50D96EDA6AF2
:10215000020EDF26DF5CD96EDA6A6F0078FF13F0BB
:102160006F0078FF14F00E50D96EDA6A1228DF6E15
:10217000200E176E14BEBFEF10F0C2EF10F0010E6C
:10218000C3EF10F0000E116E17061750600FD96ED6
:10219000DA6A13C001F014C002F0000E046E0A0ED9
:1021A000036E43EC14F001C007F002C008F02FECFE
:1021B00017F00750300FDF6E13C001F014C002F0AB
:1021C000000E046E0A0E036E81EC13F001C013F0D2
:1021D00002C014F013501410D8B4F1EF10F0F3EF64
:1021E00010F0FBEF10F01750D8A4F9EF10F0FBEF50
:1021F00010F0C4EF10F01750D8B401EF11F003EF56
:1022000011F024EF11F01150D8B409EF11F00BEFD9
:1022100011F024EF11F017061750600FD96EDA6A2B
:102220002D0EDF6E24EF11F01750600FD96EDA6AB1
:10223000DF50106E1050036E046A0CC005F00DC024
:1022400006F0E3EC13F0172A200E1718D8A42BEF92
:1022500011F02DEF11F014EF11F0D0EF11F060003C
:102260004BF0F6FF200EF76E000EF86E0800F550EA
:10227000750AD8A43EEF11F040EF11F0B4EF11F061
:102280000F50D96EDA6A020EDF26DF5CD96EDA6A89
:102290006F0078FF13F06F0078FF14F00E50D96EC6
:1022A000DA6A1228DF6EA5EF11F0200E176E1706FE
:1022B0001750600FD96EDA6A13C001F014C002F033
:1022C000000E046E0A0E036E32EC16F00150300F51
:1022D000DF6E13C001F014C002F0000E046E0A0E8F
:1022E000036EBFEC15F001C013F002C014F01350E0
:1022F0001410D8B47EEF11F080EF11F09AEF11F0C6
:102300001750D8A486EF11F088EF11F057EF11F0B5
:102310009AEF11F01750600FD96EDA6ADF50106E25
:102320001050036E046A0CC005F00DC006F0E3EC1B
:1023300013F0172A200E1718D8A4A1EF11F0A3EF5D
:1023400011F08AEF11F0D0EF11F060004BF0F6FFC2
:10235000200EF76E000EF86E0800F550750AD8B41E
:1023600055EF11F0B4EF11F00E50D96EDA6ADF2A92
:10237000D0EF11F00E50D96EDA6A6F007FFFF6FFD2
:10238000200EF76E000EF86E0800F550036E046A1A
:102390000CC005F00DC006F0E3EC13F0B4EF11F043
:1023A0001200590E526E000E4F6E000E516E000E4E
:1023B000506E000E4D6E000E536E19EF12F00D0EA2
:1023C000F66E200EF76E000EF86E02D8F5EF11F0E3
:1023D0000500FA6E0900F550FD6E0900F550FE6E1D
:1023E0000900F550FF6EFA5012000009D8B4FBEF57
:1023F00011F0FDEF11F019EF12F05350440FD96EA8
:10240000DA6A070EF66E200EF76E000EF86E02D82E
:1024100017EF12F00500FA6E0900F550FD6E090085
:10242000F550FE6E0900F550FF6EFA501200DF6E97
:10243000532A080E53641FEF12F021EF12F0DFEF62
:1024400011F0000E546E5450440FD96EDA6A525097
:10245000DE18D8A42EEF12F030EF12F082EF12F057
:1024600054C02EF0010E2E262E50440FD96EDA6A7B
:102470005250DE18D8A43FEF12F041EF12F082EF75
:1024800012F054C02EF0020E2E262E50440FD96E9C
:10249000DA6ADF504E6E54C02EF0030E2E262E50F8
:1024A000440FD96EDA6ADF504F6E4F502E6E4E5089
:1024B000506E2EC051F0300E1D6EA10E1E6E50C01B
:1024C0001FF051C020F014EC17F0000E0A6E300E11
:1024D0000B6E0C6A020EF4EC16F0050E0A6EB60EC8
:1024E0000B6E0B50D8A4200E0C6E020EF4EC16F0FE
:1024F000A70E1D6E50C01EF051C01FF01DEC18F04D
:102500008BEF12F0542A050E546489EF12F08BEF12
:1025100012F023EF12F01200000ECE6EC668000E0D
:102520003A01806F000EBE6E4CEC18F084EC15F092
:102530003D01DB8FDA89DA8B7CEC18F049EC17F07F
:10254000000E0A6EB10E0B6E0B50D8A4200E0C6E4E
:10255000010EF4EC16F0030E026EE80E016E64EC50
:1025600016F0060E026E030E036E000E046E000ED1
:10257000056E000E066E5A0E9BEC14F0000E5B6E9C
:10258000050E5A6ECEA2C7EF12F0C9EF12F0C2EFDD
:1025900012F0000E596E000E586EAC0E1D6E5AC031
:1025A0001EF05BC01FF01DEC18F00B0E026EB80E93
:1025B000016E64EC16F0000E576E010E566E06EFBB
:1025C00013F0AC0E1D6E58C01EF059C01FF01DEC6C
:1025D00018F0070E026ED00E016E64EC16F0040EB9
:1025E000026E040E036E000E046E5A0EEFEC14F031
:1025F000D1EC11F0070E026ED00E016E64EC16F0F5
:102600000F0E5826000E5922564A572A56505A5C29
:102610005B50800A556E5750800A5558D8B013EF5A
:1026200013F015EF13F0E1EF12F0C2EF12F0FEEF2E
:10263000FFF0000EBA6E000EBB6E000EBC6E000EF8
:10264000BD6E000EBE6EC268C368BF0EC46EFE0EC5
:10265000C56E070EC66E3A01406950693F0E606F45
:10266000FC0E706F050E806F000E416F000E516FF3
:10267000000E616F000E716F000E816F000E426FD1
:10268000000E526F000E626F000E726F000E826FAE
:102690004369536963697369070E836F44695469B9
:1026A000646974690F0E846F000E5A6F000E5B6FC1
:1026B000000E6A6F000E6B6F000E7A6F000E7B6F5C
:1026C000190EE86F170EE56F160E186F130E166FC2
:1026D000000E456F000E466F000E476F000E556FDF
:1026E000000E566F000E576F000E656F000E666F7E
:1026F000000E676F000E856F000E866F000E876FED
:102700001200000E066E04BE8AEF13F088EF13F07D
:1027100090EF13F0036C041ED8B0042A010E066E6D
:1027200002BE97EF13F095EF13F09DEF13F0016CDD
:10273000021ED8B0022A010E061A000E086E000E04
:10274000076E03500410D8B4A8EF13F0AAEF13F0EB
:10275000D2EF13F0010E056EB2EF13F0D8900336EE
:102760000436052A04AEB7EF13F0B9EF13F0AEEF5D
:1027700013F0D890073608360350015C0450025815
:10278000D8A0C5EF13F0C7EF13F0CCEF13F0035050
:10279000015E0450025A0780D89004320332052E9D
:1027A000B9EF13F00650D8B4D8EF13F0DAEF13F006
:1027B000DEEF13F0076C081ED8B0082A07C001F03E
:1027C00008C002F0120005500610D8B4EAEF13F06A
:1027D000ECEF13F0F5EF13F005500610D8A4F3EF6B
:1027E00013F0F5EF13F0FAEF13F00350F0EC17F0DD
:1027F00042EF14F020EE0AF00550D9260650DA22F6
:10280000DE50DE10D8B407EF14F009EF14F024EF17
:1028100014F020EE0AF00550D9260650DA2210EE08
:1028200003F00550E1260650E222DE50E65CE65059
:10283000800A0B6EDE50800A0B58D8B022EF14F0DD
:1028400024EF14F042EF14F020EE03F00550D926E7
:102850000650DA22DF50076E600017F0D9FF6000E3
:102860001BF0DAFFDF500724D96EDA6A60000FF040
:10287000DFFF20EE03F00550D9260650DA22DE2ACB
:10288000000EDD221200000E066E02BE4CEF14F0A8
:102890004AEF14F052EF14F0016C021ED8B0022A75
:1028A000010E066E04BE59EF14F057EF14F05DEF01
:1028B00014F0036C041ED8B0042A03500410D8B4DA
:1028C00064EF14F066EF14F08AEF14F0010E056E59
:1028D0006EEF14F0D89003360436052A04AE73EF79
:1028E00014F075EF14F06AEF14F00350015C04501B
:1028F0000258D8A07EEF14F080EF14F084EF14F0AB
:102900000350015E0450025AD89004320332052E5F
:1029100075EF14F00650D8B490EF14F092EF14F065
:1029200096EF14F0016C021ED8B0022A01C001F02B
:1029300002C002F012000D6E000E0E6E0DC007F008
:1029400002C008F003C009F004C00AF005C00BF093
:1029500006C00CF0E6EF14F0100EF66E200EF76EC7
:10296000000EF86E02D8C2EF14F00500FA6E0900EE
:10297000F550FD6E0900F550FE6E0900F550FF6E32
:10298000FA5012000009D8B4C8EF14F0CAEF14F0DE
:10299000E6EF14F00A0EF66E200EF76E000EF86EDB
:1029A00002D8E5EF14F00500FA6E0900F550FD6E4F
:1029B0000900F550FE6E0900F550FF6EFA500E50FA
:1029C000070FD96EDA6ADF5012000E2A050E0E6468
:1029D000ECEF14F0EEEF14F0ACEF14F012000B6E0D
:1029E000000E0C6E0BC005F002C006F003C007F02D
:1029F00004C008F036EF15F0100EF66E200EF76EDC
:102A0000000EF86E02D812EF15F00500FA6E0900FC
:102A1000F550FD6E0900F550FE6E0900F550FF6E91
:102A2000FA5012000009D8B418EF15F01AEF15F09B
:102A300036EF15F00A0EF66E200EF76E000EF86EE9
:102A400002D835EF15F00500FA6E0900F550FD6E5D
:102A50000900F550FE6E0900F550FF6EFA500C505B
:102A6000050FD96EDA6ADF5012000C2A030E0C64CF
:102A70003CEF15F03EEF15F0FCEF14F01200000EE5
:102A80003D01E86F000EE96F000EEA6F000EEB6F7C
:102A9000000EEC6F000EED6F000EEE6F000EEF6F8C
:102AA000000EF06F000EF16FB00EF26F800EF36F3C
:102AB000080EF46F190EF56F000EF66F2E0EF76FFD
:102AC000000EF86F800EF96F000EFA6F000E016EA7
:102AD000000E026E000E036EDFEC17F0000E016EAA
:102AE000000E026E000E036ECEEC17F0000E016EAB
:102AF000000E026E000E036EBDEC17F0000E00011A
:102B0000A06F000E9F6F1200000E3D01D06F000EEF
:102B1000D26F000ED46F000ED66F000ED86FB00EBD
:102B2000DA6F800EDB6F000EDC6F380EDD6F010E8A
:102B3000DE6F2E0EDF6F000EE06F800EE16F000E75
:102B4000E26F000E016E000E026E000E036EACEC22
:102B500017F0000E016E000E026E000E036E9BEC6D
:102B600017F0000E016E000E026E000E036E8AEC6E
:102B700017F0000E0001A26F000EA16F1200000EF0
:102B8000066E000E056E03500410D8B4CAEF15F09F
:102B9000CCEF15F0F4EF15F0010E076ED4EF15F041
:102BA000D89003360436072A04AED9EF15F0DBEFD0
:102BB00015F0D0EF15F0D890053606360350015CBD
:102BC00004500258D8A0E7EF15F0E9EF15F0EEEF4A
:102BD00015F00350015E0450025A0580D89004326B
:102BE0000332072EDBEF15F005C001F006C002F03E
:102BF000120014EF16F0600023F0F6FF600027F0DB
:102C0000F7FF000EF86E1F0EF76403D00800F550B2
:102C100007D06F00DBFFE9FF6F00DFFFEAFFEF5037
:102C2000FFEC17F0084A092A600023F0F6FF600065
:102C300027F0F7FF000EF86E1F0EF76403D00800B0
:102C4000F55007D06F00DBFFE9FF6F00DFFFEAFF01
:102C5000EF500009D8A42FEF16F031EF16F0FBEF7C
:102C600015F0120003500410D8B439EF16F03BEF02
:102C700016F05FEF16F0010E056E43EF16F0D890D8
:102C800003360436052A04AE48EF16F04AEF16F074
:102C90003FEF16F00350015C04500258D8A053EFE8
:102CA00016F055EF16F059EF16F00350015E045080
:102CB000025AD89004320332052E4AEF16F001C0B2
:102CC00001F002C002F01200000E046E000E036E4E
:102CD0007DEF16F0000E066E000E056E054A062A00
:102CE000065009E1A50E055CD8A079EF16F07BEF40
:102CF00016F06EEF16F0034A042A0150035C0250EE
:102D00000458D8A086EF16F088EF16F06AEF16F098
:102D10001200FE0EF66E300EF76E000EF86E090011
:102D20006F00D4FFA5F009006F00D4FFA6F0000EDD
:102D3000F66E310EF76E000EF86E09006F00D4FFCC
:102D40005FF000EE60F0450EEE6AE806FDE15E6AB7
:102D50005D6A5C6A00018CEF12F01AC01CF0BBEFD8
:102D600016F018C00CF019C00DF01C0E0E6E1BC032
:102D70000FF05DEC10F0600073F0F6FF200EF76EC0
:102D8000000EF86E0800F5500009D8A4CAEF16F03E
:102D9000CCEF16F0B1EF16F0000E196E000E186EA3
:102DA0001200D29A3901A191D280000E016E000E5C
:102DB000026E000E036E65EC18F03901A591D28207
:102DC000000E016E000E026E000E036E5EEC18F037
:102DD0003901A79BD284000E016E000E026E000E18
:102DE000036E57EC18F012000D6E020E0D60FBEF33
:102DF00016F0FDEF16F006EF17F00A500F0B8009E2
:102E00000E6E0E500EEC18F00DEF17F00A500F0B6F
:102E1000C0090E6E0E500EEC18F00BC008F00CC07E
:102E200009F0F9EC15F012001F0E216E1DC022F002
:102E3000000E266E000E256E000E2D6E000E2C6EFE
:102E4000220E186E196A1EC01AF0210E1B6EADEC10
:102E500016F01D502524D96EDA6ADF6A120008BE0A
:102E600034EF17F036EF17F03CEF17F007C007F01C
:102E700008C008F048EF17F007C009F008C00AF0D2
:102E8000091E0A1E094A0A2A09C007F00AC008F0EA
:102E90001200000E026E0F0E016E64EC16F0000EB2
:102EA000C36E000EC26E010E0EEC18F0380E0EEC62
:102EB00018F00C0E0EEC18F0060E0EEC18F01200C6
:102EC000000E016E3D01F7AB68EF17F06AEF17F0E7
:102ED00073EF17F0F2AB6FEF17F071EF17F073EFBE
:102EE00017F0010E016E01501200000E016E3D013F
:102EF000DFAB7DEF17F07FEF17F088EF17F0DAAB5D
:102F000084EF17F086EF17F088EF17F0010E016ECF
:102F100001501200015002100310D8B492EF17F0C4
:102F200094EF17F09AEF17F001C089F002C08AF011
:102F300003C08BF01200015002100310D8B4A3EFAD
:102F400017F0A5EF17F0ABEF17F001C08CF002C03F
:102F50008DF003C08EF01200015002100310D8B49F
:102F6000B4EF17F0B6EF17F0BCEF17F001C08FF019
:102F700002C090F003C091F0120001500210031043
:102F8000D8B4C5EF17F0C7EF17F0CDEF17F001C0B9
:102F900080F002C081F003C082F0120001500210E4
:102FA0000310D8B4D6EF17F0D8EF17F0DEEF17F014
:102FB00001C083F002C084F003C085F0120001500C
:102FC00002100310D8B4E7EF17F0E9EF17F0EFEFB6
:102FD00017F001C086F002C087F003C088F012002D
:102FE000026E75EC17F00009D8B4F9EF17F0FBEF9B
:102FF00017F0F1EF17F0025071EC18F01200076EA5
:1030000060001FF0BBFFBA80BA820000BA92000EC7
:10301000026E010E016E64EC16F01200076E600085
:103020001FF0BBFFBA90BA820000BA92000E026E87
:10303000030E016E64EC16F012001E0E206E000EE0
:10304000186E000E196E1DC01AF0200E1B6EADEC2E
:1030500016F01200600E3901D96F000EDB6F000E02
:10306000DD6F040EDF6F000EDE6F12003D01F7A36F
:103070003CEF18F03FEF18F0010E40EF18F0000E93
:1030800012003D01DFA347EF18F04AEF18F0010EE0
:103090004BEF18F0000E12002AEC18F019EC13F0A8
:1030A0003FEC15F084EC15F0D1EC16F0120001C0E5
:1030B00092F002C093F003C094F0120001C095F0AA
:1030C00002C096F003C097F0120001C098F002C051
:1030D00099F003C09AF01200016E600007F0EAFD5B
:1030E0001200016E600007F0D2FD12003D01E851B0
:1030F00012003D01D05112003D01DA891200040393
:013100005A74
:020000040001F9
:04FFFC0089EF16F083
:020000040030CA
:0A0000008FFFF7FF9FFFFFFFFFFFD8
:00000001FF
