:04000000FEEFFFF020
:1020000000062400000000000000D62600000000AA
:10201000A2250000000000000000000000000000F9
:1020200000000000000000000000000000000000B0
:10203000000000000000000000000000001026006A
:10204000EE2500CC250000000044697374616E63C6
:10205000653A20257520434D0D0A0068656C6C6F4C
:102060002E2E0D0A00436F72726563742100577241
:0F2070006F6E672100257520202000434D000072
:102080004B50D96EDA6A6F007FFFF6FF200EF76EB5
:10209000000EF86E0800F550250AD8A452EF10F093
:1020A00054EF10F0F0EF10F04B50D96EDA6ADF2ADF
:1020B000000E346E000E336E33C039F0356836686A
:1020C0004B50D96EDA6ADF50526E60004BF1F6FF6A
:1020D000200EF76E000EF86E0800F550750AD8A4B1
:1020E00074EF10F076EF10F0EAEF10F04C50D96E6C
:1020F000DA6A020EDF26DF5CD96EDA6A6F0078FFDB
:102100004EF06F0078FF4FF04B50D96EDA6A5228CC
:10211000DF6EDBEF10F0200E536E53065350010FAD
:10212000D96EDA6A4EC03EF04FC03FF0000E416EED
:102130000A0E406E3DEC12F03E50300FDF6E4EC086
:102140003EF04FC03FF0000E416E0A0E406EC9ECEB
:1021500011F03EC04EF03FC04FF04E504F10D8B47B
:10216000B4EF10F0B6EF10F0D0EF10F05350D8A449
:10217000BCEF10F0BEEF10F08DEF10F0D0EF10F0CC
:102180005350010FD96EDA6ADF504D6E4D50406EDC
:10219000416A49C042F04AC043F069EC11F0532A49
:1021A000200E5318D8A4D7EF10F0D9EF10F0C0EFDD
:1021B00010F006EF11F060004BF1F6FF200EF76E05
:1021C000000EF86E0800F550750AD8B48BEF10F0C9
:1021D000EAEF10F04B50D96EDA6ADF2A06EF11F001
:1021E0004B50D96EDA6A6F007FFFF6FF200EF76E54
:1021F000000EF86E0800F550406E416A49C042F08A
:102200004AC043F069EC11F0EAEF10F01200000E42
:10221000BA6E000EBB6E000EBC6E000EBD6E000EE0
:10222000BE6EC268C368C468FD0EC56E070EC66E7A
:102230003A01406950696069FC0E706F070E806F4B
:10224000000E416F000E516F000E616F000E716F36
:10225000000E816F000E426F000E526F000E626F13
:10226000000E726F000E826F436953696369736970
:10227000070E836F44695469646974690F0E846F33
:10228000000E5A6F000E5B6F000E6A6F000E6B6FD0
:10229000000E7A6F000E7B6F180EE86F160E196F26
:1022A000000E456F000E466F000E476F000E556F13
:1022B000000E566F000E576F000E656F000E666FB2
:1022C000000E676F000E856F000E866F000E876F21
:1022D000120042504310D8B470EF11F072EF11F0B9
:1022E0007BEF11F042504310D8A479EF11F07BEF4F
:1022F00011F080EF11F0405019EC13F0C8EF11F01D
:1023000020EE0AF04250D9264350DA22DE50DE1089
:10231000D8B48DEF11F08FEF11F0AAEF11F020EE8D
:102320000AF04250D9264350DA2210EE03F0425010
:10233000E1264350E222DE50E65CE650800A486E19
:10234000DE50800A4858D8B0A8EF11F0AAEF11F07B
:10235000C8EF11F020EE03F04250D9264350DA22A4
:10236000DF50446E60000BF1D9FF60000FF1DAFF1F
:10237000DF504424D96EDA6A600003F1DFFF20EEFB
:1023800003F04250D9264350DA22DE2A000EDD2225
:102390001200000E436E000E426E40504110D8B441
:1023A000D4EF11F0D6EF11F0FEEF11F0010E446EF4
:1023B000DEEF11F0D89040364136442A41AEE3EFCB
:1023C00011F0E5EF11F0DAEF11F0D8904236433614
:1023D00040503E5C41503F58D8A0F1EF11F0F3EF70
:1023E00011F0F8EF11F040503E5E41503F5A4280EC
:1023F000D89041324032442EE5EF11F042C03EF019
:1024000043C03FF01200000E3D01D06F000ED26FAE
:10241000000ED46F000ED66F000ED86FB00EDA6FBC
:10242000800EDB6F000EDC6F100EDD6F000EDE6FB6
:102430002E0EDF6F000EE06F800EE16F000EE26F78
:10244000000E3E6E000E3F6E000E406E08EC13F064
:10245000000E3E6E000E3F6E000E406EF7EC12F066
:10246000000E3E6E000E3F6E000E406EE6EC12F067
:10247000000E386E000E376E120040504110D8B476
:1024800044EF12F046EF12F06AEF12F0010E426EC6
:102490004EEF12F0D89040364136422A41AE53EF0B
:1024A00012F055EF12F04AEF12F040503E5C4150EE
:1024B0003F58D8A05EEF12F060EF12F064EF12F018
:1024C00040503E5E41503F5AD89041324032422EF9
:1024D00055EF12F03EC03EF03FC03FF0120056C034
:1024E00058F07DEF12F054C049F055C04AF0580E34
:1024F0004B6E57C04CF040EC10F0600063F1F6FFFB
:10250000200EF76E000EF86E0800F5500009D8A4F2
:102510008CEF12F08EEF12F073EF12F0000E556E8A
:10252000000E546E1200D29A3901A191D280000E91
:102530003E6E000E3F6E000E406E64EC13F03901EB
:10254000A591D282000E3E6E000E3F6E000E406ED0
:102550005DEC13F03901A79BD284000E3E6E000E95
:102560003F6E000E406E56EC13F01200E00EF66E59
:10257000260EF76E000EF86E09006F00D4FF5DF0B6
:1025800009006F00D4FF5EF009006F00D4FF5FF018
:1025900000EE01F03D0EEE6AE806FDE1000135EFC8
:1025A00013F0000E3E6E3D01DFABD9EF12F0DBEF12
:1025B00012F0E4EF12F0DAABE0EF12F0E2EF12F01B
:1025C000E4EF12F0010E3E6E3E5012003E503F10FE
:1025D0004010D8B4EEEF12F0F0EF12F0F6EF12F078
:1025E0003EC021F03FC022F040C023F012003E5018
:1025F0003F104010D8B4FFEF12F001EF13F007EFD7
:1026000013F03EC024F03FC025F040C026F0120079
:102610003E503F104010D8B410EF13F012EF13F0FB
:1026200018EF13F03EC027F03FC028F040C029F05B
:1026300012003F6ED1EC12F00009D8B422EF13F073
:1026400024EF13F01AEF13F03F506BEC13F012006D
:102650005A0E5C6E000E546E000E556E59C056F048
:102660005C0E576E6FEC12F012004DEC13F003ECA1
:1026700012F05B0E596E28EC13F039EF13F0FEEFF9
:10268000FFF0600E3901D96F000EDB6F000EDD6FB9
:10269000030EDF6F000EDE6F120041EC13F007EC4B
:1026A00011F003EC12F093EC12F012003EC02AF08D
:1026B0003FC02BF040C02CF012003EC02DF03FC0B8
:1026C0002EF040C02FF012003EC030F03FC031F07D
:1026D00040C032F012003E6E6000FBF0D2FD1200EE
:0326E00004035A96
:020000040001F9
:04FFFC00B6EF12F05A
:020000040030CA
:0A0000008FFFF7FF9FFFFFFFFFFFD8
:00000001FF
