:04000000FEEFFFF020
:1020000000922400000000DE28000000008C280060
:1020100000000000000000000000000000000000C0
:1020200000000000000000000000000000000000B0
:1020300000000000000000000000000000F8270081
:10204000D62700B4270000000050726F6772616DE0
:102050006D656400436F7272656374210057726F1F
:102060006E67210020434D00257500000A50D96E8F
:10207000DA6A6F007FFFF6FF200EF76E000EF86E33
:102080000800F550250AD8A448EF10F04AEF10F0E8
:10209000E4EF10F00A50D96EDA6ADF2A000E466EBD
:1020A000000E456E45C04BF0476848680A50D96E2F
:1020B000DA6ADF50116E600047F0F6FF200EF76E0F
:1020C000000EF86E0800F550750AD8A46AEF10F0FB
:1020D0006CEF10F0DEEF10F00B50D96EDA6A020EE2
:1020E000DF26DF5CD96EDA6A6F0078FF0DF06F00D3
:1020F00078FF0EF00A50D96EDA6A1128DF6ECFEF42
:1021000010F0200E126E12061250600FD96EDA6AAD
:102110000DC001F00EC002F0000E046E0A0E036E38
:10212000BCEC12F00150300FDF6E0DC001F00EC09C
:1021300002F0000E046E0A0E036E0FEC12F001C0E6
:102140000DF002C00EF00D500E10D8B4AAEF10F032
:10215000ACEF10F0C4EF10F01250D8A4B2EF10F0B2
:10216000B4EF10F083EF10F0C4EF10F01250600FD6
:10217000D96EDA6ADF500C6E0C50016E026A09C02B
:1021800003F0B9EC11F0122A200E1218D8A4CBEFEC
:1021900010F0CDEF10F0B6EF10F0F8EF10F0600097
:1021A00047F0F6FF200EF76E000EF86E0800F550AF
:1021B000750AD8B481EF10F0DEEF10F00A50D96E36
:1021C000DA6ADF2AF8EF10F00A50D96EDA6A6F0087
:1021D0007FFFF6FF200EF76E000EF86E0800F55038
:1021E000016E026A09C003F0B9EC11F0DEEF10F0E5
:1021F000120051EC14F049EC12F0C3EC13F0000E95
:102200000A6E490E0B6E0B50D8A4200E0C6E010EF8
:1022100089EC13F00D0EF66E200EF76E000EF86EC0
:1022200002D820EF11F00500FA6E0900F550FD6E9E
:102230000900F550FE6E0900F550FF6EFA501200CD
:102240000009D8B426EF11F028EF11F056EF11F085
:10225000070EF66E200EF76E000EF86E02D83EEFF7
:1022600011F00500FA6E0900F550FD6E0900F550F9
:10227000FE6E0900F550FF6EFA501200326E280E05
:10228000176E680E186E32C019F01A6AA9EC13F0B6
:10229000280E016E640E026EEEEC12F0040E0A6E51
:1022A000280E0B6E0C6A020E89EC13F056EF11F03B
:1022B000FEEFFFF0000EBA6E000EBB6E000EBC6E9D
:1022C000000EBD6E000EBE6EC268C368C468C568ED
:1022D000070EC66E3A01406950696069FE0E706F64
:1022E000070E806F000E416F000E516F000E616F80
:1022F000000E716F000E816F000E426F000E526F64
:10230000000E626F000E726F000E826F4369536998
:1023100063697369070E836F4469546964697469FA
:102320000F0E846F000E5A6F000E5B6F000E6A6F07
:10233000000E6B6F000E7A6F000E7B6F180EE86F49
:10234000000E456F000E466F000E476F000E556F72
:10235000000E566F000E576F000E656F000E666F11
:10236000000E676F000E856F000E866F000E876F80
:1023700012000350D8B4BFEF11F0C1EF11F0C9EF54
:1023800011F00350D8A4C7EF11F0C9EF11F0CEEF50
:1023900011F0015072EC14F00EEF12F00350D96EF0
:1023A000DA6A0A0ED926DE50DE10D8B4DAEF11F060
:1023B000DCEF11F0F5EF11F00350D96EDA6A0A0E76
:1023C000D9260350E16EE26A030EE126DE50E65C98
:1023D000E650800A086EDE50800A0858D8B0F3EF45
:1023E00011F0F5EF11F00EEF12F00350D96EDA6A2A
:1023F000030ED926DF50046E0350D96EDA6ADF501F
:102400000424D96EDA6A600007F0DFFF0350D96E4A
:10241000DA6A030ED926DE2A000EDD221200000E33
:10242000066E000E056E03500410D8B41AEF12F0B9
:102430001CEF12F044EF12F0010E076E24EF12F0C1
:10244000D89003360436072A04AE29EF12F02BEF9A
:1024500012F020EF12F0D890053606360350015CDA
:1024600004500258D8A037EF12F039EF12F03EEFC7
:1024700012F00350015E0450025A0580D8900432D5
:102480000332072E2BEF12F005C001F006C002F058
:102490001200000E3D01D06F000ED26F000ED46FFF
:1024A000000ED66F000ED86FB00EDA6F800EDB6FA5
:1024B000000EDC6F010EDD6F000EDE6F2E0EDF6F83
:1024C000000EE06F800EE16F000EE26F000E016EF5
:1024D000000E026E000E036EFCEC13F0000E016E97
:1024E000000E026E000E036EEBEC13F0000E016E98
:1024F000000E026E000E036EDAEC13F0000E4A6E50
:10250000000E496E12009EEF12F0600023F0F6FFFD
:10251000600027F0F7FF000EF86E1F0EF76403D07F
:102520000800F55007D06F00DBFFE9FF6F00DFFF09
:10253000EAFFEF501CEC14F0084A092A600023F06F
:10254000F6FF600027F0F7FF000EF86E1F0EF7642D
:1025500003D00800F55007D06F00DBFFE9FF6F00E4
:10256000DFFFEAFFEF500009D8A4B9EF12F0BBEF8C
:1025700012F085EF12F0120003500410D8B4C3EF2C
:1025800012F0C5EF12F0E9EF12F0010E056ECDEF7B
:1025900012F0D89003360436052A04AED2EF12F0BA
:1025A000D4EF12F0C9EF12F00350015C045002584E
:1025B000D8A0DDEF12F0DFEF12F0E3EF12F00350DE
:1025C000015E0450025AD89004320332052ED4EF33
:1025D00012F001C001F002C002F01200000E046E01
:1025E000000E036EF6EF12F0034A042A0150032492
:1025F000D96EDA6ADF50D8A400EF13F002EF13F0BF
:10260000F4EF12F007EF13F0034A042A022A6000E5
:102610000BF0F6FF200EF76E000EF86E015003244B
:10262000D96EDA6A08006F00D7FFDFFFDF50D8A449
:102630001CEF13F01EEF13F004EF13F01200000E66
:10264000046E000E036E38EF13F0000E066E000EDF
:10265000056E054A062A065009E1A50E055CD8A0BC
:1026600034EF13F036EF13F029EF13F0034A042A86
:102670000150035C02500458D8A041EF13F043EF1F
:1026800013F025EF13F01200D29A3901A191D280F4
:10269000000E016E000E026E000E036E68EC14F068
:1026A0003901A591D282000E016E000E026E000E5D
:1026B000036E61EC14F03901A79BD284000E016E09
:1026C000000E026E000E036E5AEC14F0120014C0DD
:1026D00016F073EF13F013C009F0160E0A6E15C052
:1026E0000BF036EC10F060005BF0F6FF200EF76E9A
:1026F000000EF86E0800F5500009D8A482EF13F020
:1027000084EF13F06BEF13F0000E146E000E136ED7
:1027100012000D6E020E0D6090EF13F092EF13F0A9
:102720009BEF13F00A500F0B80090E6E0E502BEC2E
:1027300014F0A2EF13F00A500F0BC0090E6E0E50EA
:102740002BEC14F00BC008F00CC009F083EC12F075
:102750001200190E1B6E17C01CF0000E206E000E2A
:102760001F6E000E276E000E266E1C0E136E18C014
:1027700014F01B0E156E67EC13F017501F24D96E62
:10278000DA6ADF6A1200000E026E0F0E016E1FEC95
:1027900013F0000EC36E000EC26E010E2BEC14F08F
:1027A000380E2BEC14F00C0E2BEC14F0060E2BEC68
:1027B00014F01200015002100310D8B4E2EF13F02D
:1027C000E4EF13F0EAEF13F001C033F002C034F08D
:1027D00003C035F01200015002100310D8B4F3EF1B
:1027E00013F0F5EF13F0FBEF13F001C036F002C069
:1027F00037F003C038F01200015002100310D8B4B3
:1028000004EF14F006EF14F00CEF14F001C039F0EF
:1028100002C03AF003C03BF0120000EE60F0200E60
:10282000EE6AE806FDE100EE33F0190EEE6AE80606
:10283000FDE10001F9EF10F0076E60001FF0BBFF33
:10284000BA80BA820000BA92000E026E010E016ECA
:102850001FEC13F01200076E60001FF0BBFFBA9070
:10286000BA820000BA92000E026E030E016E1FECD7
:1028700013F01200620E3901D96F000EDB6F000EEB
:10288000DD6F020EDF6F000EDE6F12003D01DFA371
:102890004CEF14F04FEF14F0010E50EF14F0000E57
:1028A00012003AEC14F05AEC11F049EC12F044EC3E
:1028B00013F0120001C03CF002C03DF003C03EF036
:1028C000120001C03FF002C040F003C041F012000E
:1028D00001C042F002C043F003C044F012003D01C9
:0628E000D05112001200AD
:020000040001F9
:04FFFC000DEF14F001
:020000040030CA
:0A0000008FFFF7FF9FFFFFFFFFFFD8
:00000001FF
