:04000000FEEFFFF020
:102000000000000E116E000E0C6E000E0E6E000E23
:102010000D6E000E0F6E000E106E0ABE14EF10F063
:1020200012EF10F022EF10F009C001F00AC002F028
:10203000FF0E046E03682BEC14F001C009F002C01F
:102040000AF0CC9E09C001F00AC002F0000E046E36
:102050000A0E036E89EC12F00150126E09C001F0F5
:102060000AC002F0000E046E0A0E036EEBEC12F0D2
:102070000150116E1250D8A440EF10F042EF10F052
:1020800046EF10F0C00E0F6EC2EF10F01204D8B47D
:102090004CEF10F04EEF10F056EF10F01228D8A4CD
:1020A00054EF10F056EF10F05AEF10F0F90E0F6EDB
:1020B000C2EF10F0020E1218D8A461EF10F063EF17
:1020C00010F067EF10F0A40E0F6EC2EF10F0030EC9
:1020D0001218D8A46EEF10F070EF10F074EF10F03B
:1020E000B00E0F6EC2EF10F0040E1218D8A47BEFE2
:1020F00010F07DEF10F081EF10F0990E0F6EC2EF2F
:1021000010F0050E1218D8A488EF10F08AEF10F026
:102110008EEF10F0920E0F6EC2EF10F0060E121836
:10212000D8A495EF10F097EF10F09BEF10F0820E0F
:102130000F6EC2EF10F0070E1218D8A4A2EF10F025
:10214000A4EF10F0A8EF10F0F80E0F6EC2EF10F031
:10215000080E1218D8A4AFEF10F0B1EF10F0B5EFE1
:1021600010F0800E0F6EC2EF10F0090E1218D8A4F6
:10217000BCEF10F0BEEF10F0C2EF10F0980E0F6E33
:10218000C2EF10F01150D8A4C8EF10F0CAEF10F051
:10219000CEEF10F0C00E106E4EEF11F01104D8A467
:1021A000D4EF10F0D6EF10F0DAEF10F0F90E106E59
:1021B0004EEF11F0020E1118D8A4E1EF10F0E3EF8A
:1021C00010F0E7EF10F0A40E106E4EEF11F0030EBA
:1021D0001118D8A4EEEF10F0F0EF10F0F4EF10F0BB
:1021E000B00E106E4EEF11F0040E1118D8A4FBEFD4
:1021F00010F0FDEF10F001EF11F0990E106E4EEFA0
:1022000011F0050E1118D8A408EF11F00AEF11F023
:102210000EEF11F0920E106E4EEF11F0060E111827
:10222000D8A415EF11F017EF11F01BEF11F0820E8B
:10223000106E4EEF11F0070E1118D8A422EF11F016
:1022400024EF11F028EF11F0F80E106E4EEF11F0A0
:10225000080E1118D8A42FEF11F031EF11F035EF5F
:1022600011F0800E106E4EEF11F0090E1118D8A467
:102270003CEF11F03EEF11F042EF11F0980E106EAE
:102280004EEF11F04EEF11F0CB84CAA64AEF11F0D9
:102290004CEF11F04EEF11F0010E0C6E0C50D8B453
:1022A00054EF11F056EF11F044EF11F0CC8C000E0A
:1022B0000E6E010E0D6ECB8A60003FF0CDFF030E57
:1022C0000B6E980EE82EFED70B2EFCD7CB9ACB8C3C
:1022D000600043F0CDFF030E0B6E980EE82EFED784
:1022E0000B2EFCD7CB9C0D4A0E2A0EBE81EF11F0AF
:1022F000E80E0D5C030E0E58D8A081EF11F083EFAD
:1023000011F05BEF11F0CD68000ECB6E12000A0EDB
:10231000066E000E036E020E046EEFEF11F0CB801E
:10232000CAA095EF11F097EF11F099EF11F0010E9F
:10233000066ECAA29EEF11F0A0EF11F0A2EF11F00D
:10234000040E066ECAA4A7EF11F0A9EF11F0ABEFCF
:1023500011F0070E066ECB90CB82CAA0B2EF11F03F
:10236000B4EF11F0B6EF11F0020E066ECAA2BBEF89
:1023700011F0BDEF11F0BFEF11F0050E066ECAA40B
:10238000C4EF11F0C6EF11F0C8EF11F0080E066EA1
:10239000CAA6CDEF11F0CFEF11F0D1EF11F0000E82
:1023A000066ECB92CB84CAA0D8EF11F0DAEF11F011
:1023B000DCEF11F0030E066ECAA2E1EF11F0E3EFBD
:1023C00011F0E5EF11F0060E066ECAA4EAEF11F067
:1023D000ECEF11F0EEEF11F0090E066ECB940A0E41
:1023E0000618D8B4F6EF11F0F8EF11F08FEF11F0F6
:1023F000030E026E080E016E770EE82EFED7012E38
:10240000FCD7022EFAD700000A0E0602F350066E21
:1024100006C005F00A0E066E70EF12F0CB80CAA05F
:1024200014EF12F016EF12F018EF12F0010E066E14
:10243000CAA21DEF12F01FEF12F021EF12F0040EEE
:10244000066ECAA426EF12F028EF12F02AEF12F05F
:10245000070E066ECB90CB82CAA031EF12F033EF9D
:1024600012F035EF12F0020E066ECAA23AEF12F029
:102470003CEF12F03EEF12F0050E066ECAA443EFD9
:1024800012F045EF12F047EF12F0080E066ECAA6E2
:102490004CEF12F04EEF12F050EF12F0000E066EFD
:1024A000CB92CB84CAA057EF12F059EF12F05BEF3A
:1024B00012F0030E066ECAA260EF12F062EF12F085
:1024C00064EF12F0060E066ECAA469EF12F06BEF0D
:1024D00012F06DEF12F0090E066ECB94000ECB6E6B
:1024E0000A0E0618D8B477EF12F079EF12F00EEF5B
:1024F00012F006500526030E026E080E016E770ECE
:10250000E82EFED7012EFCD7022EFAD70000055088
:102510001200000E066E04BE92EF12F090EF12F061
:1025200098EF12F0036C041ED8B0042A010E066E58
:1025300002BE9FEF12F09DEF12F0A5EF12F0016CBA
:10254000021ED8B0022A010E061A000E086E000EF6
:10255000076E03500410D8B4B0EF12F0B2EF12F0CF
:10256000DAEF12F0010E056EBAEF12F0D8900336D2
:102570000436052A04AEBFEF12F0C1EF12F0B6EF39
:1025800012F0D890073608360350015C0450025808
:10259000D8A0CDEF12F0CFEF12F0D4EF12F003502D
:1025A000015E0450025A0780D89004320332052E8F
:1025B000C1EF12F00650D8B4E0EF12F0E2EF12F0E3
:1025C000E6EF12F0076C081ED8B0082A07C001F029
:1025D00008C002F01200000E066E02BEF4EF12F008
:1025E000F2EF12F0FAEF12F0016C021ED8B0022ADC
:1025F000010E066E04BE01EF13F0FFEF12F005EFBF
:1026000013F0036C041ED8B0042A03500410D8B48D
:102610000CEF13F00EEF13F032EF13F0010E056E16
:1026200016EF13F0D89003360436052A04AE1BEFDC
:1026300013F01DEF13F012EF13F00350015C045080
:102640000258D8A026EF13F028EF13F02CEF13F068
:102650000350015E0450025AD89004320332052E12
:102660001DEF13F00650D8B438EF13F03AEF13F023
:102670003EEF13F0016C021ED8B0022A01C001F037
:1026800002C002F01200000E036E6CEF13F0CB8656
:10269000CAA04DEF13F04FEF13F051EF13F0010EFE
:1026A000036ECAA256EF13F058EF13F05AEF13F06F
:1026B000020E036ECAA45FEF13F061EF13F063EF35
:1026C00013F0030E036ECAA668EF13F06AEF13F05F
:1026D0006CEF13F0040E036E0350D8B472EF13F0D6
:1026E00074EF13F047EF13F0030E026E080E016E45
:1026F000770EE82EFED7012EFCD7022EFAD7000067
:1027000003501200C268000E3A01406F000EC36E03
:10271000000E506F000E706F000EC56E000EC46E7E
:10272000000E606FCD68CC68000E176E000E166E3E
:10273000000E156E000E146E000E136E87EC11F075
:10274000176ECB8ACC9E43EC13F0156E87EC11F01C
:10275000166ECC8ECB8CCC9C16C005F015C006F046
:102760001750C0EC13F00550146E1450096E0A6A2D
:1027700009BE0A0601EC10F094EF13F0FEEFFFF033
:10278000086E000E076E0604D8A4C9EF13F0CBEF55
:1027900013F0CEEF13F008500524076E020E061852
:1027A000D8A4D5EF13F0D7EF13F0DAEF13F00550FC
:1027B000085C076E030E0618D8A4E1EF13F0E3EFF0
:1027C00013F0E8EF13F0085005026F00CCFF07F09C
:1027D000040E0618D8A4EFEF13F0F1EF13F0F7EFA3
:1027E00013F005C001F00850FDEC13F0076E075020
:1027F000056E066A05BE06061200026E000E046E25
:102800000150D8B406EF14F008EF14F029EF14F0DB
:10281000010E036E0FEF14F0D8900136032A01AEBB
:1028200014EF14F016EF14F00CEF14F0D8900436F7
:102830000150025CD8A01FEF14F021EF14F024EF38
:1028400014F00150025E0480D8900132032E16EF7E
:1028500014F004501200015003026F00CCFF05F089
:102860006F00D0FF06F001500402F350062602501C
:102870000302F350062605C001F006C002F0120064
:06288000000182EF13F0DD
:020000040001F9
:04FFFC0040EF14F0CE
:020000040030CA
:0A000000F8FFFFFF9FFFFFFFFFFF67
:00000001FF
