:04000000FEEFFFF020
:102000000000000E116E000E0C6E000E0E6E000E23
:102010000D6E000E0F6E000E106E0ABE14EF10F063
:1020200012EF10F022EF10F009C001F00AC002F028
:10203000FF0E046E03683FEC14F001C009F002C00B
:102040000AF0CC9E09C001F00AC002F0000E046E36
:102050000A0E036EA0EC12F00150126E09C001F0DE
:102060000AC002F0000E046E0A0E036E02EC13F0BA
:102070000150116E1250D8A440EF10F042EF10F052
:1020800046EF10F0C00E0F6EC2EF10F01204D8B47D
:102090004CEF10F04EEF10F056EF10F01228D8A4CD
:1020A00054EF10F056EF10F05AEF10F0F90E0F6EDB
:1020B000C2EF10F0020E1218D8A461EF10F063EF17
:1020C00010F067EF10F0A40E0F6EC2EF10F0030EC9
:1020D0001218D8A46EEF10F070EF10F074EF10F03B
:1020E000B00E0F6EC2EF10F0040E1218D8A47BEFE2
:1020F00010F07DEF10F081EF10F0990E0F6EC2EF2F
:1021000010F0050E1218D8A488EF10F08AEF10F026
:102110008EEF10F0920E0F6EC2EF10F0060E121836
:10212000D8A495EF10F097EF10F09BEF10F0820E0F
:102130000F6EC2EF10F0070E1218D8A4A2EF10F025
:10214000A4EF10F0A8EF10F0F80E0F6EC2EF10F031
:10215000080E1218D8A4AFEF10F0B1EF10F0B5EFE1
:1021600010F0800E0F6EC2EF10F0090E1218D8A4F6
:10217000BCEF10F0BEEF10F0C2EF10F0980E0F6E33
:10218000C2EF10F01150D8A4C8EF10F0CAEF10F051
:10219000CEEF10F0C00E106E4EEF11F01104D8A467
:1021A000D4EF10F0D6EF10F0DAEF10F0F90E106E59
:1021B0004EEF11F0020E1118D8A4E1EF10F0E3EF8A
:1021C00010F0E7EF10F0A40E106E4EEF11F0030EBA
:1021D0001118D8A4EEEF10F0F0EF10F0F4EF10F0BB
:1021E000B00E106E4EEF11F0040E1118D8A4FBEFD4
:1021F00010F0FDEF10F001EF11F0990E106E4EEFA0
:1022000011F0050E1118D8A408EF11F00AEF11F023
:102210000EEF11F0920E106E4EEF11F0060E111827
:10222000D8A415EF11F017EF11F01BEF11F0820E8B
:10223000106E4EEF11F0070E1118D8A422EF11F016
:1022400024EF11F028EF11F0F80E106E4EEF11F0A0
:10225000080E1118D8A42FEF11F031EF11F035EF5F
:1022600011F0800E106E4EEF11F0090E1118D8A467
:102270003CEF11F03EEF11F042EF11F0980E106EAE
:102280004EEF11F04EEF11F0CB84CAA64AEF11F0D9
:102290004CEF11F04EEF11F0010E0C6E0C50D8B453
:1022A00054EF11F056EF11F044EF11F0CC8C000E0A
:1022B0000E6E010E0D6ECB8A60003FF0CDFF030E57
:1022C0000B6E980EE82EFED70B2EFCD7CB9ACB8C3C
:1022D000600043F0CDFF030E0B6E980EE82EFED784
:1022E0000B2EFCD7CB9C0D4A0E2A0EBE81EF11F0AF
:1022F000E80E0D5C030E0E58D8A081EF11F083EFAD
:1023000011F05BEF11F0CD68000ECB6E1200066E7F
:102310000A0E076E000E036E020E046EF0EF11F04F
:10232000CB80CAA096EF11F098EF11F09AEF11F060
:10233000010E076ECAA29FEF11F0A1EF11F0A3EFFB
:1023400011F0040E076ECAA4A8EF11F0AAEF11F065
:10235000ACEF11F0070E076ECB90CB82CAA0B3EFA3
:1023600011F0B5EF11F0B7EF11F0020E076ECAA22F
:10237000BCEF11F0BEEF11F0C0EF11F0050E076ECB
:10238000CAA4C5EF11F0C7EF11F0C9EF11F0080EA4
:10239000076ECAA6CEEF11F0D0EF11F0D2EF11F018
:1023A000000E076ECB92CB84CAA0D9EF11F0DBEF01
:1023B00011F0DDEF11F0030E076ECAA2E2EF11F08B
:1023C000E4EF11F0E6EF11F0060E076ECAA4EBEF92
:1023D00011F0EDEF11F0EFEF11F0090E076ECB9455
:1023E0000A0E0718D8B4F7EF11F0F9EF11F090EFDB
:1023F00011F0030E026E080E016E770EE82EFED766
:10240000012EFCD7022EFAD700000A0E0702F35065
:10241000076E07C005F00A0E076E71EF12F0CB8051
:10242000CAA015EF12F017EF12F019EF12F0010E1B
:10243000076ECAA21EEF12F020EF12F022EF12F088
:10244000040E076ECAA427EF12F029EF12F02BEF4B
:1024500012F0070E076ECB90CB82CAA032EF12F0BB
:1024600034EF12F036EF12F0020E076ECAA23BEF05
:1024700012F03DEF12F03FEF12F0050E076ECAA406
:1024800044EF12F046EF12F048EF12F0080E076E1C
:10249000CAA64DEF12F04FEF12F051EF12F0000EFE
:1024A000076ECB92CB84CAA058EF12F05AEF12F00D
:1024B0005CEF12F0030E076ECAA261EF12F063EF39
:1024C00012F065EF12F0060E076ECAA46AEF12F062
:1024D0006CEF12F06EEF12F0090E076ECB94000E47
:1024E000CB6E0A0E0718D8B478EF12F07AEF12F01C
:1024F0000FEF12F007500526030E026E080E016E54
:10250000770EE82EFED7012EFCD7022EFAD7000058
:102510000604D8A48EEF12F090EF12F092EF12F0B2
:10252000CB8ACC9E020E0618D8A499EF12F09BEF2E
:1025300012F09EEF12F0CC8ECB8CCC9C055012008A
:10254000000E066E04BEA9EF12F0A7EF12F0AFEF77
:1025500012F0036C041ED8B0042A010E066E02BEEF
:10256000B6EF12F0B4EF12F0BCEF12F0016C021EE5
:10257000D8B0022A010E061A000E086E000E076E71
:1025800003500410D8B4C7EF12F0C9EF12F0F1EF06
:1025900012F0010E056ED1EF12F0D890033604361A
:1025A000052A04AED6EF12F0D8EF12F0CDEF12F0FC
:1025B000D890073608360350015C04500258D8A062
:1025C000E4EF12F0E6EF12F0EBEF12F00350015ED1
:1025D0000450025A0780D89004320332052ED8EFF7
:1025E00012F00650D8B4F7EF12F0F9EF12F0FDEF49
:1025F00012F0076C081ED8B0082A07C001F008C006
:1026000002F01200000E066E02BE0BEF13F009EF8F
:1026100013F011EF13F0016C021ED8B0022A010E64
:10262000066E04BE18EF13F016EF13F01CEF13F054
:10263000036C041ED8B0042A03500410D8B423EF4E
:1026400013F025EF13F049EF13F0010E056E2DEF97
:1026500013F0D89003360436052A04AE32EF13F097
:1026600034EF13F029EF13F00350015C04500258CB
:10267000D8A03DEF13F03FEF13F043EF13F00350FA
:10268000015E0450025AD89004320332052E34EF12
:1026900013F00650D8B44FEF13F051EF13F055EF8D
:1026A00013F0016C021ED8B0022A01C001F002C072
:1026B00002F01200000E036E83EF13F0CB86CAA067
:1026C00064EF13F066EF13F068EF13F0010E036E82
:1026D000CAA26DEF13F06FEF13F071EF13F0020E5B
:1026E000036ECAA476EF13F078EF13F07AEF13F0CD
:1026F000030E036ECAA67FEF13F081EF13F083EF92
:1027000013F0040E036E0350D8B489EF13F08BEF6F
:1027100013F05EEF13F0030E026E080E016E770EDB
:10272000E82EFED7012EFCD7022EFAD70000035068
:102730001200086E000E076E0604D8A4A2EF13F074
:10274000A4EF13F0A7EF13F008500524076E020E54
:102750000618D8A4AEEF13F0B0EF13F0B3EF13F0F8
:102760000550085C076E030E0618D8A4BAEF13F0E4
:10277000BCEF13F0C1EF13F0085005026F00CCFF5F
:1027800007F0040E0618D8A4C8EF13F0CAEF13F030
:10279000D0EF13F005C001F0085011EC14F0076EF3
:1027A0000750056E066A05BE06061200C268000ED6
:1027B0003A01406F000EC36E000E506F000E706F36
:1027C000000EC56E000EC46E000E606FCD68CC6842
:1027D000000E176E000E166E000E156E000E146EB3
:1027E000000E136E010E87EC11F0176E5AEC13F009
:1027F000156E020E87EC11F0166E16C005F015C0AE
:1028000006F0175099EC13F00550146E1450096E31
:102810000A6A09BE0A0601EC10F0E8EF13F0FEEFB9
:10282000FFF0026E000E046E0150D8B41AEF14F0DF
:102830001CEF14F03DEF14F0010E036E23EF14F0C3
:10284000D8900136032A01AE28EF14F02AEF14F0D5
:1028500020EF14F0D89004360150025CD8A033EF7A
:1028600014F035EF14F038EF14F00150025E0480DC
:10287000D8900132032E2AEF14F0045012000150B8
:1028800003026F00CCFF05F06F00D0FF06F001508F
:102890000402F350062602500302F350062605C038
:0E28A00001F006C002F012000001D6EF13F0A6
:020000040001F9
:04FFFC0054EF14F0BA
:020000040030CA
:0A000000F8FFFFFF9FFFFFFFFFFF67
:00000001FF
