:04000000FEEFFFF020
:102000000000000E116E000E0C6E000E0E6E000E23
:102010000D6E000E0F6E000E106E0ABE14EF10F063
:1020200012EF10F022EF10F009C001F00AC002F028
:10203000FF0E046E03682AEC14F001C009F002C020
:102040000AF0CC9E09C001F00AC002F0000E046E36
:102050000A0E036E88EC12F00150126E09C001F0F6
:102060000AC002F0000E046E0A0E036EEAEC12F0D3
:102070000150116E1250D8A440EF10F042EF10F052
:1020800046EF10F0C00E0F6EC2EF10F01204D8B47D
:102090004CEF10F04EEF10F056EF10F01228D8A4CD
:1020A00054EF10F056EF10F05AEF10F0F90E0F6EDB
:1020B000C2EF10F0020E1218D8A461EF10F063EF17
:1020C00010F067EF10F0A40E0F6EC2EF10F0030EC9
:1020D0001218D8A46EEF10F070EF10F074EF10F03B
:1020E000B00E0F6EC2EF10F0040E1218D8A47BEFE2
:1020F00010F07DEF10F081EF10F0990E0F6EC2EF2F
:1021000010F0050E1218D8A488EF10F08AEF10F026
:102110008EEF10F0920E0F6EC2EF10F0060E121836
:10212000D8A495EF10F097EF10F09BEF10F0820E0F
:102130000F6EC2EF10F0070E1218D8A4A2EF10F025
:10214000A4EF10F0A8EF10F0F80E0F6EC2EF10F031
:10215000080E1218D8A4AFEF10F0B1EF10F0B5EFE1
:1021600010F0800E0F6EC2EF10F0090E1218D8A4F6
:10217000BCEF10F0BEEF10F0C2EF10F0980E0F6E33
:10218000C2EF10F01150D8A4C8EF10F0CAEF10F051
:10219000CEEF10F0C00E106E4EEF11F01104D8A467
:1021A000D4EF10F0D6EF10F0DAEF10F0F90E106E59
:1021B0004EEF11F0020E1118D8A4E1EF10F0E3EF8A
:1021C00010F0E7EF10F0A40E106E4EEF11F0030EBA
:1021D0001118D8A4EEEF10F0F0EF10F0F4EF10F0BB
:1021E000B00E106E4EEF11F0040E1118D8A4FBEFD4
:1021F00010F0FDEF10F001EF11F0990E106E4EEFA0
:1022000011F0050E1118D8A408EF11F00AEF11F023
:102210000EEF11F0920E106E4EEF11F0060E111827
:10222000D8A415EF11F017EF11F01BEF11F0820E8B
:10223000106E4EEF11F0070E1118D8A422EF11F016
:1022400024EF11F028EF11F0F80E106E4EEF11F0A0
:10225000080E1118D8A42FEF11F031EF11F035EF5F
:1022600011F0800E106E4EEF11F0090E1118D8A467
:102270003CEF11F03EEF11F042EF11F0980E106EAE
:102280004EEF11F04EEF11F0CB84CAA64AEF11F0D9
:102290004CEF11F04EEF11F0010E0C6E0C50D8B453
:1022A00054EF11F056EF11F044EF11F0000E0E6EE6
:1022B000010E0D6ECB8A60003FF0CDFF030E0B6E5A
:1022C000980EE82EFED70B2EFCD7CB9ACB8C600055
:1022D00043F0CDFF030E0B6E980EE82EFED70B2EAB
:1022E000FCD7CB9C0D4A0E2A0EBE80EF11F0E80EF3
:1022F0000D5C030E0E58D8A080EF11F082EF11F0A4
:102300005AEF11F0CD68000ECB6E12000A0E066E69
:10231000000E036E020E046EEEEF11F0CB80CAA029
:1023200094EF11F096EF11F098EF11F0010E066E98
:10233000CAA29DEF11F09FEF11F0A1EF11F0040E72
:10234000066ECAA4A6EF11F0A8EF11F0AAEF11F0E3
:10235000070E066ECB90CB82CAA0B1EF11F0B3EF9F
:1023600011F0B5EF11F0020E066ECAA2BAEF11F02D
:10237000BCEF11F0BEEF11F0050E066ECAA4C3EF5C
:1023800011F0C5EF11F0C7EF11F0080E066ECAA6E6
:10239000CCEF11F0CEEF11F0D0EF11F0000E066E81
:1023A000CB92CB84CAA0D7EF11F0D9EF11F0DBEFBD
:1023B00011F0030E066ECAA2E0EF11F0E2EF11F089
:1023C000E4EF11F0060E066ECAA4E9EF11F0EBEF90
:1023D00011F0EDEF11F0090E066ECB940A0E0618FF
:1023E000D8B4F5EF11F0F7EF11F08EEF11F0030E06
:1023F000026E080E016E770EE82EFED7012EFCD776
:10240000022EFAD700000A0E0602F350066E06C02E
:1024100005F00A0E066E6FEF12F0CB80CAA013EF24
:1024200012F015EF12F017EF12F0010E066ECAA2AD
:102430001CEF12F01EEF12F020EF12F0040E066EE9
:10244000CAA425EF12F027EF12F029EF12F0070EC1
:10245000066ECB90CB82CAA030EF12F032EF12F0B2
:1024600034EF12F0020E066ECAA239EF12F03BEF03
:1024700012F03DEF12F0050E066ECAA442EF12F004
:1024800044EF12F046EF12F0080E066ECAA64BEFAC
:1024900012F04DEF12F04FEF12F0000E066ECB92DD
:1024A000CB84CAA056EF12F058EF12F05AEF12F098
:1024B000030E066ECAA25FEF12F061EF12F063EF37
:1024C00012F0060E066ECAA468EF12F06AEF12F060
:1024D0006CEF12F0090E066ECB94000ECB6E0A0E56
:1024E0000618D8B476EF12F078EF12F00DEF12F074
:1024F00006500526030E026E080E016E770EE82EBA
:10250000FED7012EFCD7022EFAD70000055012008C
:10251000000E066E04BE91EF12F08FEF12F097EFEF
:1025200012F0036C041ED8B0042A010E066E02BE1F
:102530009EEF12F09CEF12F0A4EF12F0016C021E5D
:10254000D8B0022A010E061A000E086E000E076EA1
:1025500003500410D8B4AFEF12F0B1EF12F0D9EF7E
:1025600012F0010E056EB9EF12F0D8900336043662
:10257000052A04AEBEEF12F0C0EF12F0B5EF12F074
:10258000D890073608360350015C04500258D8A092
:10259000CCEF12F0CEEF12F0D3EF12F00350015E49
:1025A0000450025A0780D89004320332052EC0EF3F
:1025B00012F00650D8B4DFEF12F0E1EF12F0E5EFC1
:1025C00012F0076C081ED8B0082A07C001F008C036
:1025D00002F01200000E066E02BEF3EF12F0F1EFF1
:1025E00012F0F9EF12F0016C021ED8B0022A010EAF
:1025F000066E04BE00EF13F0FEEF12F004EF13F0CE
:10260000036C041ED8B0042A03500410D8B40BEF96
:1026100013F00DEF13F031EF13F0010E056E15EF0F
:1026200013F0D89003360436052A04AE1AEF13F0DF
:102630001CEF13F011EF13F00350015C045002582B
:10264000D8A025EF13F027EF13F02BEF13F0035072
:10265000015E0450025AD89004320332052E1CEF5A
:1026600013F00650D8B437EF13F039EF13F03DEF05
:1026700013F0016C021ED8B0022A01C001F002C0A2
:1026800002F01200000E036E6BEF13F0CB86CAA0AF
:102690004CEF13F04EEF13F050EF13F0010E036EFA
:1026A000CAA255EF13F057EF13F059EF13F0020ED3
:1026B000036ECAA45EEF13F060EF13F062EF13F045
:1026C000030E036ECAA667EF13F069EF13F06BEF0A
:1026D00013F0040E036E0350D8B471EF13F073EFD0
:1026E00013F046EF13F0030E026E080E016E770E24
:1026F000E82EFED7012EFCD7022EFAD70000035099
:102700001200C268000E3A01406F000EC36E000E48
:10271000506F000E706F000EC56E000EC46E000E7E
:10272000606FCD68CC68000E176E000E166E000E3E
:10273000156E000E146E000E136E86EC11F0176EFF
:10274000CB8ACC9E42EC13F0156E86EC11F0166E1F
:10275000CC8ECB8CCC9C16C005F015C006F0175063
:10276000BFEC13F00550146E1450096E0A6A09BECE
:102770000A0601EC10F093EF13F0FEEFFFF0086E85
:10278000000E076E0604D8A4C8EF13F0CAEF13F0CA
:10279000CDEF13F008500524076E020E0618D8A4DA
:1027A000D4EF13F0D6EF13F0D9EF13F00550085C17
:1027B000076E030E0618D8A4E0EF13F0E2EF13F053
:1027C000E7EF13F0085005026F00CCFF07F0040E8E
:1027D0000618D8A4EEEF13F0F0EF13F0F6EF13F0B5
:1027E00005C001F00850FCEC13F0076E0750056EB1
:1027F000066A05BE06061200026E000E046E015047
:10280000D8B405EF14F007EF14F028EF14F0010E20
:10281000036E0EEF14F0D8900136032A01AE13EFC9
:1028200014F015EF14F00BEF14F0D89004360150AB
:10283000025CD8A01EEF14F020EF14F023EF14F088
:102840000150025E0480D8900132032E15EF14F07F
:1028500004501200015003026F00CCFF05F06F001E
:10286000D0FF06F001500402F35006260250030286
:10287000F350062605C001F006C002F01200000168
:0428800081EF13F0E1
:020000040001F9
:04FFFC003FEF14F0CF
:020000040030CA
:0A000000F8FFFFFF9FFFFFFFFFFF67
:00000001FF
