:04000000FEEFFFF020
:1020000000C82500000000000000D02900000000EA
:102010007C2800000000000000000000000000001C
:1020200000000000000000000000000000000000B0
:1020300000000000000000000000000000EA28008E
:0F204000C82800A6280000000025640D0A000033
:102050001F50D96EDA6A6F007FFFF6FF200EF76E11
:10206000000EF86E0800F550250AD8A43AEF10F0DB
:102070003CEF10F0FFEF10F01F50D96EDA6ADF2A44
:10208000000E476E000E466E46C04CF04868496828
:102090001F50D96EDA6ADF50236E60008FF0F6FFB2
:1020A000200EF76E000EF86E0800F550640AD8B4E2
:1020B0005CEF10F05EEF10F06FEF10F060008FF04B
:1020C000F6FF200EF76E000EF86E0800F550690A54
:1020D000D8A46DEF10F06FEF10F0F9EF10F0205072
:1020E000D96EDA6A020EDF26DF5CD96EDA6A6F001B
:1020F00078FF24F06F0078FF25F01F50D96EDA6A60
:102100002328DF6E200E286E25BE89EF10F08CEF9D
:1021100010F0010E8DEF10F0000E226E28062850F0
:10212000600FD96EDA6A24C013F025C014F0000ED7
:10213000166E0A0E156E46EC12F013C019F014C09C
:102140001AF024EC14F01950300FDF6E24C001F0A7
:1021500025C002F0000E046E0A0E036E82EC11F030
:1021600001C024F002C025F024502510D8B4BBEFE4
:1021700010F0BDEF10F0C5EF10F02850D8A4C3EF59
:1021800010F0C5EF10F08EEF10F02850D8B4CBEF60
:1021900010F0CDEF10F0EEEF10F02250D8B4D3EFE6
:1021A00010F0D5EF10F0EEEF10F028062850600F79
:1021B000D96EDA6A2D0EDF6EEEEF10F02850600F48
:1021C000D96EDA6ADF50216E2150036E046A1DC099
:1021D00005F01EC006F016EC11F0282A200E281873
:1021E000D8A4F5EF10F0F7EF10F0DEEF10F015EFD8
:1021F00011F01F50D96EDA6ADF2A15EF11F01F5067
:10220000D96EDA6A6F007FFFF6FF200EF76E000EC0
:10221000F86E0800F550036E046A1DC005F01EC07C
:1022200006F016EC11F0F9EF10F012000550061050
:10223000D8B41DEF11F01FEF11F028EF11F0055089
:102240000610D8A426EF11F028EF11F02DEF11F0B1
:10225000035095EC14F081EF11F020EE0AF00550D8
:10226000D9260650DA22DE50DE10D8B43AEF11F04B
:102270003CEF11F057EF11F020EE0AF00550D9268F
:102280000650DA2210EE03F00550E1260650E22255
:10229000DE50E65CE650800A0B6EDE50800A0B587A
:1022A000D8B055EF11F057EF11F081EF11F020EE9B
:1022B00003F00550D9260650DA226F0078FF07F0A8
:1022C0006F0074FF08F0600017F0D9FF60001BF08A
:1022D000DAFF6F0078FF09F06F0074FF0AF0075013
:1022E0000924D96E08500A20DA6E60000FF0DFFF73
:1022F00020EE03F00550D9260650DA22DE2A000E21
:10230000DD221200000E066E04BE8BEF11F089EF85
:1023100011F091EF11F0036C041ED8B0042A010EE5
:10232000066E02BE98EF11F096EF11F09EEF11F0DD
:10233000016C021ED8B0022A010E061A000E086EA9
:10234000000E076E03500410D8B4A9EF11F0ABEFE4
:1023500011F0D3EF11F0010E056EB3EF11F0D8902C
:1023600003360436052A04AEB8EF11F0BAEF11F0C7
:10237000AFEF11F0D890073608360350015C0450D7
:102380000258D8A0C6EF11F0C8EF11F0CDEF11F050
:102390000350015E0450025A0780D8900432033281
:1023A000052EBAEF11F00650D8B4D9EF11F0DBEFDB
:1023B00011F0DFEF11F0076C081ED8B0082A07C033
:1023C00001F008C002F01200000EBA6E000EBB6EE3
:1023D000000EBC6E000EBD6E000EBE6EC268C368FD
:1023E000C468FE0EC56E070EC66E3A01406950699C
:1023F0006069FC0E706F070E806F000E416F000E5B
:10240000516F000E616F000E716F000E816F000E34
:10241000426F000E526F000E626F000E726F000E60
:10242000826F4369536963697369070E836F4469F7
:102430005469646974690F0E846F000E5A6F000E40
:102440005B6F000E6A6F000E6B6F000E7A6F000EEE
:102450007B6F190EE86F160E186F000E456F000E99
:10246000466F000E476F000E556F000E566F000E40
:10247000576F000E656F000E666F000E676F000EDF
:10248000856F000E866F000E876F1200000E186EAB
:1024900014BE4FEF12F04DEF12F055EF12F0136C27
:1024A000141ED8B0142A010E186E16BE5CEF12F07E
:1024B0005AEF12F060EF12F0156C161ED8B0162A03
:1024C00015501610D8B467EF12F069EF12F08DEFC7
:1024D00012F0010E176E71EF12F0D8901536163605
:1024E000172A16AE76EF12F078EF12F06DEF12F0B9
:1024F0001550135C16501458D8A081EF12F083EFDA
:1025000012F087EF12F01550135E1650145AD8903F
:1025100016321532172E78EF12F01850D8B493EF08
:1025200012F095EF12F099EF12F0136C141ED8B060
:10253000142A13C013F014C014F01200000E236EFE
:10254000000E226E000E216E000E206E1B50195CD4
:102550001A50800A1D6E1C50800A1D58D8B0B3EF67
:1025600012F0B5EF12F0C1EF12F019C022F01AC04C
:1025700023F0010E1B24206E000E1C20216ECBEFD9
:1025800012F0010E1B24226E000E1C20236E19C0B7
:1025900020F01AC021F056EC13F00DC013F00EC05D
:1025A00014F02250205C156E23502158166E46EC14
:1025B00012F0225013241E6E235014201F6E1EC0D2
:1025C00019F01FC01AF01200000E3D01D06F000E6E
:1025D000D26F000ED46F000ED66F000ED86FB00E03
:1025E000DA6F800EDB6F000EDC6F100EDD6F000EF9
:1025F000DE6F2E0EDF6F000EE06F800EE16F000EBB
:10260000E26F000E016E000E026E000E036E75EC9E
:1026100014F0000E016E000E026E000E036E64ECEC
:1026200014F0000E016E000E026E000E036E53ECED
:1026300014F0000E4B6E000E4A6E1200CAEC14F03D
:10264000E4EC12F0000E016E000E026E08EC14F0C5
:1026500001C005F002C006F0A4EC14F0000E3A012F
:10266000506F000EC36E000ECB6E490E2E6E000E24
:102670001A6E010E196E000E1C6E640E1B6E9EEC1F
:1026800012F019C02FF01AC030F0B1EC14F00B0E9C
:10269000336E260E326E5E0EE82EFED7322EFCD73B
:1026A000332EFAD735EF13F0FEEFFFF04DC001F0F7
:1026B0004EC002F04FC003F050C004F02D0E056E66
:1026C0007F0E066E950E076E4C0E086E8CEC13F0A6
:1026D000010E01244D6E000E02204E6E000E0320EE
:1026E0004F6E000E0420506E4DC00FF04EC010F023
:1026F0004FC011F050C012F0120E84EF13F0D890BA
:102700001232113210320F32E82E7FEF13F00FC069
:102710000DF010C00EF01200000E096E000E0A6ED1
:10272000000E0B6E000E0C6E01A099EF13F09BEFE4
:1027300013F0A3EF13F00550092606500A220750A4
:102740000B2208500C22D89005360636073608367C
:10275000D8900432033202320132015002100310C9
:102760000410D8A4B6EF13F0B8EF13F094EF13F001
:1027700009C001F00AC002F00BC003F00CC004F065
:1027800012002BC02DF0CFEF13F029C01DF02AC08E
:102790001EF02D0E1F6E2CC020F028EC10F06000F3
:1027A000B7F0F6FF200EF76E000EF86E0800F55039
:1027B0000009D8A4DEEF13F0E0EF13F0C5EF13F03B
:1027C000000E2A6E000E296E1200D29A3901A191D4
:1027D000D280000E016E000E026E000E036EE1EC60
:1027E00014F03901A591D282000E016E000E026E26
:1027F000000E036EDAEC14F03901A79BD284000EB0
:10280000016E000E026E000E036ED3EC14F0120087
:1028100001500210D8B40FEF14F011EF14F01FEFB5
:1028200014F0600007F0D9FF60000BF0DAFFFF0E34
:10283000DE6EFF0EDE6EFF0EDE6EFF0EDD6E0168D9
:1028400002680368046812001ABE29EF14F02BEF27
:1028500014F031EF14F019C019F01AC01AF03DEF5E
:1028600014F019C01BF01AC01CF01B1E1C1E1B4AC2
:102870001C2A1BC019F01CC01AF01200000E016EB9
:102880003D01DFAB46EF14F048EF14F051EF14F0C8
:10289000DAAB4DEF14F04FEF14F051EF14F0010EDE
:1028A000016E01501200015002100310D8B45BEF0A
:1028B00014F05DEF14F063EF14F001C034F002C0C7
:1028C00035F003C036F01200015002100310D8B4E6
:1028D0006CEF14F06EEF14F074EF14F001C037F0E9
:1028E00002C038F003C039F012000150021003108A
:1028F000D8B47DEF14F07FEF14F085EF14F001C031
:102900003AF002C03BF003C03CF0120000EE60F071
:10291000200EEE6AE806FDE100EE34F01D0EEE6AD0
:10292000E806FDE100011EEF13F0026E3EEC14F02C
:102930000009D8B49EEF14F0A0EF14F096EF14F055
:102940000250E8EC14F01200FF0E0524076EFF0E93
:102950000620086E07C04DF008C04EF04F6A506A5E
:1029600012002F0E316E000E296E000E2A6E2EC040
:102970002BF0310E2C6EC1EC13F01200600E3901F9
:10298000D96F000EDB6F000EDD6F030EDF6F000EE0
:10299000DE6F1200BEEC14F0E4EC11F0E4EC12F087
:1029A000E5EC13F0120001C03DF002C03EF003C0A0
:1029B0003FF0120001C040F002C041F003C042F0FD
:1029C000120001C043F002C044F003C045F0120001
:0A29D000016E600007F0D2FD120056
:020000040001F9
:04FFFC0086EF14F088
:020000040030CA
:0A0000008FFFF7FF9FFFFFFFFFFFD8
:00000001FF
