:04000000FEEFFFF020
:10200000006A2200000000000000B224000000006E
:102010006C23000000000000000000000000000031
:1020200000000000000000000000000000000000B0
:1020300000000000000000000000000000DA2300A3
:10204000B8230096230000000068656C6C6F200DBB
:032050000A000083
:102054003E503F10D8B431EF10F033EF10F03CEFA6
:1020640010F03E503F10D8A43AEF10F03CEF10F0BF
:1020740041EF10F03C50FEEC11F095EF10F020EE23
:102084000AF03E50D9263F50DA22DE50DE10D8B492
:102094004EEF10F050EF10F06BEF10F020EE0AF05E
:1020A4003E50D9263F50DA2210EE03F03E50E1268E
:1020B4003F50E222DE50E65CE650800A446EDE5079
:1020C400800A4458D8B069EF10F06BEF10F095EF28
:1020D40010F020EE03F03E50D9263F50DA226F0074
:1020E40078FF40F06F0074FF41F06000FBF0D9FF0F
:1020F4006000FFF0DAFF6F0078FF42F06F0074FFBA
:1021040043F040504224D96E41504320DA6E6000BF
:10211400F3F0DFFF20EE03F03E50D9263F50DA22E1
:10212400DE2A000EDD221200000EBA6E000EBB6E17
:10213400000EBC6E000EBD6E000EBE6EC268C3689B
:10214400C468FE0EC56E070EC66E3A01406950693A
:102154006069FC0E706F070E806F000E416F000EF9
:10216400516F000E616F000E716F000E816F000ED3
:10217400426F000E526F000E626F000E726F000EFF
:10218400826F4369536963697369070E836F446996
:102194005469646974690F0E846F000E5A6F000EDF
:1021A4005B6F000E6A6F000E6B6F000E7A6F000E8D
:1021B4007B6F190EE86F160E186F000E456F000E38
:1021C400466F000E476F000E556F000E566F000EDF
:1021D400576F000E656F000E666F000E676F000E7E
:1021E400856F000E866F000E876F12004750D96E00
:1021F400DA6A6F007FFFF6FF200EF76E000EF86EAE
:102204000800F550250AD8A40AEF11F00CEF11F0DC
:102214001EEF11F04750D96EDA6ADF2A000E346ED1
:10222400000E336E33C039F0356836684750D96EC6
:10223400DA6ADF2A34EF11F04750D96EDA6A6F0098
:102244007FFFF6FF200EF76E000EF86E0800F550C3
:102254003C6E3D6A45C03EF046C03FF02AEC10F0AB
:1022640018EF11F01200000E3D01D06F000ED26F76
:10227400000ED46F000ED66F000ED86FB00EDA6F5A
:10228400800EDB6F000EDC6F100EDD6F000EDE6F54
:102294002E0EDF6F000EE06F800EE16F000EE26F16
:1022A400000E3A6E000E3B6E000E3C6EEDEC11F02B
:1022B400000E3A6E000E3B6E000E3C6EDCEC11F02C
:1022C400000E3A6E000E3B6E000E3C6ECBEC11F02D
:1022D400000E386E000E376E12004BC04DF07DEFCD
:1022E40011F049C045F04AC046F04D0E476E4CC04F
:1022F40048F0F8EC10F0600037F1F6FF200EF76EAE
:10230400000EF86E0800F5500009D8A48CEF11F007
:102314008EEF11F073EF11F0000E4A6E000E496E4D
:102324001200D29A3901A191D280000E3A6E000EA9
:102334003B6E000E3C6E52EC12F03901A591D28234
:10234400000E3A6E000E3B6E000E3C6E4BEC12F02B
:102354003901A79BD284000E3A6E000E3B6E000E2C
:102364003C6E44EC12F01200000E3A6E3D01DFABFD
:10237400BEEF11F0C0EF11F0C9EF11F0DAABC5EF09
:1023840011F0C7EF11F0C9EF11F0010E3A6E3A5097
:1023940012003A503B103C10D8B4D3EF11F0D5EFF3
:1023A40011F0DBEF11F03AC021F03BC022F03CC049
:1023B40023F012003A503B103C10D8B4E4EF11F073
:1023C400E6EF11F0ECEF11F03AC024F03BC025F039
:1023D4003CC026F012003A503B103C10D8B4F5EF44
:1023E40011F0F7EF11F0FDEF11F03AC027F03BC008
:1023F40028F03CC029F012003B6EB6EC11F0000945
:10240400D8B407EF12F009EF12F0FFEF11F03B50D0
:1024140059EC12F012004F0E4F6E000E496E000E72
:102424004A6E4EC04BF04F0E4C6E6FEC11F0120022
:102434003BEC12F035EC11F0490E4E6E0DEC12F03F
:102444001EEF12F0FEEFFFF0600E3901D96F000E9F
:10245400DB6F000EDD6F030EDF6F000EDE6F120008
:1024640000EE01F0390EEE6AE806FDE100011AEF14
:1024740012F026EC12F096EC10F035EC11F093EC1F
:1024840011F012003AC02AF03BC02BF03CC02CF0F3
:1024940012003AC02DF03BC02EF03CC02FF01200C9
:1024A4003AC030F03BC031F03CC032F012003A6E1A
:0824B4006000EBF0D2FD120004
:020000040001F9
:04FFFC0032EF12F0DE
:020000040030CA
:0A0000008FFFF7FF9FFFFFFFFFFFD8
:00000001FF
