:04000000FEEFFFF020
:102000000054686520496E70757420566F6C746159
:1020100067653A00252E326600696E66006E616E55
:05202000002056000045
:10202600000E0001E76F35C0EAF036C0EBF037C0AE
:10203600ECF038C0EDF0EDBF25EF10F023EF10F017
:1020460039EF10F0010EE76FEAC001F0EBC002F0C5
:10205600ECC003F0EDC004F0CCEC22F001C0EAF0D5
:1020660002C0EBF003C0ECF004C0EDF0000E00017E
:10207600E96F000EE86F58C0D7F059C0D8F0E751A5
:10208600D8B448EF10F04AEF10F05EEF10F0E751C9
:10209600D8A450EF10F052EF10F058EF10F0000EE9
:1020A600CD6F2B0ECC6F5CEF10F0000ECD6F2D0EAA
:1020B600CC6FCCC0E7F0EAC001F0EBC002F0ECC098
:1020C60003F0EDC004F02CEC1FF001040210D8A4BC
:1020D6006FEF10F071EF10F09BEF10F00001E75179
:1020E600D8B478EF10F07AEF10F083EF10F0E7C075
:1020F6006CF0D707D8A0D807000EE96F010EE86F7D
:10210600E8516C0F016E190E026EAFEC22F0000161
:10211600FD0ED727FF0ED82334C00EF06C0E0F6EBF
:10212600D7C010F0D8C011F08AEC21F0E7EF14F018
:10213600EAC001F0EBC002F0ECC003F0EDC004F021
:102146002CEC1FF001500210D8A4ACEF10F0AEEF4B
:1021560010F0C9EF10F00001E751D8B4B5EF10F058
:10216600B7EF10F0C0EF10F0E7C06CF0D707D8A0BB
:10217600D807000EE96F010EE86FE8516C0F016E8B
:102186001D0E026EAFEC22F08AEF10F0000E000179
:10219600EE6F000EEF6F800EF06F3F0EF16F000EC8
:1021A600D66F000ED56FEAC001F0EBC002F0ECC0AE
:1021B60003F0EDC004F0000E056E000E066E000E74
:1021C600076E000E086ECBEC20F0D8B0EDEF10F0E5
:1021D600EFEF10F0CEEF11F0FCEF10F0D9C0EEF0FB
:1021E600DAC0EFF0DBC0F0F0DCC0F1F00001D54B57
:1021F600D62BEEC00FF0EFC010F0F0C011F0F1C01A
:1022060012F0000E136E000E146E200E156E410EA7
:10221600166E48EC17F00FC0D9F010C0DAF011C0F6
:10222600DBF012C0DCF00001D951EA5D016EDA5133
:10223600EB59026EDB51EC59036EDC51ED59046E1D
:10224600BBEC21F004BE33EF11F004500310021072
:1022560009E1020E015CD8A033EF11F035EF11F061
:10226600F1EF10F0D9C028F0DAC029F0DBC02AF06F
:10227600DCC02BF0EAC02CF0EBC02DF0ECC02EF049
:10228600EDC02FF0AAEC1EF0D8A04CEF11F04EEFE7
:1022960011F0F1EF10F00001EE51EA5D016EEF5121
:1022A600EB59026EF051EC59036EF151ED59046E83
:1022B600BBEC21F004BE6DEF11F0045003100210C8
:1022C60007E1020E015CD8B06BEF11F06DEF11F073
:1022D600B5EF11F0EEC0EAF0EFC0EBF0F0C0ECF0B5
:1022E600F1C0EDF0CEEF11F0EEC001F0EFC002F05C
:1022F600F0C003F0F1C004F0000E056E000E066E8D
:10230600200E076E410E086E6FEC19F001C0EEF05C
:1023160002C0EFF003C0F0F004C0F1F00001D507F1
:10232600D8A0D607EE51EA5D016EEF51EB59026E69
:10233600F051EC59036EF151ED59046EBBEC21F0EE
:1023460004BEB3EF11F004500310021007E1020EB1
:10235600015CD8B0B1EF11F0B3EF11F0B5EF11F0A9
:102366006DEF11F0EAC028F0EBC029F0ECC02AF0BE
:10237600EDC02BF0EEC02CF0EFC02DF0F0C02EF02B
:10238600F1C02FF0AAEC1EF0D8A0CCEF11F0CEEFE2
:1023960011F077EF11F039C0CFF0CFC0D0F05BBEAF
:1023A600D7EF11F0D9EF11F0DFEF11F05AC0C8F0F6
:1023B6005BC0C9F0E4EF11F0000E0001C96F060E14
:1023C600C86FC8C0D3F0C9C0D4F00001D34BD42B1A
:1023D600660ED019D8A4F2EF11F0F4EF11F014EF55
:1023E60012F0D6BFFBEF11F0F9EF11F007EF12F084
:1023F600000EEE6F000EEF6F800EF06F3F0EF16F66
:10240600000ED66F000ED56F670ECF19D8B40EEF3B
:1024160012F010EF12F014EF12F0D551D327D65167
:10242600D423000EDE6F000EDD6FEAC0DFF0EBC0D6
:10243600E0F0ECC0E1F0EDC0E2F0EEC0D9F0EFC0A4
:10244600DAF0F0C0DBF0F1C0DCF0A5EF12F0DFC08F
:1024560001F0E0C002F0E1C003F0E2C004F0EEC01B
:1024660005F0EFC006F0F0C007F0F1C008F06FEC21
:1024760019F001C01AF002C01BF003C01CF004C022
:102486001DF03CEC1BF01AC0E3F01BC0E4F01CC0CE
:10249600E5F01DC0E6F0E3C001F0E4C002F0E5C0DF
:1024A60003F0E6C004F027EC1EF001C0D1F002C034
:1024B600D2F0DFC028F0E0C029F0E1C02AF0E2C087
:1024C6002BF0E3C013F0E4C014F0E5C015F0E6C04D
:1024D60016F0EEC00FF0EFC010F0F0C011F0F1C032
:1024E60012F048EC17F00FC02CF010C02DF011C000
:1024F6002EF012C02FF00BEC22F028C0DFF029C01E
:10250600E0F02AC0E1F02BC0E2F0EEC001F0EFC02F
:1025160002F0F0C003F0F1C004F0000E056E000EEC
:10252600066E200E076E410E086E6FEC19F001C0A4
:10253600EEF002C0EFF003C0F0F004C0F1F00001CD
:10254600DD4BDE2BD351DD5DDE51800A3A6ED45170
:10255600800A3A58D8A0B2EF12F0B4EF12F02AEF80
:1025660012F0EEC00FF0EFC010F0F0C011F0F1C0A5
:1025760012F0000E136E000E146EA00E156E400EB5
:10258600166E48EC17F00FC0E3F010C0E4F011C06F
:10259600E5F012C0E6F0DFC028F0E0C029F0E1C0A7
:1025A6002AF0E2C02BF0E3C02CF0E4C02DF0E5C029
:1025B6002EF0E6C02FF0AAEC1EF0D8B0E5EF12F030
:1025C600E7EF12F0F2EF12F0000E0001E36F000EDB
:1025D600E46F000EE56F000EE66F1BEF13F0DFC031
:1025E60001F0E0C002F0E1C003F0E2C004F0E3C095
:1025F60005F0E4C006F0E5C007F0E6C008F0CBEC55
:1026060020F0D8A009EF13F00BEF13F01BEF13F037
:102616000001D1B111EF13F013EF13F01BEF13F01C
:10262600000EE36F000EE46F000EE56F000EE66F1E
:10263600EAC001F0EBC002F0ECC003F0EDC004F01C
:10264600E3C005F0E4C006F0E5C007F0E6C008F018
:10265600E8EC14F001C0DFF002C0E0F003C0E1F0E6
:1026660004C0E2F0DFC028F0E0C029F0E1C02AF0A3
:10267600E2C02BF0000E136E000E146E200E156EC7
:10268600410E166ED9C00FF0DAC010F0DBC011F0A3
:10269600DCC012F048EC17F00FC02CF010C02DF083
:1026A60011C02EF012C02FF0AAEC1EF0D8A05EEFDB
:1026B60013F060EF13F089EF13F00001D54BD62B22
:1026C600D9C00FF0DAC010F0DBC011F0DCC012F098
:1026D600000E136E000E146E200E156E410E166E51
:1026E60048EC17F00FC0D9F010C0DAF011C0DBF0DB
:1026F60012C0DCF0660E0001D019D8A485EF13F0E5
:1027060087EF13F089EF13F0D34BD42BD9C0EEF03B
:10271600DAC0EFF0DBC0F0F0DCC0F1F0D5C0C6F0F7
:10272600D6C0C7F0000E0001CE6F000ECB6F000EB4
:10273600CA6F000EDE6F000EDD6F81EF14F0DFC092
:1027460001F0E0C002F0E1C003F0E2C004F0EEC028
:1027560005F0EFC006F0F0C007F0F1C008F06FEC2E
:1027660019F001C01AF002C01BF003C01CF004C02F
:102776001DF03CEC1BF01AC0E3F01BC0E4F01CC0DB
:10278600E5F01DC0E6F0E3C001F0E4C002F0E5C0EC
:1027960003F0E6C004F027EC1EF002BEDEEF13F0F5
:1027A600025007E10A0E015CD8B0DCEF13F0DEEF51
:1027B60013F0EEEF13F0E3C001F0E4C002F0E5C061
:1027C60003F0E6C004F027EC1EF001C0D1F002C011
:1027D600D2F0F3EF13F0000E0001D26F090ED16FA5
:1027E6000001CE51D8A4FAEF13F0FCEF13F020EF5E
:1027F60014F0C7BF03EF14F001EF14F020EF14F04C
:10280600E8516C0FD96EDA6A2E0EDF6EE84BE92BB3
:10281600D707D8A0D807010ECE6F20EF14F0E851E5
:102826006C0FD96EDA6A300EDF6EE84BE92BD707EC
:10283600D8A0D807CA07D8A0CB07CA51CB11D8A4AD
:1028460027EF14F029EF14F012EF14F0E8516C0F93
:10285600D96EDA6AD151300FDF6EE84BE92BD70714
:10286600D8A0D807DFC028F0E0C029F0E1C02AF0E0
:10287600E2C02BF0E3C013F0E4C014F0E5C015F09D
:10288600E6C016F0EEC00FF0EFC010F0F0C011F089
:10289600F1C012F048EC17F00FC02CF010C02DF06C
:1028A60011C02EF012C02FF00BEC22F028C0DFF082
:1028B60029C0E0F02AC0E1F02BC0E2F0EEC001F042
:1028C600EFC002F0F0C003F0F1C004F0000E056E98
:1028D600000E066E200E076E410E086E6FEC19F0A4
:1028E60001C0EEF002C0EFF003C0F0F004C0F1F05A
:1028F6000001C607D8A0C707DD4BDE2BD351DD5D2F
:10290600DE51800A3A6ED451800A3A58D8B08EEF1A
:1029160014F090EF14F09EEF14F0E9BF9CEF14F062
:10292600E95109E14B0EE85DD8A09CEF14F09EEF4B
:1029360014F0A2EF13F0000EDE6F4F0EDD6FDD51C7
:102946006C0FD96EDA6ADF6AE8516C08DD25016E14
:102956006C0E026EE8C003F0E9C004F050EC22F001
:102966000001E851DD5DE86FE951DE59E96FE75195
:10297600D8A4C0EF14F0C3EF14F0010EC4EF14F0A6
:10298600000EDD6FDE6BE751D8B4CCEF14F0CEEF5E
:1029960014F0D8EF14F0E807D8A0E907E8516C0F57
:1029A600D96EDA6A60009FF3DFFFDD51D75FDE5133
:1029B600D85B34C00EF0E8516C0F0F6ED7C010F024
:1029C600D8C011F08AEC21F012000450800B0D6E75
:1029D600045004240F6E03AEF3EF14F0F5EF14F079
:1029E600F6EF14F00F800F50D8B4FCEF14F0FEEFA2
:1029F60014F013EF15F00F28D8A404EF15F006EF26
:102A060015F00EEF15F0000E016E000E026E000EB0
:102A1600036E000E046E038E000E046E1BEF15F09F
:102A2600000E016E000E026E000E036E000E046EA6
:102A36000850800B0E6E0D500E18D8B425EF15F009
:102A460027EF15F028EF15F00D8C085008240E6EB0
:102A560007AE30EF15F032EF15F033EF15F00E80BC
:102A66000E50D8B439EF15F03BEF15F050EF15F0D6
:102A76000E28D8A441EF15F043EF15F04BEF15F0F3
:102A8600000E056E000E066E000E076E000E086E36
:102A9600078E000E086E58EF15F0000E056E000E3C
:102AA600066E000E076E000E086E0F500E5CD8B054
:102AB6005FEF15F061EF15F088EF15F00DAC66EFDE
:102AC60015F068EF15F06AEF15F0800E0D1A0FC0BD
:102AD60010F00EC00FF010C00EF001C010F005C0CF
:102AE60001F010C005F002C010F006C002F010C0E0
:102AF60006F003C010F007C003F010C007F004C0D2
:102B060010F008C004F010C008F0000E106E0F5050
:102B16000EC009F00A6A095E000E0A5A0ABE9DEF47
:102B260015F00A5009E11A0E095CD8A09DEF15F0C0
:102B36009FEF15F0D6EF15F00150021003100410A8
:102B4600D8A4A8EF15F0ABEF15F0010EACEF15F019
:102B5600000E106E000E016E000E026E000E036E69
:102B6600000E046E0EC00FF0DFEF15F010A0BEEFE2
:102B760015F0C0EF15F0C6EF15F0D890103001092A
:102B8600106EC8EF15F0D890103201A0CDEF15F0F9
:102B9600CFEF15F0D0EF15F0108E04340432033267
:102BA600023201320F2A0E500F5CD8A0DDEF15F06D
:102BB600DFEF15F0B9EF15F00DBCE4EF15F0E6EF19
:102BC60015F026EF16F00F50D8A4ECEF15F0EEEF47
:102BD60015F0F8EF15F0000E016E000E026E000EF5
:102BE600036E000E046E47EF17F0055001260650DF
:102BF6000222075003220850042204A005EF16F013
:102C060007EF16F0B3EF16F010A00CEF16F00EEF6C
:102C160016F014EF16F0D89010300109106E16EF6A
:102C260016F0D890103201A01BEF16F01DEF16F02B
:102C36001EEF16F0108E04340432033202320132D3
:102C46000F2AB3EF16F00550015C065002580750E4
:102C560003580450800A096E0850800A0958D8B0F3
:102C660037EF16F039EF16F064EF16F00150055CF9
:102C7600096E025006580A6E035007580B6E045030
:102C860008580C6EFF0E0924016EFF0E0A20026E14
:102C9600FF0E0B20036EFF0E0C20046E800E0D1A25
:102CA600106C1050D8A45AEF16F05CEF16F06CEFCB
:102CB60016F0010E0126000E0222032204226CEFFA
:102CC60016F00550015E0650025A0750035A085086
:102CD600045A0150021003100410D8A475EF16F020
:102CE60077EF16F0ACEF16F01050D8A47DEF16F083
:102CF6007FEF16F0ACEF16F0000E016E000E026EBE
:102D0600000E036E000E046E47EF17F0D8900136E2
:102D160002360336043610AE93EF16F095EF16F032
:102D260096EF16F0018010A09BEF16F09DEF16F0BF
:102D3600A1EF16F0D8801036A3EF16F0D890103613
:102D46000F50D8B4A9EF16F0ABEF16F0ACEF16F0B3
:102D56000F0603AEB1EF16F0B3EF16F089EF16F0DB
:102D6600000E0E6E10AEBAEF16F0BCEF16F0D4EFF2
:102D760016F010C009F07F0E0916D8B4C5EF16F08C
:102D8600C7EF16F0CBEF16F0010E0E6ED4EF16F06D
:102D960001A0D0EF16F0D2EF16F0D4EF16F0C7EF81
:102DA60016F00E50D8B4DAEF16F0DCEF16F007EF97
:102DB60017F0010E0126000E02220322042204A0AF
:102DC600E7EF16F0E9EF16F007EF17F001C009F08C
:102DD60002C00AF003C00BF004C00CF00C340C3235
:102DE6000B320A32093209C001F00AC002F00BC0E8
:102DF60003F00CC004F00F28D8B404EF17F006EF68
:102E060017F007EF17F00F2A0F28D8B40DEF17F0B9
:102E16000FEF17F017EF17F00F50D8A415EF17F0B4
:102E260017EF17F029EF17F0000E016E000E026E75
:102E3600000E036E000E046E0F50D8A425EF17F097
:102E460027EF17F029EF17F0000E0D6E0FA02EEFEB
:102E560017F030EF17F033EF17F0038E34EF17F05B
:102E6600039ED8900F30046E0DAE3CEF17F03EEF88
:102E760017F03FEF17F0048E01C001F002C002F018
:102E860003C003F004C004F012001250800B1B6E46
:102E960012501224216E11AE53EF17F055EF17F0B2
:102EA60056EF17F021802150D8B45CEF17F05EEF93
:102EB60017F071EF17F02128D8A464EF17F066EF2A
:102EC60017F06EEF17F0000E0F6E000E106E000E6C
:102ED600116E000E126E118E79EF17F0000E0F6E46
:102EE600000E106E000E116E000E126E1650800B44
:102EF6001B1A16501624206E15AE84EF17F086EFB7
:102F060017F087EF17F020802050D8B48DEF17F018
:102F16008FEF17F0A2EF17F02028D8A495EF17F03F
:102F260097EF17F09FEF17F0000E136E000E146E5A
:102F3600000E156E000E166E158EAAEF17F0000E17
:102F4600136E000E146E000E156E000E166E2050D7
:102F5600D8B4B0EF17F0B2EF17F0BAEF17F0215070
:102F6600D8A4B8EF17F0BAEF17F0C4EF17F0000EB9
:102F76000F6E000E106E000E116E000E126E6EEFCA
:102F860019F015500F026F00CCFF26F06F00D0FF2E
:102F960027F026501C6E1D6A1E6A1F6A2750226E75
:102FA600236A246A256A145010026F00CCFF26F0AB
:102FB6006F00D0FF27F026501C26000E1D221E2271
:102FC6001F2227502226000E2322242225221350B8
:102FD60011026F00CCFF26F06F00D0FF27F02650BD
:102FE6001C26000E1D221E221F2227502226000EFE
:102FF6002322242225221EC01FF01DC01EF01CC045
:103006001DF01C6A135010026F00CCFF26F06F00F3
:10301600D0FF27F026501C2627501D22000E1E2208
:10302600000E1F2214500F026F00CCFF26F06F0017
:10303600D0FF27F026501C2627501D22000E1E22E8
:10304600000E1F221EC01FF01DC01EF01CC01DF06A
:103056001C6A13500F026F00CCFF26F06F00D0FFE2
:1030660027F026501C2627501D22000E1E22000E79
:103076001F22155010026F00CCFF26F06F00D0FF04
:1030860027F02650222627502322000E2422000E47
:103096002522145011026F00CCFF26F06F00D0FFDE
:1030A60027F02650222627502322000E2422000E27
:1030B6002522155011026F00CCFF26F06F00D0FFBD
:1030C60027F02650176E2750186E196A1A6A19C00B
:1030D6001AF018C019F017C018F0176A17502226F0
:1030E60018502322195024221A5025221CC017F0EA
:1030F6001DC018F01EC019F01FC01AF0190E89EF76
:1031060018F0D8901A32193218321732E82E84EF96
:1031160018F01750222618502322195024221A502C
:1031260025221EC01FF01DC01EF01CC01DF01C6A0B
:10313600205021C017F0186A1726000E1822820E9A
:103146001724266EFF0E1820276EBFEF18F0D890B2
:1031560022362336243625361FAEB4EF18F0B6EFE6
:1031660018F0B7EF18F02280D8901C361D361E36A0
:103176001F362606D8A0270624AEC4EF18F0C6EFE1
:1031860018F0AAEF18F0000E206E1FAECDEF18F063
:10319600CFEF18F0F3EF18F0FF0E1C14176EFF0EAA
:1031A6001D14186EFF0E1E14196E7F0E1F141A6E54
:1031B6001750181019101A10D8B4E4EF18F0E6EFEB
:1031C60018F0EAEF18F0010E206EF3EF18F022A0C7
:1031D600EFEF18F0F1EF18F0F3EF18F0E6EF18F054
:1031E6002050D8B4F9EF18F0FBEF18F01FEF19F0E4
:1031F600010E2226000E23222422252225A006EFD8
:1032060019F008EF19F01FEF19F022C017F023C0CC
:1032160018F024C019F025C01AF01A341A321932DF
:103226001832173217C022F018C023F019C024F044
:103236001AC025F0264A272A27BE2AEF19F027505A
:1032460008E12628D8A02AEF19F02CEF19F036EF5E
:1032560019F0000E226E000E236E800E246E7F0E75
:10326600256E64EF19F027BE43EF19F0275006E1EB
:103276002604D8B041EF19F043EF19F04FEF19F0DB
:10328600000E226E000E236E000E246E000E256EBA
:10329600000E1B6E64EF19F026C021F0FF0E2216F9
:1032A600FF0E23167F0E2416000E251621A05EEFB4
:1032B60019F060EF19F061EF19F0248ED8902130E3
:1032C600256E1B50251222C00FF023C010F024C01B
:1032D60011F025C012F012000450800B116E04503C
:1032E6000424186E03AE7AEF19F07CEF19F07DEF27
:1032F60019F018801850D8B483EF19F085EF19F03B
:103306009AEF19F01828D8A48BEF19F08DEF19F061
:1033160095EF19F0000E016E000E026E000E036EA0
:10332600000E046E038E000E046EA2EF19F0000E5E
:10333600016E000E026E000E036E000E046E085043
:10334600800B111A08500824196E07AEADEF19F05C
:10335600AFEF19F0B0EF19F019801950D8B4B6EFE5
:1033660019F0B8EF19F0CDEF19F01928D8A4BEEF6F
:1033760019F0C0EF19F0C8EF19F0000E056E000E37
:10338600066E000E076E000E086E078E000E086EA3
:10339600D5EF19F0000E056E000E066E000E076ED4
:1033A600000E086E0550061007100810D8A4DEEFB0
:1033B60019F0E0EF19F0F8EF19F0000E016E000EAB
:1033C600026E000E036E000E046E800E03127F0E58
:1033D60004121150041201C001F002C002F003C031
:1033E60003F004C004F03BEF1BF01850D8A4FEEF26
:1033F60019F000EF1AF00AEF1AF0000E016E000E37
:10340600026E000E036E000E046E3BEF1BF01950A9
:1034160018C009F00A6A095E000E0A5A7F0E0924CE
:10342600126E000E0A20136E01C00DF002C00EF0DF
:1034360003C00FF004C010F0000E016E000E026E05
:10344600000E036E000E046E000E146E000E156E56
:10345600000E166E000E176E000E196E6BEF1AF048
:103466001950D8B439EF1AF03BEF1AF052EF1AF0B0
:10347600D8900D360E360F361036D89001360236F5
:103486000336043617AE4AEF1AF04CEF1AF04DEF3A
:103496001AF00180D89014361536163617360550B0
:1034A6000D5C06500E5807500F5808501058D8A0FB
:1034B6005FEF1AF061EF1AF06AEF1AF0178C0550F9
:1034C6000D5E06500E5A07500F5A0850105A192A08
:1034D600190E196471EF1AF073EF1AF033EF1AF040
:1034E6000D500E100F101010D8B47CEF1AF07EEFAE
:1034F6001AF096EF1AF0148096EF1AF0D89001366B
:1035060002360336043617AE8BEF1AF08DEF1AF03B
:103516008EEF1AF00180D890143615361636173607
:103526001206D8A0130603AE9BEF1AF09DEF1AF011
:1035360081EF1AF0000E196E17AEA4EF1AF0A6EF7F
:103546001AF0CAEF1AF0FF0E1414096EFF0E1514C6
:103556000A6EFF0E16140B6E7F0E17140C6E0950B2
:103566000A100B100C10D8B4BBEF1AF0BDEF1AF00E
:10357600C1EF1AF0010E196ECAEF1AF001A0C6EFDC
:103586001AF0C8EF1AF0CAEF1AF0BDEF1AF0195088
:10359600D8B4D0EF1AF0D2EF1AF0F6EF1AF0010E07
:1035A6000126000E02220322042204A0DDEF1AF0F7
:1035B600DFEF1AF0F6EF1AF001C009F002C00AF0C8
:1035C60003C00BF004C00CF00C340C320B320A3280
:1035D600093209C001F00AC002F00BC003F00CC0AA
:1035E60004F0124A132A13BE01EF1BF0135008E130
:1035F6001228D8A001EF1BF003EF1BF00EEF1BF013
:10360600000E136E1268000E016E000E026E000EA2
:10361600036E000E046E13BE1BEF1BF0135006E183
:103626001204D8B019EF1BF01BEF1BF029EF1BF0AB
:10363600000E136E000E126E000E016E000E026E6C
:10364600000E036E000E046E000E116E12C018F00E
:1036560018A030EF1BF032EF1BF035EF1BF0038E96
:1036660036EF1BF0039ED8901830046EECEF19F07D
:10367600120060C02AF061C02BF062C02CF063C05B
:103686002DF01AC02AF01BC02BF01CC02CF01DC058
:103696002DF0810E1E6EFF0E1F6E2AC020F02BC06D
:1036A60021F02CC022F02DC023F0180E60EF1BF085
:1036B600D8902332223221322032E82E5BEF1BF0E3
:1036C60020501E24286E000E1F20296E29BE75EF7D
:1036D6001BF0295009E1170E285CD8A075EF1BF0E6
:1036E60077EF1BF081EF1BF01AC01AF01BC01BF01E
:1036F6001CC01CF01DC01DF044EF1CF029BE86EF57
:103706001BF088EF1BF0F8EF1BF028C01EF0FF0E31
:103716001F6EFF0E206E7F0E216E000E226E1E663D
:1037260097EF1BF09FEF1BF022342232213220321A
:103736001F321E2E92EF1BF01FC024F020C025F072
:1037460021C026F022C027F024502A141E6E2550D0
:103756002B141F6E26502C14206E27502D14216E0C
:103766001E501F1020102110D8A4BCEF1BF0BEEF76
:103776001BF0C0EF1BF077EF1BF02AC01EF02BC02A
:103786001FF02CC020F02DC021F0200ED0EF1BF032
:10379600D890213220321F321E32E82ECBEF1BF09A
:1037A6001E501F1020102110D8B4DCEF1BF0DEEFE6
:1037B6001BF0E6EF1BF024502A2625502B2226501C
:1037C6002C2227502D22241C1E6E251C1F6E261C03
:1037D600206E271C216E1E502A161F502B162050B5
:1037E6002C1621502D163CEF1CF02AC01EF02BC0C3
:1037F6001FF02CC020F02DC021F0200E08EF1CF089
:10380600D890213220321F321E32E82E03EF1CF0F0
:103816001E501F1020102110D8A414EF1CF016EF14
:103826001CF020EF1CF0000E2A6E000E2B6E000E10
:103836002C6E000E2D6E3CEF1CF0D8902A341E6EB6
:103846002B341F6E2C34206E2D34216E1E501F100B
:1038560020102110D8B432EF1CF034EF1CF03CEFEE
:103866001CF0000E2A6E000E2B6E800E2C6EBF0E04
:103876002D6E2AC01AF02BC01BF02CC01CF02DC0D8
:103886001DF012003C50D96EDA6A6F007FFFF6FF1A
:10389600200EF76E000EF86E0800F550250AD8A423
:1038A60057EF1CF059EF1CF038EF1DF03C50D96E65
:1038B600DA6ADF2A000E596E000E586E58C05EF0A6
:1038C6005A685B683C50D96EDA6A6F007FFFF6FF74
:1038D600200EF76E000EF86E0800F5502E0AD8A4DA
:1038E60077EF1CF079EF1CF087EF1CF03C50D96E97
:1038F600DA6ADF2A3CC007F03DC008F01AEC20F077
:1039060007C05AF008C05BF03C50D96EDA6ADF5047
:10391600446E600013F1F6FF200EF76E000EF86E8F
:1039260008006F00D4FF43F0A4EF1CF0442AB3EF65
:103936001CF06C0E436EB3EF1CF0000E436EB3EF3B
:103946001CF043504C0AD8B499EF1CF02A0AD8B49C
:103956009CEF1CF00A0AD8B499EF1CF0A0EF1CF0FB
:10396600600013F1F6FF200EF76E000EF86E0800E9
:10397600F550660AD8A4C2EF1CF0C4EF1CF032EF73
:103986001DF0F8EF1CF03D50D96EDA6A6F007CFF2F
:103996003EF0040EDF263E50D96EDA6A6F0078FFDD
:1039A6003FF06F0078FF40F06F0078FF41F06F0046
:1039B60078FF42F003EF1DF03D50D96EDA6A6F00D2
:1039C6007CFF3EF0040EDF263E50D96EDA6A6F00A9
:1039D60078FF3FF06F0078FF40F06F0078FF41F00E
:1039E6006F0078FF42F003EF1DF043504C0AD8B445
:1039F600DFEF1CF0200AD8B4C6EF1CF003EF1DF071
:103A06003C50D96EDA6A4428DF6E23EF1DF03BC0C6
:103A160034F03FC035F040C036F041C037F042C008
:103A260038F0600013F1F6FF200EF76E000EF86E08
:103A360008006F00D4FF39F013EC10F04CEF1DF0C6
:103A4600600013F1F6FF200EF76E000EF86E080008
:103A5600F550660AD8B40AEF1DF032EF1DF03C505F
:103A6600D96EDA6ADF2A4CEF1DF03C50D96EDA6A5D
:103A76006F007FFFF6FF200EF76E000EF86E08004F
:103A8600F550016E026A3BC003F075EC20F032EF90
:103A96001DF01200096E0950D8B454EF1DF056EF10
:103AA6001DF078EF1DF004BE5DEF1DF05BEF1DF01D
:103AB60078EF1DF001C005F002C006F003C007F064
:103AC60004C008F0051E061E071E081E052A000E65
:103AD60006220722082205C00BF006C00CF007C01C
:103AE6000DF008C00EF080EF1DF001C00BF002C013
:103AF6000CF003C00DF004C00EF0015002100310CC
:103B06000410D8A489EF1DF08BEF1DF095EF1DF082
:103B1600000E016E000E026E000E036E000E046EA5
:103B260026EF1EF0960E0A6E9FEF1DF00A2AD89019
:103B36000E320D320C320B32000E0B14056E000ED7
:103B46000C14066E000E0D14076EFE0E0E14086E93
:103B56000550061007100810D8A4B4EF1DF0B6EFF4
:103B66001DF099EF1DF0C4EF1DF00A2A010E0B2679
:103B7600000E0C220D220E22D8900E320D320C327F
:103B86000B32000E0B14056E000E0C14066E000EA2
:103B96000D14076EFF0E0E14086E05500610071062
:103BA6000810D8A4D9EF1DF0DBEF1DF0B8EF1DF01B
:103BB600E3EF1DF00A06D8900B360C360D360E369E
:103BC6000DBEE8EF1DF0EAEF1DF0F2EF1DF0020E5C
:103BD6000A60F0EF1DF0F2EF1DF0DDEF1DF00AB008
:103BE600F7EF1DF0F9EF1DF0FAEF1DF00D9ED890DE
:103BF6000A320AC005F0066A076A086A05C008F0B4
:103C0600076A066A056A05500B1206500C12075021
:103C16000D1208500E120950D8B414EF1EF016EF0C
:103C26001EF01EEF1EF004BE1DEF1EF01BEF1EF071
:103C36001EEF1EF00E8E0BC001F00CC002F00DC080
:103C460003F00EC004F01200033404340A6E0A5066
:103C5600D8A430EF1EF032EF1EF03CEF1EF0000E3F
:103C6600016E000E026E000E036E000E046EA9EFCA
:103C76001EF001C005F002C006F003C007F004C044
:103C860008F0200E4CEF1EF0D890083207320632AC
:103C96000532E82E47EF1EF00550096E038EFF0E23
:103CA6000116FF0E0216FF0E0316000E0416960EE0
:103CB6000A5E0ABE63EF1EF061EF1EF079EF1EF09A
:103CC6000A50800A970FD8B06BEF1EF06DEF1EF00A
:103CD6006FEF1EF032EF1EF0D8900432033202323C
:103CE60001320A3E6FEF1EF091EF1EF01F0E0A64BE
:103CF6007FEF1EF081EF1EF089EF1EF032EF1EF00F
:103D0600D89001360236033604360A060A50D8A47D
:103D16008FEF1EF091EF1EF083EF1EF00950D8B41E
:103D260097EF1EF099EF1EF0A1EF1EF0041E031E82
:103D3600021E016C000E02220322042201C001F0C1
:103D460002C002F003C003F004C004F01200000E2B
:103D56002814306E000E2914316E800E2A14326E2D
:103D66007F0E2B14336E3050311032103310D8A41E
:103D7600BFEF1EF0C1EF1EF0C9EF1EF0000E286E59
:103D8600000E296E000E2A6E000E2B6E000E2C14ED
:103D9600306E000E2D14316E800E2E14326E7F0E94
:103DA6002F14336E3050311032103310D8A4DEEF9A
:103DB6001EF0E0EF1EF0E8EF1EF0000E2C6E000E77
:103DC6002D6E000E2E6E000E2F6E2BAEEDEF1EF03A
:103DD600EFEF1EF0F8EF1EF0286C291ED8B0292A46
:103DE6002A1ED8B02A2A800E2B562FAEFDEF1EF0C3
:103DF600FFEF1EF008EF1FF02C6C2D1ED8B02D2AF9
:103E06002E1ED8B02E2A800E2F56000E281A000E0F
:103E1600291A000E2A1A800E2B1A000E2C1A000ED2
:103E26002D1A000E2E1A800E2F1A2C50285C2D509B
:103E360029582E502A582F502B58D8B025EF1FF04E
:103E460027EF1FF02AEF1FF0D8902BEF1FF0D88036
:103E5600120064C00BF065C00CF066C00DF067C0C0
:103E66000EF001C00BF002C00CF003C00DF004C050
:103E76000EF00BC005F00CC006F00DC007F00EC02A
:103E860008F0180E4CEF1FF0D890083207320632B1
:103E96000532E82E47EF1FF00550096E0A6A0950F1
:103EA6000A10D8A459EF1FF05BEF1FF07BEF1FF04D
:103EB600D8900B34056E0C34066E0D34076E0E3436
:103EC600086E0550061007100810D8A46DEF1FF0F5
:103ED6006FEF1FF075EF1FF0000E026E020E016EFF
:103EE600AAEF1FF0000E026E030E016EAAEF1FF07E
:103EF60009280A10D8A482EF1FF084EF1FF0A6EF5E
:103F06001FF00BC005F00CC006F00DC007F00EC088
:103F160008F0090ED8900536063607360836E82E1C
:103F26008DEF1FF00550061007100810D8B49EEF4D
:103F36001FF0A1EF1FF0010EA2EF1FF0000E016EA1
:103F4600026AAAEF1FF0000E026E040E016E120046
:103F560079EC23F0E8EC22F01FEC23F0000E0A6E59
:103F6600010E0B6E0B50D8A4200E0C6E010E71ECD8
:103F760022F03E01F881F8B1C3EF1FF0C5EF1FF044
:103F8600BEEF1FF0EF516F00C0FB56F0576A56C0E8
:103F960057F0566A56105C6E57505D6E5CC001F065
:103FA6005DC002F0000E02BEFF0E036E046E010E2F
:103FB6004DEC1DF001C00FF002C010F003C011F06F
:103FC60004C012F0000E136E000E146EA00E156ED5
:103FD6003A0E166E48EC17F00FC068F010C069F084
:103FE60011C06AF012C06BF0BC0E0001F26F140E25
:103FF600F36F68C0F4F069C0F5F06AC0F6F06BC004
:10400600F7F004EC23F0BC0E016E210E026E59ECA3
:1040160021F0040E0A6EBC0E0B6E0C6A020E71ECD9
:1040260022F03E01F891BCEF1FF0FEEFFFF0000E0C
:104036000B6E000E0A6E0750D96EDA6A6F007FFFAC
:10404600F6FF200EF76E000EF86E0800F5502A0AED
:10405600D8A430EF20F032EF20F05AEF20F00750CE
:10406600D96EDA6ADF2A0850D96EDA6A020EDF26BE
:10407600DF5CD96EDA6A6F0078FF0AF06F0078FFAE
:104086000BF070EF20F00AC001F00BC002F0000E3A
:10409600046E0A0E036E36EC23F0095001240A6EF4
:1040A600000E02200B6E0750D96EDA6ADF2A07501F
:1040B600D96EDA6A6F007FFFF6FF200EF76E000EEC
:1040C600F86E0800F550D00F096E090E09646EEF00
:1040D60020F070EF20F046EF20F00AC007F00BC08A
:1040E60008F012000350D8B47BEF20F07DEF20F0EB
:1040F60085EF20F00350D8A483EF20F085EF20F061
:104106008AEF20F0015078EC23F0CAEF20F003503C
:10411600D96EDA6A0A0ED926DE50DE10D8B496EFCA
:1041260020F098EF20F0B1EF20F00350D96EDA6A54
:104136000A0ED9260350E16EE26A030EE126DE502E
:10414600E65CE650800A086EDE50800A0858D8B051
:10415600AFEF20F0B1EF20F0CAEF20F00350D96E98
:10416600DA6A030ED926DF50046E0350D96EDA6A76
:10417600DF500424D96EDA6A600007F0DFFF0350CF
:10418600D96EDA6A030ED926DE2A000EDD22120067
:10419600000E0114096E000E02140A6E800E03143E
:1041A6000B6E7F0E04140C6E09500A100B100C10C7
:1041B600D8A4E0EF20F0E2EF20F0EAEF20F0000EC6
:1041C600016E000E026E000E036E000E046E000EEF
:1041D6000514096E000E06140A6E800E07140B6E87
:1041E6007F0E08140C6E09500A100B100C10D8A480
:1041F600FFEF20F001EF21F009EF21F0000E056E30
:10420600000E066E000E076E000E086E05500118B1
:104216000FE1065002180CE10750031809E1085097
:104226000418D8B419EF21F01BEF21F01EEF21F08E
:10423600D8901FEF21F0D88012003BEF21F06000EC
:1042460023F0F6FF600027F0F7FF000EF86E1F0E52
:10425600F76403D00800F55007D06F00DBFFE1FFDD
:104266006F00DFFFE2FFE7505AEC23F0084A092A05
:10427600600023F0F6FF600027F0F7FF000EF86EEF
:104286001F0EF76403D00800F55007D06F00DBFF60
:10429600E1FF6F00DFFFE2FFE7500009D8A456EF09
:1042A60021F058EF21F022EF21F01200000E046EEB
:1042B600000E036E61EF21F0034A042A0150032425
:1042C600D96EDA6ADF50D8A46BEF21F06DEF21F0DA
:1042D6005FEF21F072EF21F0034A042A022A600000
:1042E6000BF0F6FF200EF76E000EF86E0150032459
:1042F600D96EDA6A08006F00D7FFDFFFDF50D8A457
:1043060087EF21F089EF21F06FEF21F0120011BE47
:1043160091EF21F08FEF21F095EF21F0000E116E55
:10432600000E106E000E146E000E136EA5EF21F037
:10433600000E026E200E016E0EC003F075EC20F02A
:10434600134A142A1050135C1450800A126E11502E
:10435600800A1258D8A0B2EF21F0B4EF21F09BEFFB
:1043660021F00FC009F00EC00AF091EC22F0120005
:1043760004BEC0EF21F0C2EF21F0CCEF21F001C066
:1043860001F002C002F003C003F004C004F0E5EF40
:1043960021F001C005F002C006F003C007F004C01A
:1043A60008F0051E061E071E081E052A000E062218
:1043B6000722082205C001F006C002F007C003F07C
:1043C60008C004F01200000E046E000E036EFFEF2C
:1043D60021F0000E066E000E056E054A062A0650EE
:1043E60009E1A50E055CD8A0FBEF21F0FDEF21F059
:1043F600F0EF21F0034A042A0150035C02500458EE
:10440600D8A008EF22F00AEF22F0ECEF21F012001C
:10441600000E2C1A000E2D1A000E2E1A800E2F1AC0
:1044260028C001F029C002F02AC003F02BC004F016
:104436002CC005F02DC006F02EC007F02FC008F0E6
:10444600E8EC14F001C028F002C029F003C02AF0FD
:1044560004C02BF0120046C048F03AEF22F045C0E7
:104466003BF0480E3C6E47C03DF045EC1CF060004A
:1044760023F1F6FF200EF76E000EF86E0800F550D9
:104486000009D8A449EF22F04BEF22F032EF22F0D8
:10449600000E466E000E456E120002C007F001C007
:1044A60006F063EF22F00750D96EDA6ADF50056E28
:1044B600072A0650D96EDA6A600017F0DFFF062A6F
:1044C6000306D8A00406032806E10428D8A46EEF44
:1044D60022F070EF22F056EF22F012000D6E020E5F
:1044E6000D6078EF22F07AEF22F083EF22F00A5087
:1044F6000F0B80090E6E0E5069EC23F08AEF22F046
:104506000A500F0BC0090E6E0E5069EC23F00BC05B
:1045160008F00CC009F020EC21F01200000E0D6E20
:10452600000E0C6EA0EF22F00BC001F0026A0AC06A
:1045360003F075EC20F00C4A0D2A09500C24D96EB4
:10454600DA6ADF500B6E0B50D8A4ACEF22F0AEEF58
:1045560022F097EF22F0120001C004F0022A0204B2
:10456600036E60000FF0F6FF200EF76E000EF86E79
:10457600042A0404D96EDA6A08006F00D7FFDFFF49
:10458600DF50D8A4C9EF22F0CBEF22F0B1EF22F032
:1045960012000150021003100410D8B4D5EF22F017
:1045A600D7EF22F0DFEF22F0000E011A000E021AFA
:1045B600000E031A800E041A01C001F002C002F0B8
:1045C60003C003F004C004F012003E01F851F30BDF
:1045D6000409F86FF889C2803A014081000E3E0155
:1045E600F16F000EFF6F000EF06F000EEF6F000E02
:1045F600F66F000EF76F000EF36F000EF46FF88F74
:104606001200F40E496EF2C04AF0000E4E6E000E15
:104616004D6E000E556E000E546E4A0E456EF3C07A
:1046260046F0490E476E2EEC22F00001F2514D2461
:10463600D96EDA6ADF6A1200000E026E0F0E016E84
:10464600E6EC21F0000EC36E000EC56E010E69EC9D
:1046560023F0380E69EC23F00C0E69EC23F0060EFD
:1046660069EC23F01200015003026F00CCFF05F045
:104676006F00D0FF06F001500402F35006260250E8
:104686000302F350062605C001F006C002F0120030
:1046960000EE60F0660EEE6AE806FDE100EE58F008
:1046A600070EEE6AE806FDE10001ABEF1FF0076EAC
:1046B60060001FF0BBFFBD80BD820000BD92000EF2
:1046C600026E010E016EE6EC21F01200076E60002C
:1046D6001FF0BBFFBD90BD820000BD92000E026EB2
:0E46E600030E016EE6EC21F01200120012002D
:020000040001F9
:04FFFC004BEF23F0B4
:020000040030CA
:0A000000F8FFFFFF9FFFFFFFFFFF67
:00000001FF
