:040000000DEF00F010
:04000800EFEF14F012
:06001800FF006FEF16F07F
:1020000000FC2A00000000000000000000000000AA
:1020100000000000000000000000000000000000C0
:1020200000000000000000000000000000000000B0
:10203000000000000000000000000000005E310011
:102040003C31001A3100000000D42700000000F0ED
:102050002F00082E00F83100283200000000000098
:102060000000000000000000000000000000000070
:102070000000000000000000000000000000000060
:102080000000000000F83000D63000B4300000003E
:10209000005458206275666665722066756C6C0027
:1020A0005258206E6F742072656164790054582014
:1020B0007472696767657200436F72726563742139
:1020C0000057726F6E6721002530325820007374FC
:1020D0006172740020434D00257500002950D96EAF
:1020E000DA6A6F007FFFF6FF200EF76E000EF86EC3
:1020F0000800F550250AD8A480EF10F082EF10F008
:1021000039EF11F02950D96EDA6ADF2A000E00018A
:10211000886F000E876F87C08FF089698A69000E0B
:102120002B6EB1EF10F000018F832950D96EDA6A5F
:10213000DF2AB1EF10F0010E2B6EB1EF10F0295035
:10214000D96EDA6A6F007FFFF6FF200EF76E000E81
:10215000F86E0800F550300AD8B493EF10F09BEFFA
:1021600010F02B50D8B4B7EF10F0B9EF10F09FEF8C
:1021700010F029C00BF02AC00CF08FEC13F00BC04C
:1021800087F00CC088F0000188BFCBEF10F0C9EFDA
:1021900010F0D0EF10F08F81876D881FD8B0882B9A
:1021A0002950D96EDA6ADF50306E6000C3F0F6FF56
:1021B000200EF76E000EF86E0800F550580AD8B4DD
:1021C000E4EF10F0E6EF10F0F7EF10F06000C3F06E
:1021D000F6FF200EF76E000EF86E0800F550750A37
:1021E000D8A4F5EF10F0F7EF10F033EF11F02A500C
:1021F000D96EDA6A020EDF26DF5CD96EDA6A6F000A
:1022000078FF2CF06F0078FF2DF02950D96EDA6A34
:102210003028DF6E20EF11F028C01CF02CC01DF01C
:102220002DC01EF0B9EC12F04DEF11F028C01CF0DB
:102230002CC01DF02DC01EF04EEC11F04DEF11F032
:102240006000C3F0F6FF200EF76E000EF86E080077
:10225000F550580AD8B416EF11F02D0AD8B40CEF87
:1022600011F033EF11F02950D96EDA6ADF2A4DEF01
:1022700011F02950D96EDA6A6F007FFFF6FF200E49
:10228000F76E000EF86E0800F550086E096A28C057
:102290000AF045EC14F033EF11F01200010E226E3B
:1022A00087C023F088C024F0000E276E1F0E266E14
:1022B000000E0001B06F8DEF11F02606D8A02706A2
:1022C0001D500F0B256E0A0E256069EF11F06BEFA4
:1022D00011F06FEF11F0300E252671EF11F0370E6F
:1022E00025262650910FD96EDA6A600097F0DFFF3D
:1022F000000E226E2306D8A024061DC01FF01EC0AB
:1023000020F0040E216ED89020321F32212E83EF50
:1023100011F01FC01DF020C01EF027BE99EF11F074
:10232000275009E1020E265CD8A099EF11F09BEF2F
:1023300011F0C1EF11F01D501E10D8A4A2EF11F042
:10234000A4EF11F05DEF11F02250D8A4AAEF11F024
:10235000ACEF11F05DEF11F024BEB7EF11F0245097
:1023600008E12304D8A0B7EF11F0B9EF11F0C1EFE5
:1023700011F000018FB3BFEF11F0C1EF11F05DEF6D
:1023800011F01CC015F02650910F166E23C017F0E7
:1023900024C018F037EC15F012004750020D000E63
:1023A000F324D96E030EF420DA6EDE6ADD6A3D0195
:1023B000E1A7DDEF11F0DFEF11F000EF12F0475071
:1023C000020D000EF324D96E030EF420DA6EDF82C4
:1023D0000001755176117711D8B4F1EF11F0F3EFD8
:1023E00011F000EF12F002D800EF12F00500FA6EC3
:1023F0007551FD6E7651FE6E7751FF6EFA501200E8
:102400003D01E1A306EF12F008EF12F029EF12F000
:102410004750020D000EF324D96E030EF420DA6E3D
:10242000DF840001725173117411D8B41AEF12F0E5
:102430001CEF12F029EF12F002D829EF12F005007C
:10244000FA6E7251FD6E7351FE6E7451FF6EFA504A
:1024500012006F0040F701F04728026E4650021844
:10246000D8A435EF12F037EF12F039EF12F046EF43
:1024700012F0000E4724D96EDA6A020EDA226000EA
:1024800007F0DFFF02C047F00001902B12001FECA5
:1024900019F0EAEC13F02EEC18F05A0E0001C46F9C
:1024A000030EBD6F000EBE6F000EBF6F040EC56F32
:1024B000000EC06F000EBC6F060EBB6F000EC16F2A
:1024C0003FEC19F0000E066E640E056E50EC17F02E
:1024D000000E0E6ECE0E0F6E0F50D8A4200E106E92
:1024E000010EBAEC17F0010E066EF40E056E50ECFC
:1024F00017F0BBC013F0BDC014F0C0C015F0BEC0D3
:1025000016F0BFC017F00001C451FDEC15F0C5C0B6
:1025100013F0C5C014F0C1C015F00001C4512BEC7C
:1025200017F09BEC14F013C0C2F014C0C3F0B10E4E
:10253000356ED80E366EC2C037F0C3C038F014EC1A
:1025400018F0B10E056ED40E066ED3EC16F0040E24
:102550000E6EB10E0F6E106A020EBAEC17F0000E7E
:10256000066EC80E056E50EC17F060EF12F00DEF1E
:1025700000F0010E1F6E87C020F088C021F0000E11
:10258000236E1F0E226E000E0001B06FEFEF12F0EF
:102590002206D8A023062250910FD96EDA6A1DC0F8
:1025A00005F01EC006F0000E086E0A0E076EA1ECC4
:1025B00016F00550300FDF6E000E1F6E2006D8A0FB
:1025C00021061DC005F01EC006F0000E086E0A0EA2
:1025D000076EC3EC15F005C01DF006C01EF02250BA
:1025E0002310D8B4F6EF12F0F8EF12F01EEF13F04C
:1025F0001D501E10D8A4FFEF12F001EF13F0C8EF2A
:1026000012F01F50D8A407EF13F009EF13F0C8EF32
:1026100012F021BE14EF13F0215008E12004D8A0DD
:1026200014EF13F016EF13F01EEF13F000018FB349
:102630001CEF13F01EEF13F0C8EF12F01CC015F0E2
:102640002250910F166E20C017F021C018F037EC01
:1026500015F01200000EBA6E000EBB6E000EBC6EBE
:10266000000EBD6E000EBE6EC268C368C468FE0E6A
:10267000C56E070EC66E3A01406950697F0E606FE5
:10268000FC0E706F070E806F000E416F000E516FD1
:10269000000E616F000E716F000E816F000E426FB1
:1026A000000E526F000E626F000E726F000E826F8E
:1026B0004369536963697369070E836F4469546999
:1026C000646974690F0E846F000E5A6F000E5B6FA1
:1026D000000E6A6F000E6B6F000E7A6F000E7B6F3C
:1026E000190EE86F170EE56F160E186F000E456F86
:1026F000000E466F000E476F000E556F000E566FAE
:10270000000E576F000E656F000E666F000E676F4C
:10271000000E856F000E866F000E876F1200000E90
:102720000F6E000E0E6E0B50D96EDA6A6F007FFFCF
:10273000F6FF200EF76E000EF86E0800F5502A0A1C
:10274000D8A4A5EF13F0A7EF13F0CFEF13F00B50C1
:10275000D96EDA6ADF2A0C50D96EDA6A020EDF26E9
:10276000DF5CD96EDA6A6F0078FF0EF06F0078FFD9
:102770000FF0E5EF13F00EC005F00FC006F0000EED
:10278000086E0A0E076E45EC18F00D5005240E6E0B
:10279000000E06200F6E0B50D96EDA6ADF2A0B503E
:1027A000D96EDA6A6F007FFFF6FF200EF76E000E1B
:1027B000F86E0800F550D00F0D6E090E0D64E3EFB2
:1027C00013F0E5EF13F0BBEF13F00EC00BF00FC0EA
:1027D0000CF01200390196959A0E0001816F230EBC
:1027E000826F000E836F39019697DA0E0001846FB5
:1027F000310E856F000E866F000E3D01D06F000E0A
:10280000D26F000ED46F000ED66F000ED86FB00ED0
:10281000DA6F800EDB6F000EDC6F010EDD6F000ED5
:10282000DE6F2E0EDF6F000EE06F800EE16F000E88
:10283000E26F8C0E056E320E066E000E076E7CEC9B
:1028400018F0880E056E320E066E000E076E6BECE9
:1028500018F0000E056E000E066E000E076E5AECA4
:1028600018F0000E00018E6F000E8D6F000E4A6E84
:10287000000E496E000E486E000E476E000E466E4A
:10288000000E906F3901968512000A50D8B44BEFB4
:1028900014F04DEF14F055EF14F00A50D8A453EF94
:1028A00014F055EF14F05AEF14F00850C0EC18F083
:1028B0009AEF14F00A50D96EDA6A0A0ED926DE5061
:1028C000DE10D8B466EF14F068EF14F081EF14F066
:1028D0000A50D96EDA6A0A0ED9260A50E16EE26A07
:1028E000030EE126DE50E65CE650800A0F6EDE50F5
:1028F000800A0F58D8B07FEF14F081EF14F09AEFF0
:1029000014F00A50D96EDA6A030ED926DF500B6E26
:102910000A50D96EDA6ADF500B24D96EDA6A600089
:1029200023F0DFFF0A50D96EDA6A030ED926DE2AB9
:10293000000EDD221200000E196E000E1A6E000E3F
:102940001B6E590E1D6E000E1C6EFCEC18F000097B
:10295000D8B4ADEF14F0AFEF14F0D9EF14F0F8ECF9
:1029600017F01B6EF8EC17F01C6E1D501B18D8A446
:10297000BCEF14F0BEEF14F0AFEF14F01D501C18B4
:10298000D8A4C5EF14F0C7EF14F0AFEF14F0F8ECD3
:1029900017F0196EFCEC18F00009D8B4D2EF14F05F
:1029A000D4EF14F0E4EF14F0F8EC17F01A6EE4EF43
:1029B00014F0000E0E6EA00E0F6E0F50D8A4200E55
:1029C000106E010EBAEC17F01A50156E1950176EF2
:1029D00015C018F017C013F018C014F012006F00E3
:1029E000E8FF03F06F00ECFF04F0390196A7FBEF5E
:1029F00014F0FDEF14F014EF15F0A6A702EF15F098
:102A000004EF15F014EF15F002D812EF15F00500E1
:102A1000FA6E00018451FD6E8551FE6E8651FF6E87
:102A2000FA50120030EF15F096A519EF15F01BEFD4
:102A300015F030EF15F0A6A520EF15F022EF15F0F8
:102A400030EF15F002D830EF15F00500FA6E0001F6
:102A50008151FD6E8251FE6E8351FF6EFA5012005D
:102A6000600013F0FBFF60000FF0FAFF110000019F
:102A70008FA13DEF15F03FEF15F045EF15F016C0B3
:102A800010F015C011F0DAEC17F018BE4CEF15F08D
:102A90004AEF15F050EF15F0000E186E000E176E8D
:102AA000000E1B6E000E1A6E60EF15F0000E096E20
:102AB000200E086E15C00AF045EC14F01A4A1B2AC5
:102AC00017501A5C1B50800A196E1850800A19584A
:102AD000D8A06DEF15F06FEF15F056EF15F000016F
:102AE0008FB175EF15F077EF15F07DEF15F016C08B
:102AF00010F015C011F0DAEC17F01200000E3D01D5
:102B0000E86F000EE96F000EEA6F000EEB6F000E2B
:102B1000EC6F000EED6F000EEE6F000EEF6F000E0B
:102B2000F06F000EF16FB00EF26F800EF36F080EB3
:102B3000F46F190EF56F000EF66F2E0EF76F000E84
:102B4000F86F800EF96F000EFA6F8A0E056E320E66
:102B5000066E000E076EAFEC18F0860E056E320E94
:102B6000066E000E076E9EEC18F0000E056E000E4D
:102B7000066E000E076E8DEC18F0000E00018C6FD3
:102B8000000E8B6F1200000E0B6E000E0A6E0750C7
:102B90000810D8B4CEEF15F0D0EF15F0F8EF15F01F
:102BA000010E096ED8EF15F0D89007360836092ABD
:102BB00008AEDDEF15F0DFEF15F0D4EF15F0D8908B
:102BC0000A360B360750055C08500658D8A0EBEFC4
:102BD00015F0EDEF15F0F2EF15F00750055E085017
:102BE000065A0A80D89008320732092EDFEF15F016
:102BF0000AC005F00BC006F01200186E18C019F0DC
:102C000013C01AF014C01BF015C01CF016C01DF044
:102C100017C01EF0000E1F6E14EC19F00009D8B496
:102C200014EF16F016EF16F01FEF16F01F50190FE5
:102C3000D96EDA6ADF5004EC17F02CEF16F0000EB4
:102C40000E6E910E0F6E0F50D8A4200E106E010E56
:102C5000BAEC17F035EF16F01F2A050E1F6433EF9C
:102C600016F035EF16F00CEF16F0120051EF16F0DB
:102C7000600033F0F6FF600037F0F7FF000EF86EEB
:102C80001F0EF76403D00800F55007D06F00DBFF7C
:102C9000E9FF6F00DFFFEAFFEF50CFEC18F00C4ABE
:102CA0000D2A600033F0F6FF600037F0F7FF000EEA
:102CB000F86E1F0EF76403D00800F55007D06F00C0
:102CC000DBFFE9FF6F00DFFFEAFFEF500009D8A448
:102CD0006CEF16F06EEF16F038EF16F0120000EE03
:102CE00000F310EE00F2EE6AE550E150FCE1E25034
:102CF000FAE100EE00F210EE00F1EE6AE550E1506C
:102D0000FCE1E250FAE100EE00F110EE00F1EE6AB3
:102D1000E550E150FCE1E250FAE100EE60F0510EC6
:102D2000EE6AE806FDE14A6A496A486A476A466A05
:102D3000080ED56E000ED66E000ED76E000147EF5E
:102D400012F007500810D8B4A8EF16F0AAEF16F04A
:102D5000CEEF16F0010E096EB2EF16F0D8900736DE
:102D60000836092A08AEB7EF16F0B9EF16F0AEEF45
:102D700016F00750055C08500658D8A0C2EF16F0B0
:102D8000C4EF16F0C8EF16F00750055E0850065A5B
:102D9000D89008320732092EB9EF16F005C005F0B9
:102DA00006C006F01200000E086E000E076EDBEF84
:102DB00016F0074A082A05500724D96EDA6ADF5050
:102DC000D8A4E5EF16F0E7EF16F0D9EF16F0ECEF28
:102DD00016F0074A082A062A60001BF0F6FF200EAC
:102DE000F76E000EF86E05500724D96EDA6A0800F7
:102DF0006F00D7FFDFFFDF50D8A401EF17F003EF1C
:102E000017F0E9EF16F01200066E390196B70BEFD6
:102E100017F00DEF17F012EF17F060001BF0D2FD66
:102E200029EF17F04850D8B418EF17F01AEF17F041
:102E300029EF17F0000E4A24D96EDA6A010EDA2261
:102E400060001BF0DFFF4A28056E05C04AF0969728
:102E5000480696871200166E14EC19F00009D8B4D3
:102E600034EF17F036EF17F044EF17F0165004EC7C
:102E700017F0135004EC17F0145004EC17F0155031
:102E800004EC17F04FEF17F0000E0E6EAD0E0F6E44
:102E90000F50D8A4200E106E010EBAEC17F01200DD
:102EA000000E086E000E076E69EF17F0000E0A6E36
:102EB000000E096E094A0A2A0A5009E1A50E095CAA
:102EC000D8A065EF17F067EF17F05AEF17F0074A31
:102ED000082A0550075C06500858D8A072EF17F072
:102EE00074EF17F056EF17F01200D29A3901A19142
:102EF000D280000E056E000E066E000E076E38ECD6
:102F000019F03901A591D282000E056E000E066EF1
:102F1000000E076E31EC19F03901A79BD284000E28
:102F2000056E000E066E000E076E2AEC19F01200F8
:102F300032C034F0A4EF17F031C028F0340E296EFF
:102F400033C02AF06EEC10F06000D3F0F6FF200ED4
:102F5000F76E000EF86E0800F5500009D8A4B3EF24
:102F600017F0B5EF17F09CEF17F0000E326E000E61
:102F7000316E1200116E020E1160C1EF17F0C3EF37
:102F800017F0CCEF17F00E500F0B8009126E125095
:102F9000DEEC18F0D3EF17F00E500F0BC009126ED5
:102FA0001250DEEC18F00FC00CF010C00DF036EC33
:102FB00016F01200000E146E000E136EE9EF17F0FB
:102FC00012C008F0096A11C00AF045EC14F0134A67
:102FD000142A10501324D96EDA6ADF50126E125080
:102FE000D8A4F5EF17F0F7EF17F0E0EF17F01200A5
:102FF000000E4624D96EDA6A020EDA22DF50066E1F
:103000004628056E05C046F039019695000190519D
:10301000D8B40DEF18F00FEF18F010EF18F090077C
:103020003901968506501200370E396E35C03AF0D8
:10303000000E3E6E000E3D6E000E456E000E446E9C
:103040003A0E316E36C032F0390E336E98EC17F00E
:1030500035503D24D96EDA6ADF6A1200000E066E22
:103060000F0E056E50EC17F0000EC36E000EC26E10
:10307000010EDEEC18F0380EDEEC18F00C0EDEEC73
:1030800018F0060EDEEC18F01200055007026F0073
:10309000CCFF09F06F00D0FF0AF005500802F35092
:1030A0000A2606500702F3500A2609C005F00AC096
:1030B00006F01200055006100710D8B462EF18F0A1
:1030C00064EF18F06AEF18F005C06FF006C070F0FA
:1030D00007C071F01200055006100710D8B473EF46
:1030E00018F075EF18F07BEF18F005C072F006C00D
:1030F00073F007C074F01200055006100710D8B422
:1031000084EF18F086EF18F08CEF18F005C075F01A
:1031100006C076F007C077F01200055006100710C1
:10312000D8B495EF18F097EF18F09DEF18F005C0A0
:1031300060F006C061F007C062F012000550061092
:103140000710D8B4A6EF18F0A8EF18F0AEEF18F0FB
:1031500005C063F006C064F007C065F012000550BA
:1031600006100710D8B4B7EF18F0B9EF18F0BFEF9A
:1031700018F005C066F006C067F007C068F01200DE
:10318000076E14EC19F00009D8B4C9EF18F0CBEFB2
:1031900018F0C1EF18F0075004EC17F012000B6E96
:1031A00060002FF0BBFFBA80BA820000BA92000E16
:1031B000066E010E056E50EC17F012000B6E6000EB
:1031C0002FF0BBFFBA90BA820000BA92000E066ED2
:1031D000030E056E50EC17F01200000E4924D96E54
:1031E000DA6A010EDA22DF503D01D26F4928016E02
:1031F00001C049F0482A120000019051D8A403EF01
:1032000019F006EF19F0010E07EF19F0000E120089
:10321000620E3901D96F000EDB6F000EDD6F020EFA
:10322000DF6F000EDE6F12004850D8A41AEF19F0BD
:103230001DEF19F0010E1EEF19F0000E120008EC40
:1032400019F02AEC13F07EEC15F0EAEC13F075ECB3
:1032500017F0120005C078F006C079F007C07AF0C8
:10326000120005C07BF006C07CF007C07DF01200A4
:1032700005C07EF006C07FF007C080F01200010E8E
:0E328000DEEC18F01200120012001200120014
:020000040030CA
:0A0000008FFFF7FF9FFFFFFFFFFFD8
:00000001FF
