:040000000DEF00F010
:0400080077EF14F08A
:06001800FF0003EF16F0EB
:1020000000962A0000000000000000000000000010
:1020100000000000000000000000000000000000C0
:1020200000000000000000000000000000000000B0
:10203000000000000000000000000000003A300036
:10204000183000F62F00000000E626000000000413
:102050002F00322D00023100EC30000000000000A3
:102060000000000000000000000000000000000070
:102070000000000000000000000000000000000060
:102080000000000000D42F00B22F00902F000000AD
:10209000005458206275666665722066756C6C0027
:1020A0005258206E6F742072656164790054582014
:1020B0007472696767657200436F72726563742139
:1020C0000057726F6E6721002530325820007374FC
:1020D0006172740020434D00257500002950D96EAF
:1020E000DA6A6F007FFFF6FF200EF76E000EF86EC3
:1020F0000800F550250AD8A480EF10F082EF10F008
:1021000037EF11F02950D96EDA6ADF2A000E4A6ED5
:10211000000E496E49C04DF0000184698569000ECA
:102120002B6EB0EF10F04D822950D96EDA6ADF2A9B
:10213000B0EF10F0010E2B6EB0EF10F02950D96EF9
:10214000DA6A6F007FFFF6FF200EF76E000EF86E62
:102150000800F550300AD8B493EF10F09AEF10F061
:102160002B50D8B4B6EF10F0B8EF10F09EEF10F08F
:1021700029C00BF02AC00CF018EC13F00BC049F08A
:102180000CC04AF04ABEC9EF10F0C7EF10F0CEEF16
:1021900010F04D80496C4A1ED8B04A2A2950D96E99
:1021A000DA6ADF50306E6000C3F0F6FF200EF76E83
:1021B000000EF86E0800F550580AD8B4E2EF10F09F
:1021C000E4EF10F0F5EF10F06000C3F0F6FF200E22
:1021D000F76E000EF86E0800F550750AD8A4F3EFFC
:1021E00010F0F5EF10F031EF11F02A50D96EDA6AE5
:1021F000020EDF26DF5CD96EDA6A6F0078FF2CF002
:102200006F0078FF2DF02950D96EDA6A3028DF6E22
:102210001EEF11F028C01CF02CC01DF02DC01EF0C8
:1022200043EC12F04BEF11F028C01CF02CC01DF055
:102230002DC01EF04CEC11F04BEF11F06000C3F01C
:10224000F6FF200EF76E000EF86E0800F550580AE3
:10225000D8B414EF11F02D0AD8B40AEF11F031EF11
:1022600011F02950D96EDA6ADF2A4BEF11F02950AC
:10227000D96EDA6A6F007FFFF6FF200EF76E000E50
:10228000F86E0800F550086E096A28C00AF0CDEC17
:1022900013F031EF11F01200010E226E49C023F04D
:1022A0004AC024F0000E276E1F0E266E000E00019D
:1022B000A76F8BEF11F02606D8A027061D500F0B35
:1022C000256E0A0E256067EF11F069EF11F06DEFD2
:1022D00011F0300E25266FEF11F0370E252626500F
:1022E000880FD96EDA6A600097F0DFFF000E226E69
:1022F0002306D8A024061DC01FF01EC020F0040E27
:10230000216ED89020321F32212E81EF11F01FC094
:102310001DF020C01EF027BE97EF11F0275009E1F5
:10232000020E265CD8A097EF11F099EF11F0BEEFE6
:1023300011F01D501E10D8A4A0EF11F0A2EF11F063
:102340005BEF11F02250D8A4A8EF11F0AAEF11F022
:102350005BEF11F024BEB5EF11F0245008E1230427
:10236000D8A0B5EF11F0B7EF11F0BEEF11F04DB2FC
:10237000BCEF11F0BEEF11F05BEF11F01CC015F0D7
:102380002650880F166E23C017F024C018F006ECF4
:1023900015F012005050020D000EF324D96E030EFA
:1023A000F420DA6EDE6ADD6A3D01E1A7DAEF11F0B2
:1023B000DCEF11F0FDEF11F05050020D000EF32490
:1023C000D96E030EF420DA6EDF82000175517611AA
:1023D0007711D8B4EEEF11F0F0EF11F0FDEF11F03E
:1023E00002D8FDEF11F00500FA6E7551FD6E7651C1
:1023F000FE6E7751FF6EFA5012003D01E1A303EF2C
:1024000012F005EF12F026EF12F05050020D000E00
:10241000F324D96E030EF420DA6EDF8400017251CA
:1024200073117411D8B417EF12F019EF12F026EFF0
:1024300012F002D826EF12F00500FA6E7251FD6E0E
:102440007351FE6E7451FF6EFA5012006F0040F728
:1024500001F05028026E4F500218D8A432EF12F04B
:1024600034EF12F036EF12F042EF12F0000E50246B
:10247000D96EDA6A020EDA22600007F0DFFF02C0CE
:1024800050F04E2A1200010E1F6E49C020F04AC0C3
:1024900021F0000E236E1F0E226E000E0001A76FAA
:1024A00079EF12F02206D8A023062250880FD96EA9
:1024B000DA6A1DC005F01EC006F0000E086E0A0E96
:1024C000076E36EC16F00550300FDF6E000E1F6EF3
:1024D0002006D8A021061DC005F01EC006F0000E83
:1024E000086E0A0E076E90EC15F005C01DF006C0D0
:1024F0001EF022502310D8B480EF12F082EF12F0B9
:10250000A7EF12F01D501E10D8A489EF12F08BEF28
:1025100012F052EF12F01F50D8A491EF12F093EF87
:1025200012F052EF12F021BE9EEF12F0215008E19E
:102530002004D8A09EEF12F0A0EF12F0A7EF12F047
:102540004DB2A5EF12F0A7EF12F052EF12F01CC03F
:1025500015F02250880F166E20C017F021C018F019
:1025600006EC15F01200000EBA6E000EBB6E000EE7
:10257000BC6E000EBD6E000EBE6EC268C368C4683D
:10258000FE0EC56E070EC66E3A01406950697F0E99
:10259000606FFC0E706F070E806F000E416F000EB3
:1025A000516F000E616F000E716F000E816F000E93
:1025B000426F000E526F000E626F000E726F000EBF
:1025C000826F4369536963697369070E836F446956
:1025D0005469646974690F0E846F000E5A6F000E9F
:1025E0005B6F000E6A6F000E6B6F000E7A6F000E4D
:1025F0007B6F190EE86F170EE56F160E186F000E41
:10260000456F000E466F000E476F000E556F000EAF
:10261000566F000E576F000E656F000E666F000E4E
:10262000676F000E856F000E866F000E876F1200B9
:10263000000E0F6E000E0E6E0B50D96EDA6A6F0030
:102640007FFFF6FF200EF76E000EF86E0800F550C3
:102650002A0AD8A42EEF13F030EF13F058EF13F03E
:102660000B50D96EDA6ADF2A0C50D96EDA6A020E84
:10267000DF26DF5CD96EDA6A6F0078FF0EF06F003C
:1026800078FF0FF06EEF13F00EC005F00FC006F0EC
:10269000000E086E0A0E076EB3EC17F00D500524FD
:1026A0000E6E000E06200F6E0B50D96EDA6ADF2A0E
:1026B0000B50D96EDA6A6F007FFFF6FF200EF76EBF
:1026C000000EF86E0800F550D00F0D6E090E0D6467
:1026D0006CEF13F06EEF13F044EF13F00EC00BF03D
:1026E0000FC00CF0120039019695940E00017E6F18
:1026F000230E7F6F000E806F39019697B60E000192
:10270000816F300E826F000E836F000E3D01D06F1F
:10271000000ED26F000ED46F000ED66F000ED86F71
:10272000B00EDA6F800EDB6F000EDC6F010EDD6F16
:10273000000EDE6F2E0EDF6F000EE06F800EE16F79
:10274000000EE26F660E056E310E066E000E076E0D
:10275000EAEC17F0620E056E310E066E000E076E83
:10276000D9EC17F0000E056E000E066E000E076E17
:10277000C8EC17F0000E4C6E000E4B6E000E536E40
:10278000000E526E000E516E000E506E000E4F6E17
:10279000000E4E6E3901968512000A50D8B4D3EF60
:1027A00013F0D5EF13F0DDEF13F00A50D8A4DBEFF0
:1027B00013F0DDEF13F0E2EF13F008502EEC18F0F9
:1027C00022EF14F00A50D96EDA6A0A0ED926DE50CA
:1027D000DE10D8B4EEEF13F0F0EF13F009EF14F0C1
:1027E0000A50D96EDA6A0A0ED9260A50E16EE26AF8
:1027F000030EE126DE50E65CE650800A0F6EDE50E6
:10280000800A0F58D8B007EF14F009EF14F022EF48
:1028100014F00A50D96EDA6A030ED926DF500B6E17
:102820000A50D96EDA6ADF500B24D96EDA6A60007A
:1028300023F0DFFF0A50D96EDA6A030ED926DE2AAA
:10284000000EDD221200000E196E000E1A6E000E30
:102850001B6E590E1D6E000E1C6E81EC18F00009E7
:10286000D8B435EF14F037EF14F061EF14F082ECC8
:1028700017F01B6E82EC17F01C6E1D501B18D8A4AD
:1028800044EF14F046EF14F037EF14F01D501C180D
:10289000D8A44DEF14F04FEF14F037EF14F082ECA2
:1028A00017F0196E81EC18F00009D8B45AEF14F043
:1028B0005CEF14F06CEF14F082EC17F01A6E6CEF12
:1028C00014F0000E0E6EA00E0F6E0F50D8A4200E46
:1028D000106E010E2AEC17F01A50156E1950176E73
:1028E00015C018F017C013F018C014F012006F00D4
:1028F000E8FF03F06F00ECFF04F0390196A783EFC7
:1029000014F085EF14F09CEF14F0A6A78AEF14F0F2
:102910008CEF14F09CEF14F002D89AEF14F005003D
:10292000FA6E00018151FD6E8251FE6E8351FF6E81
:10293000FA501200B8EF14F096A5A1EF14F0A3EF2F
:1029400014F0B8EF14F0A6A5A8EF14F0AAEF14F055
:10295000B8EF14F002D8B8EF14F00500FA6E0001D9
:102960007E51FD6E7F51FE6E8051FF6EFA50120057
:10297000600013F0FBFF60000FF0FAFF11008CEC19
:1029800018F073EC13F09CEC17F0ACEC18F0000EA0
:10299000066E640E056EC0EC16F0000E0E6ECE0EC6
:1029A0000F6E0F50D8A4200E106E010E2AEC17F0F7
:1029B000010E066EF40E056EC0EC16F023EC14F05A
:1029C00013C0B2F014C0B3F0A80E356ED80E366E38
:1029D000B2C037F0B3C038F068EC17F0A80E056E3F
:1029E000D40E066E68EC16F0040E0E6EA80E0F6E76
:1029F000106A020E2AEC17F0000E066EC80E056E65
:102A0000C0EC16F0C5EF14F00DEF00F04DA00BEF89
:102A100015F00DEF15F013EF15F016C010F015C0FE
:102A200011F04AEC17F018BE1AEF15F018EF15F078
:102A30001EEF15F0000E186E000E176E000E1B6EC6
:102A4000000E1A6E2EEF15F0000E096E200E086EA5
:102A500015C00AF0CDEC13F01A4A1B2A17501A5C65
:102A60001B50800A196E1850800A1958D8A03BEFE5
:102A700015F03DEF15F024EF15F04DB042EF15F0D5
:102A800044EF15F04AEF15F016C010F015C011F024
:102A90004AEC17F01200000E3D01E86F000EE96FDE
:102AA000000EEA6F000EEB6F000EEC6F000EED6F84
:102AB000000EEE6F000EEF6F000EF06F000EF16F64
:102AC000B00EF26F800EF36F080EF46F190EF56FF3
:102AD000000EF66F2E0EF76F000EF86F800EF96F76
:102AE000000EFA6F640E056E310E066E000E076E54
:102AF0001DEC18F0600E056E310E066E000E076EAE
:102B00000CEC18F0000E056E000E066E000E076E3F
:102B1000FBEC17F0000E0001876F000E866F1200AD
:102B2000000E0B6E000E0A6E07500810D8B49BEF13
:102B300015F09DEF15F0C5EF15F0010E096EA5EF2C
:102B400015F0D89007360836092A08AEAAEF15F016
:102B5000ACEF15F0A1EF15F0D8900A360B36075000
:102B6000055C08500658D8A0B8EF15F0BAEF15F07C
:102B7000BFEF15F00750055E0850065A0A80D8903E
:102B800008320732092EACEF15F00AC005F00BC071
:102B900006F01200E5EF15F0600033F0F6FF60007C
:102BA00037F0F7FF000EF86E1F0EF76403D0080031
:102BB000F55007D06F00DBFFE9FF6F00DFFFEAFF92
:102BC000EF503DEC18F00C4A0D2A600033F0F6FF90
:102BD000600037F0F7FF000EF86E1F0EF76403D0A9
:102BE0000800F55007D06F00DBFFE9FF6F00DFFF43
:102BF000EAFFEF500009D8A400EF16F002EF16F03C
:102C0000CCEF15F0120000EE00F310EE00F2EE6AC9
:102C1000E550E150FCE1E250FAE100EE00F210EE86
:102C200000F1EE6AE550E150FCE1E250FAE100EE1D
:102C300000F110EE00F1EE6AE550E150FCE1E250E7
:102C4000FAE100EE60F0480EEE6AE806FDE100EE03
:102C500046F00E0EEE6AE806FDE1080ED56E000E97
:102C6000D66E000ED76E0001BFEF14F007500810AB
:102C7000D8B43DEF16F03FEF16F063EF16F0010EFB
:102C8000096E47EF16F0D89007360836092A08AEC5
:102C90004CEF16F04EEF16F043EF16F00750055CC0
:102CA00008500658D8A057EF16F059EF16F05DEF10
:102CB00016F00750055E0850065AD89008320732C1
:102CC000092E4EEF16F005C005F006C006F0120002
:102CD000000E086E000E076E70EF16F0074A082A05
:102CE00005500724D96EDA6ADF50D8A47AEF16F0BF
:102CF0007CEF16F06EEF16F081EF16F0074A082A07
:102D0000062A60001BF0F6FF200EF76E000EF86E2C
:102D100005500724D96EDA6A08006F00D7FFDFFF7D
:102D2000DF50D8A496EF16F098EF16F07EEF16F06D
:102D30001200066E390196B7A0EF16F0A2EF16F05A
:102D4000A7EF16F060001BF0D2FDBEEF16F0515059
:102D5000D8B4ADEF16F0AFEF16F0BEEF16F0000EE0
:102D60005324D96EDA6A010EDA2260001BF0DFFF0D
:102D70005328056E05C053F09697510696871200AA
:102D8000000E086E000E076ED9EF16F0000E0A6EE8
:102D9000000E096E094A0A2A0A5009E1A50E095CCB
:102DA000D8A0D5EF16F0D7EF16F0CAEF16F0074A05
:102DB000082A0550075C06500858D8A0E2EF16F024
:102DC000E4EF16F0C6EF16F01200D29A3901A19185
:102DD000D280000E056E000E066E000E076EA5EC8A
:102DE00018F03901A591D282000E056E000E066E14
:102DF000000E076E9EEC18F03901A79BD284000EDE
:102E0000056E000E066E000E076E97EC18F01200AD
:102E100032C034F014EF17F031C028F0340E296EB0
:102E200033C02AF06EEC10F06000D3F0F6FF200EF5
:102E3000F76E000EF86E0800F5500009D8A423EFD5
:102E400017F025EF17F00CEF17F0000E326E000EA2
:102E5000316E1200116E020E116031EF17F033EF78
:102E600017F03CEF17F00E500F0B8009126E125046
:102E70004CEC18F043EF17F00E500F0BC009126E18
:102E800012504CEC18F00FC00CF010C00DF0CAEC52
:102E900015F01200000E146E000E136E59EF17F0AD
:102EA00012C008F0096A11C00AF0CDEC13F0134A01
:102EB000142A10501324D96EDA6ADF50126E1250A1
:102EC000D8A465EF17F067EF17F050EF17F0120076
:102ED000370E396E35C03AF0000E3E6E000E3D6E74
:102EE000000E456E000E446E3A0E316E36C032F062
:102EF000390E336E08EC17F035503D24D96EDA6A7E
:102F0000DF6A1200000E4F24D96EDA6A020EDA224E
:102F1000DF50066E4F28056E05C04FF039019695BB
:102F20004E50D8B496EF17F098EF17F099EF17F0CE
:102F30004E06968506501200000E066E0F0E056EA8
:102F4000C0EC16F0000EC36E000EC26E010E4CEC0B
:102F500018F0380E4CEC18F00C0E4CEC18F0060E75
:102F60004CEC18F01200055007026F00CCFF09F07E
:102F70006F00D0FF0AF005500802F3500A260650F1
:102F80000702F3500A2609C005F00AC006F0120035
:102F9000055006100710D8B4D0EF17F0D2EF17F095
:102FA000D8EF17F005C06FF006C070F007C071F0E1
:102FB0001200055006100710D8B4E1EF17F0E3EF48
:102FC00017F0E9EF17F005C072F006C073F007C004
:102FD00074F01200055006100710D8B4F2EF17F085
:102FE000F4EF17F0FAEF17F005C075F006C076F0B1
:102FF00007C077F01200055006100710D8B403EF91
:1030000018F005EF18F00BEF18F005C060F006C0DF
:1030100061F007C062F01200055006100710D8B426
:1030200014EF18F016EF18F01CEF18F005C063F05D
:1030300006C064F007C065F01200055006100710C6
:10304000D8B425EF18F027EF18F02DEF18F005C0D1
:1030500066F006C067F007C068F01200076E76ECF5
:1030600018F00009D8B437EF18F039EF18F02FEF47
:1030700018F0075099EC16F012000B6E60002FF05C
:10308000BBFFBA80BA820000BA92000E066E010E33
:10309000056EC0EC16F012000B6E60002FF0BBFF47
:1030A000BA90BA820000BA92000E066E030E056E48
:1030B000C0EC16F01200000E5224D96EDA6A010E2E
:1030C000DA22DF503D01D26F5228016E01C052F06A
:1030D000512A1200620E3901D96F000EDB6F000E0B
:1030E000DD6F020EDF6F000EDE6F12005150D8A4AC
:1030F0007CEF18F07FEF18F0010E80EF18F0000E53
:1031000012004E50D8A487EF18F08AEF18F0010E85
:103110008BEF18F0000E12006AEC18F0B3EC12F00E
:103120004BEC15F073EC13F0E5EC16F0120005C053
:1031300078F006C079F007C07AF0120005C07BF085
:1031400006C07CF007C07DF0120005C046F006C046
:1031500047F007C048F01200010E4CEC18F01200C6
:0831600012001200120012001F
:020000040030CA
:0A0000008FFFF7FF9FFFFFFFFFFFD8
:00000001FF
