:0400000057EF20F0A6
:102000000057726F6E672044756D62206964696F56
:102010007400696E7465727275707420736F6E00EF
:0A202000636F6E6772617473000055
:104008002B102B102B102B102B102B102B102B10D0
:1040180092102B102B102B102B102B102B102B1059
:104028002B102B102B102B102B102B102B102B10B0
:104038002B102B102B102B102B102B102B102B10A0
:104048002B102B102B102B102B102B102B102B1090
:104058002B102B102B102B102B102B102B102B1080
:104068002B102B102B102B102B102B102B102B1070
:104078002B102B102B102B102B102B102B102B1060
:104088002B102B102B102B102B102B102B102B1050
:104098002B102B102B102B102B102B102B102B1040
:1040A8002B102B10FF001BEF22F0176E000E186E5E
:1040B8001704D8A462EF20F064EF20F0A9EF20F0F5
:1040C80086EF20F0CAA66BEF20F06DEF20F076EFB8
:1040D80020F0010E126EF40E116E4EEC21F0185005
:1040E800B3EF20F0CAA27BEF20F07DEF20F086EF3F
:1040F80020F0182ACC8E010E126EF40E116E4EECC2
:1041080021F0CC9E030E18648CEF20F08EEF20F087
:1041180066EF20F073EF20F0CAA695EF20F097EF36
:1041280020F099EF20F06DEF20F0CAA49EEF20F068
:10413800A0EF20F0A9EF20F0182ACC8E010E126E05
:10414800F40E116E4EEC21F0CC9E030E1864AFEF06
:1041580020F0B1EF20F090EF20F073EF20F0120084
:10416800C268000E3A01406F000ECA6E000EC46E9F
:10417800000E606F000ECC6ED280000ECAB0010E29
:10418800C06F4169D28AD28ED28CD28039018181A6
:104198009181A19104EC22F066EC22F0010E59EC19
:1041A80020F0226E2250300F2AEC22F0020E59EC39
:1041B80020F0216E2150300F2AEC22F021C01DF092
:1041C8002250F6EC20F0330E206EBB0E1F6EE00E70
:1041D800E82EFED71F2EFCD7202EFAD7CEEF20F0E0
:1041E80057EF20F01E6E020E1E18D8A4FEEF20F026
:1041F80000EF21F01BEF21F0040E1D18D8A407EFE3
:1042080021F009EF21F01BEF21F0000E196E200EAE
:104218001A6E020E98EC21F0CC86CC94030E126E26
:10422800E80E116E4EEC21F0CC9622EF21F0000E34
:0E423800196E010E1A6E020E98EC21F01200A3
:104248006F00D8FF0DF06F00DCFF0EF06F00E0FF8D
:104258000FF06F00D4FF10F0000E096E120E0A6EF8
:10426800020EB6EC21F0030E026EE80E016E73EC3E
:1042780021F06AEC22F03901A191600043F0F5FFCA
:1042880060003FF0F8FF60003BF0F7FF600037F098
:10429800F6FF1100000E146E000E136E67EF21F08A
:1042A800000E166E000E156E154A162A165009E1F4
:1042B800A50E155CD8A063EF21F065EF21F058EF4B
:1042C80021F0134A142A1150135C12501458D8A024
:1042D80070EF21F072EF21F054EF21F01200000E80
:1042E800046E000E036E8CEF21F0000E066E000EB9
:1042F800056E054A062A065009E1A50E055CD8A0F8
:1043080088EF21F08AEF21F07DEF21F0034A042A9B
:104318000150035C02500458D8A095EF21F097EFA4
:1043280021F079EF21F012001B6E020E1B609FEF47
:1043380021F0A1EF21F0AAEF21F019500F0B80090D
:104348001C6E1C5039EC22F0B1EF21F019500F0B04
:10435800C0091C6E1C5039EC22F01AC018F0D4ECBD
:1043680021F012000B6E020E0B60BDEF21F0BFEFC3
:1043780021F0C8EF21F009500F0B80090C6E0C508A
:1043880057EC22F0CFEF21F009500F0BC0090C6E4B
:104398000C5057EC22F00AC008F0ECEC21F01200A7
:1043A800DEEF21F0600063F0F6FF0800F5502AEC1C
:1043B80022F0182A600063F0F6FF0800F5500009A3
:1043C800D8A4E9EF21F0EBEF21F0D6EF21F01200AD
:1043D800F6EF21F0600023F0F6FF0800F55048ECF6
:1043E80022F0082A600023F0F6FF0800F5500009C3
:1043F800D8A401EF22F003EF22F0EEEF21F0120033
:10440800000E126E0F0E116E4EEC21F0000EC36EF0
:10441800000EC56E010E39EC22F0380E39EC22F090
:104428000C0E39EC22F0060E39EC22F01200226A4A
:10443800216A080ED56E400ED66E000ED76E000E9D
:10444800F86E200EF76E0001B4EF20F0176E6000D2
:104458005FF0BBFFBD80BD820000BD92000E126EF2
:10446800010E116E4EEC21F01200176E60005FF025
:10447800BBFFBD90BD820000BD92000E126E030E00
:10448800116E4EEC21F01200076E60001FF0BBFFAA
:10449800BD80BD820000BD92000E026E010E016E4D
:1044A80073EC21F01200076E60001FF0BBFFBD9097
:1044B800BD820000BD92000E026E030E016E73EC09
:1044C80021F01200010E39EC22F01200010E57EC17
:0444D80022F01200BC
:020000040030CA
:0A000000F8FFFFFF9FFFFFFFFFFF67
:00000001FF
