:0400000057EF20F0A6
:1020000000436F7272656374210057726F6E6721AF
:022010000000CE
:104008002B102B102B102B102B102B102B102B10D0
:104018002D102B102B102B102B102B102B102B10BE
:104028002B102B102B102B102B102B102B102B10B0
:104038002B102B102B102B102B102B102B102B10A0
:104048002B102B102B102B102B102B102B102B1090
:104058002B102B102B102B102B102B102B102B1080
:104068002B102B102B102B102B102B102B102B1070
:104078002B102B102B102B102B102B102B102B1060
:104088002B102B102B102B102B102B102B102B1050
:104098002B102B102B102B102B102B102B102B1040
:0A40A8002B102B10FF003AEF22F05E
:1040B400000E056E000E076E640E066E73EF20F0A0
:1040C400000E026E640E016EEFEC21F0CC88000E3F
:1040D400026E640E016EEFEC21F0CC980606D8A0B7
:1040E400070606500710D8A47AEF20F07CEF20F0E2
:1040F40062EF20F0000E076EC80E066E93EF20F0FC
:10410400000E026E320E016EEFEC21F0CC88000E30
:10411400026E320E016EEFEC21F0CC980606D8A0A8
:10412400070606500710D8A49AEF20F09CEF20F061
:1041340082EF20F0010E076E900E066EB3EF20F0B2
:10414400000E026E190E016EEFEC21F0CC88000E09
:10415400026E190E016EEFEC21F0CC980606D8A081
:10416400070606500710D8A4BAEF20F0BCEF20F0E1
:10417400A2EF20F0052A020E0564C3EF20F0C5EF7C
:1041840020F05CEF20F0CC883901A19111000E6E73
:10419400000E0F6E0E04D8A4D2EF20F0D4EF20F05E
:1041A40019EF21F0F6EF20F0CAA6DBEF20F0DDEFE7
:1041B40020F0E6EF20F0010E096EF40E086E71ECAB
:1041C40021F00F5023EF21F0CAA2EBEF20F0EDEF26
:1041D40020F0F6EF20F00F2ACC8E010E096EF40EBB
:1041E400086E71EC21F0CC9E030E0F64FCEF20F0FE
:1041F400FEEF20F0D6EF20F0E3EF20F0CAA605EFA3
:1042040021F007EF21F009EF21F0DDEF20F0CAA43F
:104214000EEF21F010EF21F019EF21F00F2ACC8ED0
:10422400010E096EF40E086E71EC21F0CC9E030EA3
:104234000F641FEF21F021EF21F000EF21F0E3EFF5
:1042440020F01200156E020E1518D8A42CEF21F0E0
:104254002EEF21F049EF21F0040E1418D8A435EF05
:1042640021F037EF21F049EF21F0000E106E010E1E
:10427400116E020EB5EC21F0CC86CC94010E096EC1
:10428400F40E086E71EC21F0CC9670EF21F0000E64
:10429400106E0A0E116E020EB5EC21F0030E176EAD
:1042A400E80E166E67EF21F0000E096E010E086E1F
:1042B40071EC21F0CC88000E096E010E086E71ECD1
:1042C40021F0CC981606D8A0170616501710D8A4BB
:1042D4006EEF21F070EF21F056EF21F01200000E86
:1042E4000B6E000E0A6E8AEF21F0000E0D6E000EAA
:1042F4000C6E0C4A0D2A0D5009E1A50E0C5CD8A0D9
:1043040086EF21F088EF21F07BEF21F00A4A0B2A97
:1043140008500A5C09500B58D8A093EF21F095EF90
:1043240021F077EF21F01200D3EC21F023EC22F0FE
:1043340067EC22F0010EC9EC20F0196E1950300F11
:1043440049EC22F0020EC9EC20F0186E1850300F20
:1043540049EC22F018C014F0195024EC21F098EF25
:1043640021F057EF20F0126E020E1260BCEF21F024
:10437400BEEF21F0C7EF21F010500F0B8009136E30
:10438400135058EC22F0CEEF21F010500F0BC0095F
:10439400136E135058EC22F011C00FF00BEC22F006
:1043A4001200C268000E3A01406F000ECA6E000E81
:1043B400C46E000E606F000ECC6ECC88D280000EEE
:1043C400CAB0010EC06F4169D28AD28ED28CD2801B
:1043D400390181819181A1911200000E046E000EB9
:1043E400036EFFEF21F00000000000000000000059
:1043F400000000000000034A042A0150035C02503C
:104404000458D8A008EF22F00AEF22F0F5EF21F0CB
:10441400120015EF22F060003FF0F6FF0800F5509F
:1044240049EC22F00F2A60003FF0F6FF0800F55037
:104434000009D8A420EF22F022EF22F00DEF22F0A1
:104444001200000E096E0F0E086E71EC21F0000EC2
:10445400C36E000EC56E010E58EC22F0380E58ECF7
:1044640022F00C0E58EC22F0060E58EC22F012004A
:10447400196A186A080ED56E400ED66E000ED76EF5
:10448400000EF86E200EF76E000196EF21F00E6E0E
:1044940060003BF0BBFFBD80BD820000BD92000EFA
:1044A400096E010E086E71EC21F012000E6E6000B0
:1044B4003BF0BBFFBD90BD820000BD92000E096EB3
:1044C400030E086E71EC21F01200010E58EC22F07C
:0244D4001200D4
:020000040030CA
:0A000000F8FFFFFF9FFFFFFFFFFF67
:00000001FF
