:0400000057EF20F0A6
:1020000000696E7465727275707420736F6E006F04
:0C2010007574206F66207363616E000021
:104008002B102B102B102B102B102B102B102B10D0
:1040180076102B102B102B102B102B102B102B1075
:104028002B102B102B102B102B102B102B102B10B0
:104038002B102B102B102B102B102B102B102B10A0
:104048002B102B102B102B102B102B102B102B1090
:104058002B102B102B102B102B102B102B102B1080
:104068002B102B102B102B102B102B102B102B1070
:104078002B102B102B102B102B102B102B102B1060
:104088002B102B102B102B102B102B102B102B1050
:104098002B102B102B102B102B102B102B102B1040
:1040A8002B102B10FF00E2EF21F0176E000E186E98
:1040B8001704D8A462EF20F064EF20F0A3EF20F0FB
:1040C80080EF20F0CAA26BEF20F06DEF20F080EFB8
:1040D80020F0182ACC8E030E126EE80E116E15EC25
:1040E80021F0CC9ECAA67BEF20F07DEF20F080EF78
:1040F80020F01850ADEF20F0030E186486EF20F082
:1041080088EF20F066EF20F07DEF20F0CAA48FEF53
:1041180020F091EF20F0A3EF20F0182ACC8E030EA8
:10412800126EE80E116E15EC21F0CC9ECAA69FEF18
:1041380020F0A1EF20F0A3EF20F07DEF20F0030E98
:104148001864A9EF20F0ABEF20F08AEF20F07DEFA4
:1041580020F01200C268000E3A01406F000EC46ED3
:10416800000E606FD280000ECAB0010EC06F4169A8
:10417800D28AD28ED28CD280390181819181A1914B
:10418800CBEC21F02DEC22F0010E59EC20F0206E42
:104198002050300FF1EC21F0010E59EC20F01F6E89
:1041A8001F50300FF1EC21F0000E196E0F0E1A6E31
:1041B800020E5FEC21F0330E1E6EBB0E1D6EE00E7C
:1041C800E82EFED71D2EFCD71E2EFAD757EF20F06B
:1041D8006F00D8FF0DF06F00DCFF0EF06F00E0FFFE
:1041E8000FF06F00D4FF10F0CC8E030E026EE80EB5
:1041F800016E3AEC21F0000E096E010E0A6E020EF5
:104208007DEC21F03901A191600043F0F5FF6000D9
:104218003FF0F8FF60003BF0F7FF600037F0F6FF73
:104228001100000E146E000E136E2EEF21F0000E1A
:10423800166E000E156E154A162A165009E1A50EBF
:10424800155CD8A02AEF21F02CEF21F01FEF21F008
:10425800134A142A1150135C12501458D8A037EF7F
:1042680021F039EF21F01BEF21F01200000E046E4F
:10427800000E036E53EF21F0000E066E000E056E61
:10428800054A062A065009E1A50E055CD8A04FEF9D
:1042980021F051EF21F044EF21F0034A042A0150A4
:1042A800035C02500458D8A05CEF21F05EEF21F0C7
:1042B80040EF21F012001B6E020E1B6066EF21F02A
:1042C80068EF21F071EF21F019500F0B80091C6E77
:1042D8001C5000EC22F078EF21F019500F0BC009A8
:1042E8001C6E1C5000EC22F01AC018F09BEC21F058
:1042F80012000B6E020E0B6084EF21F086EF21F0A6
:104308008FEF21F009500F0B80090C6E0C501EEC3A
:1043180022F096EF21F009500F0BC0090C6E0C50DB
:104328001EEC22F00AC008F0B3EC21F01200A5EF51
:1043380021F0600063F0F6FF0800F550F1EC21F081
:10434800182A600063F0F6FF0800F5500009D8A4A9
:10435800B0EF21F0B2EF21F09DEF21F01200BDEF98
:1043680021F0600023F0F6FF0800F5500FEC22F072
:10437800082A600023F0F6FF0800F5500009D8A4C9
:10438800C8EF21F0CAEF21F0B5EF21F01200000EBE
:10439800126E0F0E116E15EC21F0000EC36E000E9A
:1043A800C56E010E00EC22F0380E00EC22F00C0E67
:1043B80000EC22F0060E00EC22F01200206A1F6AC0
:1043C800080ED56E400ED66E000ED76E000EF86E33
:1043D800200EF76E0001AEEF20F0176E60005FF060
:1043E800BBFFBD80BD820000BD92000E126E010EA3
:1043F800116E15EC21F01200176E60005FF0BBFF24
:10440800BD90BD820000BD92000E126E030E116EAB
:1044180015EC21F01200076E60001FF0BBFFBD8095
:10442800BD820000BD92000E026E010E016E3AECD4
:1044380021F01200076E60001FF0BBFFBD90BD8227
:104448000000BD92000E026E030E016E3AEC21F0E0
:0A4458001200010E00EC22F0120029
:020000040030CA
:0A000000F8FFFFFF9FFFFFFFFFFF67
:00000001FF
