:040000000DEF00F010
:04000800B9EF12F04A
:06001800FF00C3EF14F02D
:1020000000322600000000402B00262900CA2C00C8
:10201000282C00000000000000000000000000006C
:1020200000000000000000000000000000000000B0
:1020300000000000000000762B00000000E22B00F2
:10204000BE2B009A2B00000000496E2074686520AA
:102050007465726D696E616C2C2073656E642027E7
:10206000412720746F207475726E20746865204C4F
:102070004544206F6E2C20616E6420274227207417
:102080006F207475726E206974206F66662E0D0A5B
:10209000004E6F74653A20636F6D6D616E647320DE
:1020A00027412720616E6420274227206172652026
:1020B000636173652073656E7369746976652E0D4F
:1020C0000A00496E636F727265637420636F6D6D91
:1020D000616E642E0D0A004F4B2C204C4544204F5E
:1020E00046462E0D0A004F4B2C204C4544204F4EA7
:0920F0002E0D0A0041004200001F
:1020FA002450020D000EF324D96E020EF420DA6E7B
:10210A00DE6ADD6A3D01E1A78DEF10F08FEF10F076
:10211A00B0EF10F02450020D000EF324D96E020E17
:10212A00F420DA6E0201DF820D500E100F10D8B4BF
:10213A00A1EF10F0A3EF10F0B0EF10F002D8B0EF5B
:10214A0010F00500FA6E0D50FD6E0E50FE6E0F5027
:10215A00FF6EFA5012003D01E1A3B6EF10F0B8EF9E
:10216A0010F0D9EF10F02450020D000EF324D96EAE
:10217A00020EF420DA6E0201DF840A500B100C10F2
:10218A00D8B4CAEF10F0CCEF10F0D9EF10F002D8A3
:10219A00D9EF10F00500FA6E0A50FD6E0B50FE6E74
:1021AA000C50FF6EFA5012006F0040F740F02428DE
:1021BA007F0B416E23504118D8A4E6EF10F0E8EFE8
:1021CA0010F0EAEF10F0F6EF10F0000E2424D96EAA
:1021DA00DA6A010EDA22600003F1DFFF41C024F05F
:1021EA00222A015002100310D8B4FEEF10F000EFBB
:1021FA0011F00DEF11F002D80DEF11F00500FA6E93
:10220A000150FD6E0250FE6E0350FF6EFA5012002E
:10221A0012000D0EF66E200EF76E000EF86E02D842
:10222A0024EF11F00500FA6E0900F550FD6E090061
:10223A00F550FE6E0900F550FF6EFA5012000009C3
:10224A00D8B42AEF11F02CEF11F07BEF11F0070E42
:10225A00F66E200EF76E000EF86E02D842EF11F0FD
:10226A000500FA6E0900F550FD6E0900F550FE6E84
:10227A000900F550FF6EFA501200206E0A0E20185F
:10228A00D8B44AEF11F04CEF11F067EF11F00D0ED0
:10229A002018D8B453EF11F055EF11F067EF11F091
:1022AA002150800FD96EDA6A600083F0DFFF212A9D
:1022BA00080E216463EF11F065EF11F067EF11F07A
:1022CA00000E216E0A0E2018D8A46EEF11F070EFDE
:1022DA0011F07BEF11F02150800FD96EDA6ADF6AB4
:1022EA00000E216E800E3F6E62EC14F012000001A7
:1022FA008D518E11D8B484EF11F086EF11F08FEF63
:10230A0011F08D518E11D8A48DEF11F08FEF11F0CD
:10231A0094EF11F08B5103EC16F0E8EF11F020EE78
:10232A000AF08D51D9268E51DA22DE50DE10D8B449
:10233A00A1EF11F0A3EF11F0BEEF11F020EE0AF0B9
:10234A008D51D9268E51DA2210EE03F08D51E126F5
:10235A008E51E222DE50E65CE650800A936FDE5030
:10236A00800A9359D8B0BCEF11F0BEEF11F0E8EF34
:10237A0011F020EE03F08D51D9268E51DA226F002A
:10238A0078FF8FF06F0074FF90F0600037F2D9FF8A
:10239A0060003BF2DAFF6F0078FF91F06F0074FF84
:1023AA0092F08F519125D96E90519221DA6E600088
:1023BA002FF2DFFF20EE03F08D51D9268E51DA225B
:1023CA00DE2A000EDD2212002D502E10D8B4F0EFB6
:1023DA0011F0F2EF11F0FBEF11F02D502E10D8A4EE
:1023EA00F9EF11F0FBEF11F000EF12F02B5024EC93
:1023FA0016F054EF12F020EE0AF02D50D9262E5086
:10240A00DA22DE50DE10D8B40DEF12F00FEF12F020
:10241A002AEF12F020EE0AF02D50D9262E50DA2299
:10242A0010EE03F02D50E1262E50E222DE50E65C3B
:10243A00E650800A336EDE50800A3358D8B028EF4F
:10244A0012F02AEF12F054EF12F020EE03F02D50A2
:10245A00D9262E50DA226F0078FF2FF06F0074FF12
:10246A0030F06000B7F0D9FF6000BBF0DAFF6F0010
:10247A0078FF31F06F0074FF32F02F503124D96E9B
:10248A0030503220DA6E6000AFF0DFFF20EE03F04A
:10249A002D50D9262E50DA22DE2A000EDD22120015
:1024AA00000EBA6E000EBB6E000EBC6E000EBD6E44
:1024BA00000EBE6EC268FD0EC36EC468FE0EC56E07
:1024CA00070EC66E3A014069FD0E506F6069FC0E38
:1024DA00706F070E806F000E416F000E516F000E75
:1024EA00616F000E716F000E816F000E426F000E59
:1024FA00526F000E626F000E726F000E826F436998
:10250A00536963697369070E836F4469546964691F
:10251A0074690F0E846F000E5A6F000E5B6F000E07
:10252A006A6F000E6B6F000E7A6F000E7B6F190ECA
:10253A00E86F160E186F000E456F000E466F000EFC
:10254A00476F000E556F000E566F000E576F000E44
:10255A00656F000E666F000E676F000E856F000EC6
:10256A00866F000E876F12006F00E8FF42F06F005F
:10257A00ECFF43F06F00D8FF44F06F00DCFF45F03A
:10258A006F00E0FF46F06F00D4FF47F0390196A7CD
:10259A00D1EF12F0D3EF12F0EAEF12F0A6A7D8EFBC
:1025AA0012F0DAEF12F0EAEF12F002D8E8EF12F0C6
:1025BA000500FA6E0001A251FD6EA351FE6EA451F0
:1025CA00FF6EFA50120006EF13F096A5EFEF12F025
:1025DA00F1EF12F006EF13F0A6A5F6EF12F0F8EFFE
:1025EA0012F006EF13F002D806EF13F00500FA6EA8
:1025FA0000019F51FD6EA051FE6EA151FF6EFA506F
:10260A00120060001FF1F5FF60001BF1F8FF600087
:10261A0017F1F7FF600013F1F6FF60000FF1FBFFFF
:10262A0060000BF1FAFF110039019695FA0E0001CC
:10263A009F6F200EA06F000EA16F39019697080EAA
:10264A000001A26F2B0EA36F000EA46F000E3D01B6
:10265A00D06F000ED26F000ED46F000ED66F000E30
:10266A00D86FB00EDA6F800EDB6F000EDC6F190EBA
:10267A00DD6F000EDE6F2E0EDF6F000EE06F800E34
:10268A00E16F000EE26F1E0E0001886F2D0E896F3A
:10269A00000E8A6FF1EC15F01C0E0001886F2D0EEA
:1026AA00896F000E8A6FDFEC15F0000E0001886F4B
:1026BA00000E896F000E8A6FCDEC15F0000E1E6EAB
:1026CA00000E1D6E000E276E000E266E800E256E01
:1026DA00000E246E000E236E000E226E39019685BE
:1026EA00120000019651D96EDA6A6F007FFFF6FF79
:1026FA00200EF76E000EF86E0800F550250AD8A4D1
:10270A0089EF13F08BEF13F09EEF13F09651D96E09
:10271A00DA6ADF2A000E1A6E000E196E19C01FF04F
:10272A001B681C6800019651D96EDA6ADF2AB4EF79
:10273A0013F09651D96EDA6A6F007FFFF6FF200E0A
:10274A00F76E000EF86E0800F5508B6F8C6B94C014
:10275A008DF095C08EF07CEC11F097EF13F012001B
:10276A003650D96EDA6A6F007FFFF6FF200EF76ED9
:10277A00000EF86E0800F550250AD8A4C7EF13F02A
:10278A00C9EF13F0DBEF13F03650D96EDA6ADF2A9D
:10279A00000E1A6E000E196E19C01FF01B681C6815
:1027AA003650D96EDA6ADF2AF1EF13F03650D96E55
:1027BA00DA6A6F007FFFF6FF200EF76E000EF86EE2
:1027CA000800F5502B6E2C6A34C02DF035C02EF05F
:1027DA00E9EC11F0D5EF13F01200F6EF13F0282A06
:1027EA00292A2850D96EDA6ADF502A6E6000A7F0CB
:1027FA00F6FF200EF76E000EF86E0800F5502A1844
:10280A00D8A40AEF14F00CEF14F017EF14F02850C4
:10281A00D96EDA6ADF50D8A415EF14F017EF14F066
:10282A00F4EF13F02850D96EDA6ADF502A6E60008E
:10283A00A7F0F6FF200EF76E000EF86E0800F550AE
:10284A002A5C286E296AD8A029061200000E3A01CD
:10285A00506F000EC36E000ECB6E70EC16F0D28E67
:10286A0019EC13F01C0E0001886F220E896F000EFE
:10287A008A6F370EF66E200EF76E000EF86E02D8CB
:10288A0054EF14F00500FA6E0900F550FD6E0900C8
:10289A00F550FE6E0900F550FF6EFA501200490E0F
:1028AA0000019D6F33EC16F0910E00019D6F33EC21
:1028BA0016F05EEF14F00DEF00F03FC028F0F40EB2
:1028CA00296EF2EC13F028502910D8A46FEF14F0F7
:1028DA0071EF14F078EF14F0BB82E60E3D6E41EC16
:1028EA0016F092EF14F03FC028F0F60E296EF2ECC3
:1028FA0013F028502910D8A485EF14F087EF14F0AC
:10290A008EEF14F0BB92D70E3D6E41EC16F092EFAB
:10291A0014F0C20E3D6E41EC16F01200D3AE98EFE1
:10292A0014F0ECEF14F00001896F390196B7A0EFAB
:10293A0014F0A2EF14F0A7EF14F0600027F2D2FD12
:10294A00C1EF14F02550D8B4ADEF14F0AFEF14F086
:10295A00C1EF14F0800E2724D96EDA6A010EDA224A
:10296A00600027F2DFFF27287F0B0001886F88C0ED
:10297A0027F03901969725069687120000EE00F295
:10298A0010EE00F1EE6AE550E150FCE1E250FAE1A6
:10299A0000EE00F110EE00F1EE6AE550E150FCE1C4
:1029AA00E250FAE100EE60F0280EEE6AE806FDE178
:1029BA0000EE01F0270EEE6AE806FDE1080ED56E7C
:1029CA00000ED66E000ED76E00012BEF14F0296EA2
:1029DA00390196B7F3EF14F0F5EF14F0FAEF14F0AB
:1029EA006000A7F0D2FD12EF15F02550D8B400EF21
:1029FA0015F002EF15F012EF15F0800E2724D96EAC
:102A0A00DA6A010EDA226000A7F0DFFF27287F0BBF
:102A1A00286E28C027F096972506968712009AC036
:102A2A009CF023EF15F098C094F099C095F09C0E95
:102A3A000001966F9BC097F076EC13F0600073F27A
:102A4A00F6FF200EF76E000EF86E0800F55000092A
:102A5A00D8A432EF15F034EF15F018EF15F0000E88
:102A6A000001996F000E986F1200D29A3901A19154
:102A7A00D280000E0001886F000E896F000E8A6FE7
:102A8A0087EC16F03901A591D282000E0001886FF9
:102A9A00000E896F000E8A6F80EC16F03901A79B31
:102AAA00D284000E0001886F000E896F000E8A6FB3
:102ABA0079EC16F012003AC03CF06EEF15F038C00F
:102ACA0034F039C035F03C0E366E3BC037F0B5EC09
:102ADA0013F06000F3F0F6FF200EF76E000EF86EAA
:102AEA000800F5500009D8A47DEF15F07FEF15F026
:102AFA0064EF15F0000E396E000E386E1200800E6B
:102B0A0025608AEF15F08CEF15F09DEF15F0800E19
:102B1A002624D96EDA6A010EDA22DF503D01D26F1D
:102B2A0026287F0B286E28C026F0252A9FEF15F04D
:102B3A00390196971200000E2324D96EDA6A010E23
:102B4A00DA22DF50296E23287F0B286E28C023F053
:102B5A00390196952250D8B4B5EF15F0B7EF15F0B4
:102B6A00B8EF15F022069685295012000001885107
:102B7A0089118A11D8B4C4EF15F0C6EF15F0CCEF5D
:102B8A0015F088C001F089C002F08AC003F0120073
:102B9A000001885189118A11D8B4D6EF15F0D8EFFF
:102BAA0015F0DEEF15F088C007F089C008F08AC07A
:102BBA0009F012000001885189118A11D8B4E8EF8E
:102BCA0015F0EAEF15F0F0EF15F088C00AF089C0A9
:102BDA000BF08AC00CF012000001885189118A1189
:102BEA00D8B4FAEF15F0FCEF15F002EF16F088C032
:102BFA000DF089C00EF08AC00FF0120000018A6F32
:102C0A0014EC16F00009D8B40DEF16F00FEF16F019
:102C1A0005EF16F000018A5193EC14F01200D3AEBE
:102C2A0019EF16F05AEF16F02550D8A41FEF16F038
:102C3A0022EF16F0010E23EF16F0000E12002A6E94
:102C4A005AEC16F00009D8B42DEF16F02FEF16F053
:102C5A0025EF16F02A50ECEC14F012009E0E00013B
:102C6A009E6F000E986F000E996F9DC09AF09E0E8F
:102C7A009B6F14EC15F012003E0E3E6E000E386E7D
:102C8A00000E396E3DC03AF03E0E3B6E60EC15F018
:102C9A001200600E3901D96F000EDB6F000EDD6F76
:102CAA00040EDF6F000EDE6F12002550D8A460EF0D
:102CBA0016F063EF16F0010E64EF16F0000E120024
:102CCA002250D8A46BEF16F06EEF16F0010E6FEFDC
:102CDA0016F0000E12004EEC16F055EC12F019EC3C
:102CEA0013F03AEC15F0120088C010F089C011F008
:102CFA008AC012F0120088C013F089C014F08AC08A
:102D0A0015F0120088C016F089C017F08AC018F0B2
:062D1A001200120012007D
:020000040030CA
:0A0000008FFFF7FF9FFFFFFFFFFFD8
:00000001FF
