:0400000010EF00F00D
:10002000000EC56E000E216E21BE31EF00F00F0EE6
:10003000206E216402D02AEF00F0216002D031EF5F
:1000400000F023EF00F0000E226E60008BF0CDFF79
:1000500038EF00F0010E226E60008BF0CDFF38EF1C
:1000600000F0020E226E60008BF0CDFF38EF00F042
:10007000000E306E316A30AE40EF00F0301E302A94
:100080000A0E316A312A305EFDE23026310630C078
:1000900072F031C030F0316A312A305EFDE2302634
:1000A000310630C071F031C070F00F0E306E0A0EA4
:1000B000316A312A305EFDE23026310630C062F00E
:1000C00031C030F0316A312A305EFDE2302631062F
:0800D00030C061F031C060F0A6
:00000001FF
